{
  "address": "0xeEeAcDf386a2f13c76888F0895DdefdCF44e2A89",
  "abi": [
    {
      "inputs": [],
      "stateMutability": "nonpayable",
      "type": "constructor"
    },
    {
      "inputs": [],
      "name": "InvalidAddress",
      "type": "error"
    },
    {
      "inputs": [],
      "name": "ParameterOutOfBounds",
      "type": "error"
    },
    {
      "anonymous": false,
      "inputs": [
        {
          "indexed": true,
          "internalType": "address",
          "name": "owner",
          "type": "address"
        },
        {
          "indexed": true,
          "internalType": "address",
          "name": "spender",
          "type": "address"
        },
        {
          "indexed": false,
          "internalType": "uint256",
          "name": "value",
          "type": "uint256"
        }
      ],
      "name": "Approval",
      "type": "event"
    },
    {
      "anonymous": false,
      "inputs": [
        {
          "indexed": true,
          "internalType": "address",
          "name": "sender",
          "type": "address"
        },
        {
          "indexed": true,
          "internalType": "address",
          "name": "owner",
          "type": "address"
        },
        {
          "indexed": false,
          "internalType": "uint256",
          "name": "assets",
          "type": "uint256"
        },
        {
          "indexed": false,
          "internalType": "uint256",
          "name": "shares",
          "type": "uint256"
        }
      ],
      "name": "Deposit",
      "type": "event"
    },
    {
      "anonymous": false,
      "inputs": [
        {
          "indexed": false,
          "internalType": "uint8",
          "name": "version",
          "type": "uint8"
        }
      ],
      "name": "Initialized",
      "type": "event"
    },
    {
      "anonymous": false,
      "inputs": [
        {
          "indexed": true,
          "internalType": "address",
          "name": "from",
          "type": "address"
        },
        {
          "indexed": true,
          "internalType": "address",
          "name": "to",
          "type": "address"
        },
        {
          "indexed": false,
          "internalType": "uint256",
          "name": "value",
          "type": "uint256"
        }
      ],
      "name": "Transfer",
      "type": "event"
    },
    {
      "anonymous": false,
      "inputs": [
        {
          "indexed": true,
          "internalType": "address",
          "name": "sender",
          "type": "address"
        },
        {
          "indexed": true,
          "internalType": "address",
          "name": "receiver",
          "type": "address"
        },
        {
          "indexed": true,
          "internalType": "address",
          "name": "owner",
          "type": "address"
        },
        {
          "indexed": false,
          "internalType": "uint256",
          "name": "assets",
          "type": "uint256"
        },
        {
          "indexed": false,
          "internalType": "uint256",
          "name": "shares",
          "type": "uint256"
        }
      ],
      "name": "Withdraw",
      "type": "event"
    },
    {
      "inputs": [],
      "name": "ONE_RAY",
      "outputs": [
        {
          "internalType": "uint256",
          "name": "",
          "type": "uint256"
        }
      ],
      "stateMutability": "view",
      "type": "function"
    },
    {
      "inputs": [],
      "name": "WETH",
      "outputs": [
        {
          "internalType": "address",
          "name": "",
          "type": "address"
        }
      ],
      "stateMutability": "view",
      "type": "function"
    },
    {
      "inputs": [
        {
          "internalType": "address",
          "name": "owner",
          "type": "address"
        },
        {
          "internalType": "address",
          "name": "spender",
          "type": "address"
        }
      ],
      "name": "allowance",
      "outputs": [
        {
          "internalType": "uint256",
          "name": "",
          "type": "uint256"
        }
      ],
      "stateMutability": "view",
      "type": "function"
    },
    {
      "inputs": [
        {
          "internalType": "address",
          "name": "spender",
          "type": "address"
        },
        {
          "internalType": "uint256",
          "name": "amount",
          "type": "uint256"
        }
      ],
      "name": "approve",
      "outputs": [
        {
          "internalType": "bool",
          "name": "",
          "type": "bool"
        }
      ],
      "stateMutability": "nonpayable",
      "type": "function"
    },
    {
      "inputs": [],
      "name": "asset",
      "outputs": [
        {
          "internalType": "address",
          "name": "",
          "type": "address"
        }
      ],
      "stateMutability": "pure",
      "type": "function"
    },
    {
      "inputs": [
        {
          "internalType": "address",
          "name": "account",
          "type": "address"
        }
      ],
      "name": "balanceOf",
      "outputs": [
        {
          "internalType": "uint256",
          "name": "",
          "type": "uint256"
        }
      ],
      "stateMutability": "view",
      "type": "function"
    },
    {
      "inputs": [
        {
          "internalType": "uint256",
          "name": "shares",
          "type": "uint256"
        }
      ],
      "name": "convertToAssets",
      "outputs": [
        {
          "internalType": "uint256",
          "name": "",
          "type": "uint256"
        }
      ],
      "stateMutability": "view",
      "type": "function"
    },
    {
      "inputs": [
        {
          "internalType": "uint256",
          "name": "assets",
          "type": "uint256"
        }
      ],
      "name": "convertToShares",
      "outputs": [
        {
          "internalType": "uint256",
          "name": "",
          "type": "uint256"
        }
      ],
      "stateMutability": "view",
      "type": "function"
    },
    {
      "inputs": [],
      "name": "decimals",
      "outputs": [
        {
          "internalType": "uint8",
          "name": "",
          "type": "uint8"
        }
      ],
      "stateMutability": "view",
      "type": "function"
    },
    {
      "inputs": [
        {
          "internalType": "address",
          "name": "spender",
          "type": "address"
        },
        {
          "internalType": "uint256",
          "name": "subtractedValue",
          "type": "uint256"
        }
      ],
      "name": "decreaseAllowance",
      "outputs": [
        {
          "internalType": "bool",
          "name": "",
          "type": "bool"
        }
      ],
      "stateMutability": "nonpayable",
      "type": "function"
    },
    {
      "inputs": [
        {
          "internalType": "uint256",
          "name": "assets",
          "type": "uint256"
        },
        {
          "internalType": "address",
          "name": "receiver",
          "type": "address"
        }
      ],
      "name": "deposit",
      "outputs": [
        {
          "internalType": "uint256",
          "name": "shares",
          "type": "uint256"
        }
      ],
      "stateMutability": "nonpayable",
      "type": "function"
    },
    {
      "inputs": [
        {
          "internalType": "address",
          "name": "spender",
          "type": "address"
        },
        {
          "internalType": "uint256",
          "name": "addedValue",
          "type": "uint256"
        }
      ],
      "name": "increaseAllowance",
      "outputs": [
        {
          "internalType": "bool",
          "name": "",
          "type": "bool"
        }
      ],
      "stateMutability": "nonpayable",
      "type": "function"
    },
    {
      "inputs": [
        {
          "internalType": "string",
          "name": "name_",
          "type": "string"
        },
        {
          "internalType": "string",
          "name": "symbol_",
          "type": "string"
        },
        {
          "internalType": "address",
          "name": "poolAddress_",
          "type": "address"
        },
        {
          "internalType": "address",
          "name": "lpTokenAddress_",
          "type": "address"
        }
      ],
      "name": "initialize",
      "outputs": [],
      "stateMutability": "nonpayable",
      "type": "function"
    },
    {
      "inputs": [],
      "name": "lpTokenAddress",
      "outputs": [
        {
          "internalType": "address",
          "name": "",
          "type": "address"
        }
      ],
      "stateMutability": "view",
      "type": "function"
    },
    {
      "inputs": [
        {
          "internalType": "address",
          "name": "",
          "type": "address"
        }
      ],
      "name": "maxDeposit",
      "outputs": [
        {
          "internalType": "uint256",
          "name": "",
          "type": "uint256"
        }
      ],
      "stateMutability": "pure",
      "type": "function"
    },
    {
      "inputs": [
        {
          "internalType": "address",
          "name": "",
          "type": "address"
        }
      ],
      "name": "maxMint",
      "outputs": [
        {
          "internalType": "uint256",
          "name": "",
          "type": "uint256"
        }
      ],
      "stateMutability": "pure",
      "type": "function"
    },
    {
      "inputs": [
        {
          "internalType": "address",
          "name": "owner",
          "type": "address"
        }
      ],
      "name": "maxRedeem",
      "outputs": [
        {
          "internalType": "uint256",
          "name": "",
          "type": "uint256"
        }
      ],
      "stateMutability": "view",
      "type": "function"
    },
    {
      "inputs": [
        {
          "internalType": "address",
          "name": "owner",
          "type": "address"
        }
      ],
      "name": "maxWithdraw",
      "outputs": [
        {
          "internalType": "uint256",
          "name": "",
          "type": "uint256"
        }
      ],
      "stateMutability": "view",
      "type": "function"
    },
    {
      "inputs": [
        {
          "internalType": "uint256",
          "name": "shares",
          "type": "uint256"
        },
        {
          "internalType": "address",
          "name": "receiver",
          "type": "address"
        }
      ],
      "name": "mint",
      "outputs": [
        {
          "internalType": "uint256",
          "name": "assets",
          "type": "uint256"
        }
      ],
      "stateMutability": "nonpayable",
      "type": "function"
    },
    {
      "inputs": [],
      "name": "name",
      "outputs": [
        {
          "internalType": "string",
          "name": "",
          "type": "string"
        }
      ],
      "stateMutability": "view",
      "type": "function"
    },
    {
      "inputs": [],
      "name": "poolAddress",
      "outputs": [
        {
          "internalType": "address",
          "name": "",
          "type": "address"
        }
      ],
      "stateMutability": "view",
      "type": "function"
    },
    {
      "inputs": [
        {
          "internalType": "uint256",
          "name": "assets",
          "type": "uint256"
        }
      ],
      "name": "previewDeposit",
      "outputs": [
        {
          "internalType": "uint256",
          "name": "",
          "type": "uint256"
        }
      ],
      "stateMutability": "view",
      "type": "function"
    },
    {
      "inputs": [
        {
          "internalType": "uint256",
          "name": "shares",
          "type": "uint256"
        }
      ],
      "name": "previewMint",
      "outputs": [
        {
          "internalType": "uint256",
          "name": "",
          "type": "uint256"
        }
      ],
      "stateMutability": "view",
      "type": "function"
    },
    {
      "inputs": [
        {
          "internalType": "uint256",
          "name": "shares",
          "type": "uint256"
        }
      ],
      "name": "previewRedeem",
      "outputs": [
        {
          "internalType": "uint256",
          "name": "",
          "type": "uint256"
        }
      ],
      "stateMutability": "view",
      "type": "function"
    },
    {
      "inputs": [
        {
          "internalType": "uint256",
          "name": "assets",
          "type": "uint256"
        }
      ],
      "name": "previewWithdraw",
      "outputs": [
        {
          "internalType": "uint256",
          "name": "",
          "type": "uint256"
        }
      ],
      "stateMutability": "view",
      "type": "function"
    },
    {
      "inputs": [
        {
          "internalType": "uint256",
          "name": "shares",
          "type": "uint256"
        },
        {
          "internalType": "address",
          "name": "receiver",
          "type": "address"
        },
        {
          "internalType": "address",
          "name": "owner",
          "type": "address"
        }
      ],
      "name": "redeem",
      "outputs": [
        {
          "internalType": "uint256",
          "name": "assets",
          "type": "uint256"
        }
      ],
      "stateMutability": "nonpayable",
      "type": "function"
    },
    {
      "inputs": [],
      "name": "symbol",
      "outputs": [
        {
          "internalType": "string",
          "name": "",
          "type": "string"
        }
      ],
      "stateMutability": "view",
      "type": "function"
    },
    {
      "inputs": [],
      "name": "totalAssets",
      "outputs": [
        {
          "internalType": "uint256",
          "name": "",
          "type": "uint256"
        }
      ],
      "stateMutability": "view",
      "type": "function"
    },
    {
      "inputs": [],
      "name": "totalSupply",
      "outputs": [
        {
          "internalType": "uint256",
          "name": "",
          "type": "uint256"
        }
      ],
      "stateMutability": "view",
      "type": "function"
    },
    {
      "inputs": [
        {
          "internalType": "address",
          "name": "to",
          "type": "address"
        },
        {
          "internalType": "uint256",
          "name": "amount",
          "type": "uint256"
        }
      ],
      "name": "transfer",
      "outputs": [
        {
          "internalType": "bool",
          "name": "",
          "type": "bool"
        }
      ],
      "stateMutability": "nonpayable",
      "type": "function"
    },
    {
      "inputs": [
        {
          "internalType": "address",
          "name": "from",
          "type": "address"
        },
        {
          "internalType": "address",
          "name": "to",
          "type": "address"
        },
        {
          "internalType": "uint256",
          "name": "amount",
          "type": "uint256"
        }
      ],
      "name": "transferFrom",
      "outputs": [
        {
          "internalType": "bool",
          "name": "",
          "type": "bool"
        }
      ],
      "stateMutability": "nonpayable",
      "type": "function"
    },
    {
      "inputs": [
        {
          "internalType": "uint256",
          "name": "assets",
          "type": "uint256"
        },
        {
          "internalType": "address",
          "name": "receiver",
          "type": "address"
        },
        {
          "internalType": "address",
          "name": "owner",
          "type": "address"
        }
      ],
      "name": "withdraw",
      "outputs": [
        {
          "internalType": "uint256",
          "name": "shares",
          "type": "uint256"
        }
      ],
      "stateMutability": "nonpayable",
      "type": "function"
    }
  ],
  "transactionHash": "0xb2e24493467baf55bea8b8539101375eecae55bd2cf7113adf6d31c8983f700f",
  "args": [],
  "numDeployments": 1,
  "solcInputHash": "0d2daa9b8f7af8b473760ede7b74e997",
  "bytecode": "0x608060405234801561001057600080fd5b5061001961001e565b6100eb565b600154600160b01b900460ff161561008c5760405162461bcd60e51b815260206004820152602760248201527f496e697469616c697a61626c653a20636f6e747261637420697320696e697469604482015266616c697a696e6760c81b606482015260840160405180910390fd5b60015460ff600160a81b909104811610156100e9576001805460ff60a81b191660ff60a81b17905560405160ff81527f7f26b83ff96e1f2b6a682f133852f6798a09c465da95921460cefb38474024989060200160405180910390a15b565b611b66806100fa6000396000f3fe608060405234801561001057600080fd5b50600436106101f05760003560e01c806394bf804d1161010f578063ba087652116100a2578063d905777e11610071578063d905777e14610434578063dd62ed3e14610447578063ef8b30f71461040e578063f5ae497a1461045a57600080fd5b8063ba087652146103fb578063c63d75b614610300578063c6e6f5921461040e578063ce96cb771461042157600080fd5b8063aa0b8d87116100de578063aa0b8d87146103a7578063ad5c4648146103ba578063b3d7f6b9146103d5578063b460af94146103e857600080fd5b806394bf804d1461036657806395d89b4114610379578063a457c2d714610381578063a9059cbb1461039457600080fd5b8063313ce567116101875780634cdad506116101565780634cdad506146102255780636e553f651461031557806370a08231146103285780638f15b4141461035157600080fd5b8063313ce567146102b457806338d52e0f146102d357806339509351146102ed578063402d267d1461030057600080fd5b80630a28a477116101c35780630a28a4771461025b5780631755ff211461026e57806318160ddd1461029957806323b872dd146102a157600080fd5b806301e1d114146101f557806306fdde031461021057806307a2d13a14610225578063095ea7b314610238575b600080fd5b6101fd61046d565b6040519081526020015b60405180910390f35b6102186104df565b604051610207919061166d565b6101fd6102333660046116bb565b610571565b61024b6102463660046116f0565b610584565b6040519015158152602001610207565b6101fd6102693660046116bb565b61059c565b600054610281906001600160a01b031681565b6040516001600160a01b039091168152602001610207565b6036546101fd565b61024b6102af36600461171a565b6105a9565b600154600160a01b900460ff1660405160ff9091168152602001610207565b73c02aaa39b223fe8d0a0e5c4f27ead9083c756cc2610281565b61024b6102fb3660046116f0565b6105cf565b6101fd61030e366004611756565b5060001990565b6101fd610323366004611771565b6105f1565b6101fd610336366004611756565b6001600160a01b031660009081526034602052604090205490565b61036461035f3660046117e6565b610663565b005b6101fd610374366004611771565b61090c565b610218610974565b61024b61038f3660046116f0565b610983565b61024b6103a23660046116f0565b610a09565b6101fd6b033b2e3c9fd0803ce800000081565b61028173c02aaa39b223fe8d0a0e5c4f27ead9083c756cc281565b6101fd6103e33660046116bb565b610a17565b6101fd6103f6366004611876565b610a24565b6101fd610409366004611876565b610a98565b6101fd61041c3660046116bb565b610b02565b6101fd61042f366004611756565b610b0f565b6101fd610442366004611756565b610b33565b6101fd6104553660046118b2565b610b51565b600154610281906001600160a01b031681565b6001546040516370a0823160e01b81523060048201526000916001600160a01b0316906370a0823190602401602060405180830381865afa1580156104b6573d6000803e3d6000fd5b505050506040513d601f19601f820116820180604052508101906104da91906118dc565b905090565b6060603780546104ee906118f5565b80601f016020809104026020016040519081016040528092919081815260200182805461051a906118f5565b80156105675780601f1061053c57610100808354040283529160200191610567565b820191906000526020600020905b81548152906001019060200180831161054a57829003601f168201915b5050505050905090565b600061057e826000610b7c565b92915050565b600033610592818585610bb3565b5060019392505050565b600061057e826001610cd7565b6000336105b7858285610d09565b6105c2858585610d83565b60019150505b9392505050565b6000336105928185856105e28383610b51565b6105ec919061192f565b610bb3565b60006105fb610f2e565b8260000361061c57604051631168860160e01b815260040160405180910390fd5b6001600160a01b0382166106435760405163e6c4247b60e01b815260040160405180910390fd5b61064c83610b02565b9050610659838284610f87565b61057e6001606655565b600154600160b01b900460ff1615808015610689575060018054600160a81b900460ff16105b806106a95750303b1580156106a9575060018054600160a81b900460ff16145b6107115760405162461bcd60e51b815260206004820152602e60248201527f496e697469616c697a61626c653a20636f6e747261637420697320616c72656160448201526d191e481a5b9a5d1a585b1a5e995960921b60648201526084015b60405180910390fd5b6001805460ff60a81b1916600160a81b179055801561073e576001805460ff60b01b1916600160b01b1790555b6001600160a01b0383166107655760405163e6c4247b60e01b815260040160405180910390fd5b6001600160a01b03821661078c5760405163e6c4247b60e01b815260040160405180910390fd5b6107ff87878080601f01602080910402602001604051908101604052809392919081815260200183838082843760009201919091525050604080516020601f8b01819004810282018101909252898152925089915088908190840183828082843760009201919091525061115f92505050565b826000806101000a8154816001600160a01b0302191690836001600160a01b031602179055506000826001600160a01b031663313ce5676040518163ffffffff1660e01b8152600401602060405180830381865afa925050508015610881575060408051601f3d908101601f1916820190925261087e91810190611950565b60015b61088d57506012610890565b90505b6001805460ff909216600160a01b026001600160a81b03199092166001600160a01b038516179190911790558015610903576001805460ff60b01b191681556040519081527f7f26b83ff96e1f2b6a682f133852f6798a09c465da95921460cefb38474024989060200160405180910390a15b50505050505050565b6000610916610f2e565b8260000361093757604051631168860160e01b815260040160405180910390fd5b6001600160a01b03821661095e5760405163e6c4247b60e01b815260040160405180910390fd5b61096783610a17565b9050610659818484610f87565b6060603880546104ee906118f5565b600033816109918286610b51565b9050838110156109f15760405162461bcd60e51b815260206004820152602560248201527f45524332303a2064656372656173656420616c6c6f77616e63652062656c6f77604482015264207a65726f60d81b6064820152608401610708565b6109fe8286868403610bb3565b506001949350505050565b600033610592818585610d83565b600061057e826001610b7c565b6000610a2e610f2e565b6001600160a01b038316610a555760405163e6c4247b60e01b815260040160405180910390fd5b83600003610a7657604051631168860160e01b815260040160405180910390fd5b610a7f8461059c565b9050610a8e3384848785611196565b6105c86001606655565b6000610aa2610f2e565b6001600160a01b038316610ac95760405163e6c4247b60e01b815260040160405180910390fd5b83600003610aea57604051631168860160e01b815260040160405180910390fd5b610af384610571565b9050610a8e3384848488611196565b600061057e826000610cd7565b6001600160a01b03811660009081526034602052604081205461057e906000610b7c565b6001600160a01b03811660009081526034602052604081205461057e565b6001600160a01b03918216600090815260356020908152604080832093909416825291909152205490565b600080610b8860365490565b90508015610ba957610ba4610b9b61046d565b85908386611325565b610bab565b835b949350505050565b6001600160a01b038316610c155760405162461bcd60e51b8152602060048201526024808201527f45524332303a20617070726f76652066726f6d20746865207a65726f206164646044820152637265737360e01b6064820152608401610708565b6001600160a01b038216610c765760405162461bcd60e51b815260206004820152602260248201527f45524332303a20617070726f766520746f20746865207a65726f206164647265604482015261737360f01b6064820152608401610708565b6001600160a01b0383811660008181526035602090815260408083209487168084529482529182902085905590518481527f8c5be1e5ebec7d5bd14f71427d1e84f3dd0314c0f7b2291e5b200ac8c7c3b925910160405180910390a3505050565b600080610ce360365490565b9050831580610cf0575080155b610ba957610ba481610d0061046d565b86919086611325565b6000610d158484610b51565b90506000198114610d7d5781811015610d705760405162461bcd60e51b815260206004820152601d60248201527f45524332303a20696e73756666696369656e7420616c6c6f77616e63650000006044820152606401610708565b610d7d8484848403610bb3565b50505050565b6001600160a01b038316610de75760405162461bcd60e51b815260206004820152602560248201527f45524332303a207472616e736665722066726f6d20746865207a65726f206164604482015264647265737360d81b6064820152608401610708565b6001600160a01b038216610e495760405162461bcd60e51b815260206004820152602360248201527f45524332303a207472616e7366657220746f20746865207a65726f206164647260448201526265737360e81b6064820152608401610708565b6001600160a01b03831660009081526034602052604090205481811015610ec15760405162461bcd60e51b815260206004820152602660248201527f45524332303a207472616e7366657220616d6f756e7420657863656564732062604482015265616c616e636560d01b6064820152608401610708565b6001600160a01b0380851660008181526034602052604080822086860390559286168082529083902080548601905591517fddf252ad1be2c89b69c2b068fc378daa952ba7f163c4a11628f55a4df523b3ef90610f219086815260200190565b60405180910390a3610d7d565b600260665403610f805760405162461bcd60e51b815260206004820152601f60248201527f5265656e7472616e637947756172643a207265656e7472616e742063616c6c006044820152606401610708565b6002606655565b6040516323b872dd60e01b81523360048201523060248201526044810184905273c02aaa39b223fe8d0a0e5c4f27ead9083c756cc29081906323b872dd906064016020604051808303816000875af1158015610fe7573d6000803e3d6000fd5b505050506040513d601f19601f8201168201806040525081019061100b9190611973565b5060005460405163095ea7b360e01b81526001600160a01b039182166004820152602481018690529082169063095ea7b3906044016020604051808303816000875af115801561105f573d6000803e3d6000fd5b505050506040513d601f19601f820116820180604052508101906110839190611973565b506000805460405163e8eda9df60e01b815273c02aaa39b223fe8d0a0e5c4f27ead9083c756cc260048201526024810187905230604482015260648101929092526001600160a01b03169063e8eda9df90608401600060405180830381600087803b1580156110f157600080fd5b505af1158015611105573d6000803e3d6000fd5b505050506111138284611387565b60408051858152602081018590526001600160a01b0384169133917fdcbc1c05240f31ff3ad067ef1ee35ce4997762752e3a095284754544f4c709d7910160405180910390a350505050565b600154600160b01b900460ff166111885760405162461bcd60e51b815260040161070890611995565b6111928282611448565b5050565b826001600160a01b0316856001600160a01b0316146111ba576111ba838683610d09565b6111c4838261148a565b60015460005460405163095ea7b360e01b81526001600160a01b03918216600482015260248101859052911690819063095ea7b3906044016020604051808303816000875af115801561121b573d6000803e3d6000fd5b505050506040513d601f19601f8201168201806040525081019061123f9190611973565b50600054604051631a4ca37b60e21b815273c02aaa39b223fe8d0a0e5c4f27ead9083c756cc26004820152602481018590526001600160a01b038781166044830152909116906369328dec906064016020604051808303816000875af11580156112ad573d6000803e3d6000fd5b505050506040513d601f19601f820116820180604052508101906112d191906118dc565b5060408051848152602081018490526001600160a01b03808716929088169133917ffbde797d201c681b91056529119e0b02407c7bb96a4a2c75c01fc9667232c8db910160405180910390a4505050505050565b6000806113338686866115be565b90506001836002811115611349576113496119e0565b148015611366575060008480611361576113616119f6565b868809115b156113795761137660018261192f565b90505b95945050505050565b505050565b6001600160a01b0382166113dd5760405162461bcd60e51b815260206004820152601f60248201527f45524332303a206d696e7420746f20746865207a65726f2061646472657373006044820152606401610708565b80603660008282546113ef919061192f565b90915550506001600160a01b0382166000818152603460209081526040808320805486019055518481527fddf252ad1be2c89b69c2b068fc378daa952ba7f163c4a11628f55a4df523b3ef910160405180910390a35050565b600154600160b01b900460ff166114715760405162461bcd60e51b815260040161070890611995565b603761147d8382611a70565b5060386113828282611a70565b6001600160a01b0382166114ea5760405162461bcd60e51b815260206004820152602160248201527f45524332303a206275726e2066726f6d20746865207a65726f206164647265736044820152607360f81b6064820152608401610708565b6001600160a01b0382166000908152603460205260409020548181101561155e5760405162461bcd60e51b815260206004820152602260248201527f45524332303a206275726e20616d6f756e7420657863656564732062616c616e604482015261636560f01b6064820152608401610708565b6001600160a01b03831660008181526034602090815260408083208686039055603680548790039055518581529192917fddf252ad1be2c89b69c2b068fc378daa952ba7f163c4a11628f55a4df523b3ef910160405180910390a3505050565b60008080600019858709858702925082811083820303915050806000036115f8578382816115ee576115ee6119f6565b04925050506105c8565b80841161160457600080fd5b60008486880960026001871981018816978890046003810283188082028403028082028403028082028403028082028403028082028403029081029092039091026000889003889004909101858311909403939093029303949094049190911702949350505050565b600060208083528351808285015260005b8181101561169a5785810183015185820160400152820161167e565b506000604082860101526040601f19601f8301168501019250505092915050565b6000602082840312156116cd57600080fd5b5035919050565b80356001600160a01b03811681146116eb57600080fd5b919050565b6000806040838503121561170357600080fd5b61170c836116d4565b946020939093013593505050565b60008060006060848603121561172f57600080fd5b611738846116d4565b9250611746602085016116d4565b9150604084013590509250925092565b60006020828403121561176857600080fd5b6105c8826116d4565b6000806040838503121561178457600080fd5b82359150611794602084016116d4565b90509250929050565b60008083601f8401126117af57600080fd5b50813567ffffffffffffffff8111156117c757600080fd5b6020830191508360208285010111156117df57600080fd5b9250929050565b600080600080600080608087890312156117ff57600080fd5b863567ffffffffffffffff8082111561181757600080fd5b6118238a838b0161179d565b9098509650602089013591508082111561183c57600080fd5b5061184989828a0161179d565b909550935061185c9050604088016116d4565b915061186a606088016116d4565b90509295509295509295565b60008060006060848603121561188b57600080fd5b8335925061189b602085016116d4565b91506118a9604085016116d4565b90509250925092565b600080604083850312156118c557600080fd5b6118ce836116d4565b9150611794602084016116d4565b6000602082840312156118ee57600080fd5b5051919050565b600181811c9082168061190957607f821691505b60208210810361192957634e487b7160e01b600052602260045260246000fd5b50919050565b8082018082111561057e57634e487b7160e01b600052601160045260246000fd5b60006020828403121561196257600080fd5b815160ff811681146105c857600080fd5b60006020828403121561198557600080fd5b815180151581146105c857600080fd5b6020808252602b908201527f496e697469616c697a61626c653a20636f6e7472616374206973206e6f74206960408201526a6e697469616c697a696e6760a81b606082015260800190565b634e487b7160e01b600052602160045260246000fd5b634e487b7160e01b600052601260045260246000fd5b634e487b7160e01b600052604160045260246000fd5b601f82111561138257600081815260208120601f850160051c81016020861015611a495750805b601f850160051c820191505b81811015611a6857828155600101611a55565b505050505050565b815167ffffffffffffffff811115611a8a57611a8a611a0c565b611a9e81611a9884546118f5565b84611a22565b602080601f831160018114611ad35760008415611abb5750858301515b600019600386901b1c1916600185901b178555611a68565b600085815260208120601f198616915b82811015611b0257888601518255948401946001909101908401611ae3565b5085821015611b205787850151600019600388901b60f8161c191681555b5050505050600190811b0190555056fea26469706673582212200c7beba6601dfeec8a8dde5a77ecbc9257ed4c1fbd519f84c51eccd0831aa61d64736f6c63430008110033",
  "devdoc": {
    "author": "Spice Finance Inc",
    "kind": "dev",
    "methods": {
      "allowance(address,address)": {
        "details": "See {IERC20-allowance}."
      },
      "approve(address,uint256)": {
        "details": "See {IERC20-approve}. NOTE: If `amount` is the maximum `uint256`, the allowance is not updated on `transferFrom`. This is semantically equivalent to an infinite approval. Requirements: - `spender` cannot be the zero address."
      },
      "balanceOf(address)": {
        "details": "See {IERC20-balanceOf}."
      },
      "constructor": {
        "custom:oz-upgrades-unsafe-allow": "constructor"
      },
      "decreaseAllowance(address,uint256)": {
        "details": "Atomically decreases the allowance granted to `spender` by the caller. This is an alternative to {approve} that can be used as a mitigation for problems described in {IERC20-approve}. Emits an {Approval} event indicating the updated allowance. Requirements: - `spender` cannot be the zero address. - `spender` must have allowance for the caller of at least `subtractedValue`."
      },
      "deposit(uint256,address)": {
        "params": {
          "assets": "The amount of weth being deposited",
          "receiver": "The account that will receive the receipt tokens"
        },
        "returns": {
          "shares": "The amount of receipt tokens minted"
        }
      },
      "increaseAllowance(address,uint256)": {
        "details": "Atomically increases the allowance granted to `spender` by the caller. This is an alternative to {approve} that can be used as a mitigation for problems described in {IERC20-approve}. Emits an {Approval} event indicating the updated allowance. Requirements: - `spender` cannot be the zero address."
      },
      "initialize(string,string,address,address)": {
        "params": {
          "lpTokenAddress_": "BToken address",
          "name_": "Receipt token name",
          "poolAddress_": "LendPool address",
          "symbol_": "Receipt token symbol"
        }
      },
      "mint(uint256,address)": {
        "params": {
          "receiver": "The account that will receive the receipt tokens",
          "shares": "The amount of receipt tokens to mint"
        },
        "returns": {
          "assets": "The amount of weth deposited"
        }
      },
      "name()": {
        "details": "Returns the name of the token."
      },
      "redeem(uint256,address,address)": {
        "params": {
          "owner": "The account that will pay receipt tokens",
          "receiver": "The account that will receive weth",
          "shares": "The amount of receipt tokens being burnt"
        },
        "returns": {
          "assets": "The amount of assets redeemed"
        }
      },
      "symbol()": {
        "details": "Returns the symbol of the token, usually a shorter version of the name."
      },
      "totalSupply()": {
        "details": "See {IERC20-totalSupply}."
      },
      "transfer(address,uint256)": {
        "details": "See {IERC20-transfer}. Requirements: - `to` cannot be the zero address. - the caller must have a balance of at least `amount`."
      },
      "transferFrom(address,address,uint256)": {
        "details": "See {IERC20-transferFrom}. Emits an {Approval} event indicating the updated allowance. This is not required by the EIP. See the note at the beginning of {ERC20}. NOTE: Does not update the allowance if the current allowance is the maximum `uint256`. Requirements: - `from` and `to` cannot be the zero address. - `from` must have a balance of at least `amount`. - the caller must have allowance for ``from``'s tokens of at least `amount`."
      },
      "withdraw(uint256,address,address)": {
        "params": {
          "assets": "The amount of weth being withdrawn",
          "owner": "The account that will pay receipt tokens",
          "receiver": "The account that will receive weth"
        },
        "returns": {
          "shares": "The amount of shares burnt"
        }
      }
    },
    "title": "ERC4626 Wrapper for BendLendPool",
    "version": 1
  },
  "userdoc": {
    "errors": {
      "InvalidAddress()": [
        {
          "notice": "Invalid address (e.g. zero address)"
        }
      ],
      "ParameterOutOfBounds()": [
        {
          "notice": "Parameter out of bounds"
        }
      ]
    },
    "kind": "user",
    "methods": {
      "WETH()": {
        "notice": "WETH address"
      },
      "asset()": {
        "notice": "Get underlying token address"
      },
      "convertToAssets(uint256)": {
        "notice": "See {IERC4626-convertToAssets}"
      },
      "convertToShares(uint256)": {
        "notice": "See {IERC4626-convertToShares}"
      },
      "decimals()": {
        "notice": "See {IERC20Metadata-decimals}."
      },
      "deposit(uint256,address)": {
        "notice": "Deposits weth into Bend pool and receive receipt tokens"
      },
      "initialize(string,string,address,address)": {
        "notice": "Bend4626 constructor (for proxy)"
      },
      "lpTokenAddress()": {
        "notice": "BToken address"
      },
      "maxDeposit(address)": {
        "notice": "See {IERC4626-maxDeposit}"
      },
      "maxMint(address)": {
        "notice": "See {IERC4626-maxMint}"
      },
      "maxRedeem(address)": {
        "notice": "See {IERC4626-maxRedeem}"
      },
      "maxWithdraw(address)": {
        "notice": "See {IERC4626-maxWithdraw}"
      },
      "mint(uint256,address)": {
        "notice": "Deposits weth into Bend pool and receive receipt tokens"
      },
      "poolAddress()": {
        "notice": "LendPool address"
      },
      "previewDeposit(uint256)": {
        "notice": "See {IERC4626-previewDeposit}"
      },
      "previewMint(uint256)": {
        "notice": "See {IERC4626-previewMint}"
      },
      "previewRedeem(uint256)": {
        "notice": "See {IERC4626-previewRedeem}"
      },
      "previewWithdraw(uint256)": {
        "notice": "See {IERC4626-previewWithdraw}"
      },
      "redeem(uint256,address,address)": {
        "notice": "Withdraw weth from the pool"
      },
      "totalAssets()": {
        "notice": "See {IERC4626-totalAssets}"
      },
      "withdraw(uint256,address,address)": {
        "notice": "Withdraw weth from the pool"
      }
    },
    "version": 1
  },
  "storageLayout": {
    "storage": [
      {
        "astId": 11634,
        "contract": "contracts/vaults/Bend4626.sol:Bend4626",
        "label": "poolAddress",
        "offset": 0,
        "slot": "0",
        "type": "t_address"
      },
      {
        "astId": 11637,
        "contract": "contracts/vaults/Bend4626.sol:Bend4626",
        "label": "lpTokenAddress",
        "offset": 0,
        "slot": "1",
        "type": "t_address"
      },
      {
        "astId": 11640,
        "contract": "contracts/vaults/Bend4626.sol:Bend4626",
        "label": "_decimals",
        "offset": 20,
        "slot": "1",
        "type": "t_uint8"
      },
      {
        "astId": 1142,
        "contract": "contracts/vaults/Bend4626.sol:Bend4626",
        "label": "_initialized",
        "offset": 21,
        "slot": "1",
        "type": "t_uint8"
      },
      {
        "astId": 1145,
        "contract": "contracts/vaults/Bend4626.sol:Bend4626",
        "label": "_initializing",
        "offset": 22,
        "slot": "1",
        "type": "t_bool"
      },
      {
        "astId": 4793,
        "contract": "contracts/vaults/Bend4626.sol:Bend4626",
        "label": "__gap",
        "offset": 0,
        "slot": "2",
        "type": "t_array(t_uint256)50_storage"
      },
      {
        "astId": 1659,
        "contract": "contracts/vaults/Bend4626.sol:Bend4626",
        "label": "_balances",
        "offset": 0,
        "slot": "52",
        "type": "t_mapping(t_address,t_uint256)"
      },
      {
        "astId": 1665,
        "contract": "contracts/vaults/Bend4626.sol:Bend4626",
        "label": "_allowances",
        "offset": 0,
        "slot": "53",
        "type": "t_mapping(t_address,t_mapping(t_address,t_uint256))"
      },
      {
        "astId": 1667,
        "contract": "contracts/vaults/Bend4626.sol:Bend4626",
        "label": "_totalSupply",
        "offset": 0,
        "slot": "54",
        "type": "t_uint256"
      },
      {
        "astId": 1669,
        "contract": "contracts/vaults/Bend4626.sol:Bend4626",
        "label": "_name",
        "offset": 0,
        "slot": "55",
        "type": "t_string_storage"
      },
      {
        "astId": 1671,
        "contract": "contracts/vaults/Bend4626.sol:Bend4626",
        "label": "_symbol",
        "offset": 0,
        "slot": "56",
        "type": "t_string_storage"
      },
      {
        "astId": 2251,
        "contract": "contracts/vaults/Bend4626.sol:Bend4626",
        "label": "__gap",
        "offset": 0,
        "slot": "57",
        "type": "t_array(t_uint256)45_storage"
      },
      {
        "astId": 1581,
        "contract": "contracts/vaults/Bend4626.sol:Bend4626",
        "label": "_status",
        "offset": 0,
        "slot": "102",
        "type": "t_uint256"
      },
      {
        "astId": 1639,
        "contract": "contracts/vaults/Bend4626.sol:Bend4626",
        "label": "__gap",
        "offset": 0,
        "slot": "103",
        "type": "t_array(t_uint256)49_storage"
      }
    ],
    "types": {
      "t_address": {
        "encoding": "inplace",
        "label": "address",
        "numberOfBytes": "20"
      },
      "t_array(t_uint256)45_storage": {
        "base": "t_uint256",
        "encoding": "inplace",
        "label": "uint256[45]",
        "numberOfBytes": "1440"
      },
      "t_array(t_uint256)49_storage": {
        "base": "t_uint256",
        "encoding": "inplace",
        "label": "uint256[49]",
        "numberOfBytes": "1568"
      },
      "t_array(t_uint256)50_storage": {
        "base": "t_uint256",
        "encoding": "inplace",
        "label": "uint256[50]",
        "numberOfBytes": "1600"
      },
      "t_bool": {
        "encoding": "inplace",
        "label": "bool",
        "numberOfBytes": "1"
      },
      "t_mapping(t_address,t_mapping(t_address,t_uint256))": {
        "encoding": "mapping",
        "key": "t_address",
        "label": "mapping(address => mapping(address => uint256))",
        "numberOfBytes": "32",
        "value": "t_mapping(t_address,t_uint256)"
      },
      "t_mapping(t_address,t_uint256)": {
        "encoding": "mapping",
        "key": "t_address",
        "label": "mapping(address => uint256)",
        "numberOfBytes": "32",
        "value": "t_uint256"
      },
      "t_string_storage": {
        "encoding": "bytes",
        "label": "string",
        "numberOfBytes": "32"
      },
      "t_uint256": {
        "encoding": "inplace",
        "label": "uint256",
        "numberOfBytes": "32"
      },
      "t_uint8": {
        "encoding": "inplace",
        "label": "uint8",
        "numberOfBytes": "1"
      }
    }
  }
}