{
  "address": "0x3605c9595555fC55FFd38E6e6dAC4796f8425136",
  "abi": [
    {
      "inputs": [],
      "stateMutability": "nonpayable",
      "type": "constructor"
    },
    {
      "inputs": [],
      "name": "InvalidAddress",
      "type": "error"
    },
    {
      "inputs": [],
      "name": "ParameterOutOfBounds",
      "type": "error"
    },
    {
      "anonymous": false,
      "inputs": [
        {
          "indexed": true,
          "internalType": "address",
          "name": "owner",
          "type": "address"
        },
        {
          "indexed": true,
          "internalType": "address",
          "name": "spender",
          "type": "address"
        },
        {
          "indexed": false,
          "internalType": "uint256",
          "name": "value",
          "type": "uint256"
        }
      ],
      "name": "Approval",
      "type": "event"
    },
    {
      "anonymous": false,
      "inputs": [
        {
          "indexed": true,
          "internalType": "address",
          "name": "sender",
          "type": "address"
        },
        {
          "indexed": true,
          "internalType": "address",
          "name": "owner",
          "type": "address"
        },
        {
          "indexed": false,
          "internalType": "uint256",
          "name": "assets",
          "type": "uint256"
        },
        {
          "indexed": false,
          "internalType": "uint256",
          "name": "shares",
          "type": "uint256"
        }
      ],
      "name": "Deposit",
      "type": "event"
    },
    {
      "anonymous": false,
      "inputs": [
        {
          "indexed": false,
          "internalType": "uint8",
          "name": "version",
          "type": "uint8"
        }
      ],
      "name": "Initialized",
      "type": "event"
    },
    {
      "anonymous": false,
      "inputs": [
        {
          "indexed": true,
          "internalType": "address",
          "name": "from",
          "type": "address"
        },
        {
          "indexed": true,
          "internalType": "address",
          "name": "to",
          "type": "address"
        },
        {
          "indexed": false,
          "internalType": "uint256",
          "name": "value",
          "type": "uint256"
        }
      ],
      "name": "Transfer",
      "type": "event"
    },
    {
      "anonymous": false,
      "inputs": [
        {
          "indexed": true,
          "internalType": "address",
          "name": "sender",
          "type": "address"
        },
        {
          "indexed": true,
          "internalType": "address",
          "name": "receiver",
          "type": "address"
        },
        {
          "indexed": true,
          "internalType": "address",
          "name": "owner",
          "type": "address"
        },
        {
          "indexed": false,
          "internalType": "uint256",
          "name": "assets",
          "type": "uint256"
        },
        {
          "indexed": false,
          "internalType": "uint256",
          "name": "shares",
          "type": "uint256"
        }
      ],
      "name": "Withdraw",
      "type": "event"
    },
    {
      "inputs": [],
      "name": "ONE_WAD",
      "outputs": [
        {
          "internalType": "uint256",
          "name": "",
          "type": "uint256"
        }
      ],
      "stateMutability": "view",
      "type": "function"
    },
    {
      "inputs": [],
      "name": "WETH",
      "outputs": [
        {
          "internalType": "address",
          "name": "",
          "type": "address"
        }
      ],
      "stateMutability": "view",
      "type": "function"
    },
    {
      "inputs": [
        {
          "internalType": "address",
          "name": "owner",
          "type": "address"
        },
        {
          "internalType": "address",
          "name": "spender",
          "type": "address"
        }
      ],
      "name": "allowance",
      "outputs": [
        {
          "internalType": "uint256",
          "name": "",
          "type": "uint256"
        }
      ],
      "stateMutability": "view",
      "type": "function"
    },
    {
      "inputs": [
        {
          "internalType": "address",
          "name": "spender",
          "type": "address"
        },
        {
          "internalType": "uint256",
          "name": "amount",
          "type": "uint256"
        }
      ],
      "name": "approve",
      "outputs": [
        {
          "internalType": "bool",
          "name": "",
          "type": "bool"
        }
      ],
      "stateMutability": "nonpayable",
      "type": "function"
    },
    {
      "inputs": [],
      "name": "asset",
      "outputs": [
        {
          "internalType": "address",
          "name": "",
          "type": "address"
        }
      ],
      "stateMutability": "pure",
      "type": "function"
    },
    {
      "inputs": [
        {
          "internalType": "address",
          "name": "account",
          "type": "address"
        }
      ],
      "name": "balanceOf",
      "outputs": [
        {
          "internalType": "uint256",
          "name": "",
          "type": "uint256"
        }
      ],
      "stateMutability": "view",
      "type": "function"
    },
    {
      "inputs": [
        {
          "internalType": "uint256",
          "name": "shares",
          "type": "uint256"
        }
      ],
      "name": "convertToAssets",
      "outputs": [
        {
          "internalType": "uint256",
          "name": "",
          "type": "uint256"
        }
      ],
      "stateMutability": "view",
      "type": "function"
    },
    {
      "inputs": [
        {
          "internalType": "uint256",
          "name": "assets",
          "type": "uint256"
        }
      ],
      "name": "convertToShares",
      "outputs": [
        {
          "internalType": "uint256",
          "name": "",
          "type": "uint256"
        }
      ],
      "stateMutability": "view",
      "type": "function"
    },
    {
      "inputs": [],
      "name": "decimals",
      "outputs": [
        {
          "internalType": "uint8",
          "name": "",
          "type": "uint8"
        }
      ],
      "stateMutability": "view",
      "type": "function"
    },
    {
      "inputs": [
        {
          "internalType": "address",
          "name": "spender",
          "type": "address"
        },
        {
          "internalType": "uint256",
          "name": "subtractedValue",
          "type": "uint256"
        }
      ],
      "name": "decreaseAllowance",
      "outputs": [
        {
          "internalType": "bool",
          "name": "",
          "type": "bool"
        }
      ],
      "stateMutability": "nonpayable",
      "type": "function"
    },
    {
      "inputs": [
        {
          "internalType": "uint256",
          "name": "assets",
          "type": "uint256"
        },
        {
          "internalType": "address",
          "name": "receiver",
          "type": "address"
        }
      ],
      "name": "deposit",
      "outputs": [
        {
          "internalType": "uint256",
          "name": "shares",
          "type": "uint256"
        }
      ],
      "stateMutability": "nonpayable",
      "type": "function"
    },
    {
      "inputs": [
        {
          "internalType": "address",
          "name": "spender",
          "type": "address"
        },
        {
          "internalType": "uint256",
          "name": "addedValue",
          "type": "uint256"
        }
      ],
      "name": "increaseAllowance",
      "outputs": [
        {
          "internalType": "bool",
          "name": "",
          "type": "bool"
        }
      ],
      "stateMutability": "nonpayable",
      "type": "function"
    },
    {
      "inputs": [
        {
          "internalType": "string",
          "name": "name_",
          "type": "string"
        },
        {
          "internalType": "string",
          "name": "symbol_",
          "type": "string"
        },
        {
          "internalType": "address",
          "name": "lpTokenAddress_",
          "type": "address"
        },
        {
          "internalType": "address payable",
          "name": "wethUnwrapper_",
          "type": "address"
        }
      ],
      "name": "initialize",
      "outputs": [],
      "stateMutability": "nonpayable",
      "type": "function"
    },
    {
      "inputs": [],
      "name": "lpTokenAddress",
      "outputs": [
        {
          "internalType": "address",
          "name": "",
          "type": "address"
        }
      ],
      "stateMutability": "view",
      "type": "function"
    },
    {
      "inputs": [
        {
          "internalType": "address",
          "name": "",
          "type": "address"
        }
      ],
      "name": "maxDeposit",
      "outputs": [
        {
          "internalType": "uint256",
          "name": "",
          "type": "uint256"
        }
      ],
      "stateMutability": "pure",
      "type": "function"
    },
    {
      "inputs": [
        {
          "internalType": "address",
          "name": "",
          "type": "address"
        }
      ],
      "name": "maxMint",
      "outputs": [
        {
          "internalType": "uint256",
          "name": "",
          "type": "uint256"
        }
      ],
      "stateMutability": "pure",
      "type": "function"
    },
    {
      "inputs": [
        {
          "internalType": "address",
          "name": "owner",
          "type": "address"
        }
      ],
      "name": "maxRedeem",
      "outputs": [
        {
          "internalType": "uint256",
          "name": "",
          "type": "uint256"
        }
      ],
      "stateMutability": "view",
      "type": "function"
    },
    {
      "inputs": [
        {
          "internalType": "address",
          "name": "owner",
          "type": "address"
        }
      ],
      "name": "maxWithdraw",
      "outputs": [
        {
          "internalType": "uint256",
          "name": "",
          "type": "uint256"
        }
      ],
      "stateMutability": "view",
      "type": "function"
    },
    {
      "inputs": [
        {
          "internalType": "uint256",
          "name": "shares",
          "type": "uint256"
        },
        {
          "internalType": "address",
          "name": "receiver",
          "type": "address"
        }
      ],
      "name": "mint",
      "outputs": [
        {
          "internalType": "uint256",
          "name": "assets",
          "type": "uint256"
        }
      ],
      "stateMutability": "nonpayable",
      "type": "function"
    },
    {
      "inputs": [],
      "name": "name",
      "outputs": [
        {
          "internalType": "string",
          "name": "",
          "type": "string"
        }
      ],
      "stateMutability": "view",
      "type": "function"
    },
    {
      "inputs": [
        {
          "internalType": "uint256",
          "name": "assets",
          "type": "uint256"
        }
      ],
      "name": "previewDeposit",
      "outputs": [
        {
          "internalType": "uint256",
          "name": "",
          "type": "uint256"
        }
      ],
      "stateMutability": "view",
      "type": "function"
    },
    {
      "inputs": [
        {
          "internalType": "uint256",
          "name": "shares",
          "type": "uint256"
        }
      ],
      "name": "previewMint",
      "outputs": [
        {
          "internalType": "uint256",
          "name": "",
          "type": "uint256"
        }
      ],
      "stateMutability": "view",
      "type": "function"
    },
    {
      "inputs": [
        {
          "internalType": "uint256",
          "name": "shares",
          "type": "uint256"
        }
      ],
      "name": "previewRedeem",
      "outputs": [
        {
          "internalType": "uint256",
          "name": "",
          "type": "uint256"
        }
      ],
      "stateMutability": "view",
      "type": "function"
    },
    {
      "inputs": [
        {
          "internalType": "uint256",
          "name": "assets",
          "type": "uint256"
        }
      ],
      "name": "previewWithdraw",
      "outputs": [
        {
          "internalType": "uint256",
          "name": "",
          "type": "uint256"
        }
      ],
      "stateMutability": "view",
      "type": "function"
    },
    {
      "inputs": [
        {
          "internalType": "uint256",
          "name": "shares",
          "type": "uint256"
        },
        {
          "internalType": "address",
          "name": "receiver",
          "type": "address"
        },
        {
          "internalType": "address",
          "name": "owner",
          "type": "address"
        }
      ],
      "name": "redeem",
      "outputs": [
        {
          "internalType": "uint256",
          "name": "assets",
          "type": "uint256"
        }
      ],
      "stateMutability": "nonpayable",
      "type": "function"
    },
    {
      "inputs": [],
      "name": "symbol",
      "outputs": [
        {
          "internalType": "string",
          "name": "",
          "type": "string"
        }
      ],
      "stateMutability": "view",
      "type": "function"
    },
    {
      "inputs": [],
      "name": "totalAssets",
      "outputs": [
        {
          "internalType": "uint256",
          "name": "",
          "type": "uint256"
        }
      ],
      "stateMutability": "view",
      "type": "function"
    },
    {
      "inputs": [],
      "name": "totalSupply",
      "outputs": [
        {
          "internalType": "uint256",
          "name": "",
          "type": "uint256"
        }
      ],
      "stateMutability": "view",
      "type": "function"
    },
    {
      "inputs": [
        {
          "internalType": "address",
          "name": "to",
          "type": "address"
        },
        {
          "internalType": "uint256",
          "name": "amount",
          "type": "uint256"
        }
      ],
      "name": "transfer",
      "outputs": [
        {
          "internalType": "bool",
          "name": "",
          "type": "bool"
        }
      ],
      "stateMutability": "nonpayable",
      "type": "function"
    },
    {
      "inputs": [
        {
          "internalType": "address",
          "name": "from",
          "type": "address"
        },
        {
          "internalType": "address",
          "name": "to",
          "type": "address"
        },
        {
          "internalType": "uint256",
          "name": "amount",
          "type": "uint256"
        }
      ],
      "name": "transferFrom",
      "outputs": [
        {
          "internalType": "bool",
          "name": "",
          "type": "bool"
        }
      ],
      "stateMutability": "nonpayable",
      "type": "function"
    },
    {
      "inputs": [],
      "name": "wethUnwrapper",
      "outputs": [
        {
          "internalType": "contract WETHUnwrapper",
          "name": "",
          "type": "address"
        }
      ],
      "stateMutability": "view",
      "type": "function"
    },
    {
      "inputs": [
        {
          "internalType": "uint256",
          "name": "assets",
          "type": "uint256"
        },
        {
          "internalType": "address",
          "name": "receiver",
          "type": "address"
        },
        {
          "internalType": "address",
          "name": "owner",
          "type": "address"
        }
      ],
      "name": "withdraw",
      "outputs": [
        {
          "internalType": "uint256",
          "name": "shares",
          "type": "uint256"
        }
      ],
      "stateMutability": "nonpayable",
      "type": "function"
    },
    {
      "stateMutability": "payable",
      "type": "receive"
    }
  ],
  "transactionHash": "0x241b725f97e7452fae24be412389ea0101485ecf6e3aedfec6d43c661190290a",
  "args": [],
  "numDeployments": 1,
  "solcInputHash": "39802d8746e51023162f12dbcb970f74",
  "bytecode": "0x608060405234801561001057600080fd5b5061001961001e565b6100eb565b600154600160b01b900460ff161561008c5760405162461bcd60e51b815260206004820152602760248201527f496e697469616c697a61626c653a20636f6e747261637420697320696e697469604482015266616c697a696e6760c81b606482015260840160405180910390fd5b60015460ff600160a81b909104811610156100e9576001805460ff60a81b191660ff60a81b17905560405160ff81527f7f26b83ff96e1f2b6a682f133852f6798a09c465da95921460cefb38474024989060200160405180910390a15b565b611e5d806100fa6000396000f3fe6080604052600436106101e75760003560e01c806394bf804d11610102578063ba08765211610095578063d905777e11610064578063d905777e146105e2578063dd62ed3e14610602578063ef8b30f7146105a2578063f5ae497a1461062257600080fd5b8063ba08765214610582578063c63d75b6146103d1578063c6e6f592146105a2578063ce96cb77146105c257600080fd5b8063a9059cbb116100d1578063a9059cbb146104fa578063ad5c46481461051a578063b3d7f6b914610542578063b460af941461056257600080fd5b806394bf804d1461048957806395d89b41146104a95780639984c035146104be578063a457c2d7146104da57600080fd5b806338d52e0f1161017a5780634f4247a1116101495780634f4247a1146103f35780636e553f651461041357806370a08231146104335780638f15b4141461046957600080fd5b806338d52e0f1461037657806339509351146103b1578063402d267d146103d15780634cdad506146102a557600080fd5b80630a28a477116101b65780630a28a477146102f557806318160ddd1461031557806323b872dd1461032a578063313ce5671461034a57600080fd5b806301e1d1141461025b57806306fdde031461028357806307a2d13a146102a5578063095ea7b3146102c557600080fd5b36610256576001546001600160a01b031633148061020f57506000546001600160a01b031633145b6102545760405162461bcd60e51b81526020600482015260116024820152703237903737ba1039b2b7321032ba3432b960791b60448201526064015b60405180910390fd5b005b600080fd5b34801561026757600080fd5b50610270610642565b6040519081526020015b60405180910390f35b34801561028f57600080fd5b5061029861065c565b60405161027a9190611931565b3480156102b157600080fd5b506102706102c036600461197f565b6106ee565b3480156102d157600080fd5b506102e56102e03660046119b0565b610701565b604051901515815260200161027a565b34801561030157600080fd5b5061027061031036600461197f565b610719565b34801561032157600080fd5b50603654610270565b34801561033657600080fd5b506102e56103453660046119dc565b610726565b34801561035657600080fd5b50600154600160a01b900460ff1660405160ff909116815260200161027a565b34801561038257600080fd5b5073c02aaa39b223fe8d0a0e5c4f27ead9083c756cc25b6040516001600160a01b03909116815260200161027a565b3480156103bd57600080fd5b506102e56103cc3660046119b0565b61074c565b3480156103dd57600080fd5b506102706103ec366004611a1d565b5060001990565b3480156103ff57600080fd5b50600154610399906001600160a01b031681565b34801561041f57600080fd5b5061027061042e366004611a3a565b61076e565b34801561043f57600080fd5b5061027061044e366004611a1d565b6001600160a01b031660009081526034602052604090205490565b34801561047557600080fd5b50610254610484366004611ab3565b6107d6565b34801561049557600080fd5b506102706104a4366004611a3a565b610a72565b3480156104b557600080fd5b50610298610ae4565b3480156104ca57600080fd5b50610270670de0b6b3a764000081565b3480156104e657600080fd5b506102e56104f53660046119b0565b610af3565b34801561050657600080fd5b506102e56105153660046119b0565b610b79565b34801561052657600080fd5b5061039973c02aaa39b223fe8d0a0e5c4f27ead9083c756cc281565b34801561054e57600080fd5b5061027061055d36600461197f565b610b87565b34801561056e57600080fd5b5061027061057d366004611b48565b610b94565b34801561058e57600080fd5b5061027061059d366004611b48565b610c08565b3480156105ae57600080fd5b506102706105bd36600461197f565b610c72565b3480156105ce57600080fd5b506102706105dd366004611a1d565b610c7f565b3480156105ee57600080fd5b506102706105fd366004611a1d565b610ca1565b34801561060e57600080fd5b5061027061061d366004611b8a565b610cbf565b34801561062e57600080fd5b50600054610399906001600160a01b031681565b600061065761065060365490565b6000610cea565b905090565b60606037805461066b90611bb8565b80601f016020809104026020016040519081016040528092919081815260200182805461069790611bb8565b80156106e45780601f106106b9576101008083540402835291602001916106e4565b820191906000526020600020905b8154815290600101906020018083116106c757829003601f168201915b5050505050905090565b60006106fb826000610cea565b92915050565b60003361070f818585610d13565b5060019392505050565b60006106fb826001610e37565b600033610734858285610e58565b61073f858585610ed2565b60019150505b9392505050565b60003361070f81858561075f8383610cbf565b6107699190611c08565b610d13565b600061077861107d565b8260000361079957604051631168860160e01b815260040160405180910390fd5b6001600160a01b0382166107c05760405163e6c4247b60e01b815260040160405180910390fd5b6107ca83836110d6565b90506106fb6001606655565b600154600160b01b900460ff16158080156107fc575060018054600160a81b900460ff16105b8061081c5750303b15801561081c575060018054600160a81b900460ff16145b61087f5760405162461bcd60e51b815260206004820152602e60248201527f496e697469616c697a61626c653a20636f6e747261637420697320616c72656160448201526d191e481a5b9a5d1a585b1a5e995960921b606482015260840161024b565b6001805460ff60a81b1916600160a81b17905580156108ac576001805460ff60b01b1916600160b01b1790555b6001600160a01b0383166108d35760405163e6c4247b60e01b815260040160405180910390fd5b6001600160a01b0382166108fa5760405163e6c4247b60e01b815260040160405180910390fd5b61096d87878080601f01602080910402602001604051908101604052809392919081815260200183838082843760009201919091525050604080516020601f8b01819004810282018101909252898152925089915088908190840183828082843760009201919091525061136392505050565b6000836001600160a01b031663313ce5676040518163ffffffff1660e01b8152600401602060405180830381865afa9250505080156109c9575060408051601f3d908101601f191682019092526109c691810190611c1b565b60015b6109d5575060126109d8565b90505b600080546001600160a01b038087166001600160a01b0319909216919091179091556001805460ff909316600160a01b026001600160a81b0319909316918516919091179190911790558015610a69576001805460ff60b01b191681556040519081527f7f26b83ff96e1f2b6a682f133852f6798a09c465da95921460cefb38474024989060200160405180910390a15b50505050505050565b6000610a7c61107d565b82600003610a9d57604051631168860160e01b815260040160405180910390fd5b6001600160a01b038216610ac45760405163e6c4247b60e01b815260040160405180910390fd5b610acd83610b87565b9050610ad981836110d6565b506106fb6001606655565b60606038805461066b90611bb8565b60003381610b018286610cbf565b905083811015610b615760405162461bcd60e51b815260206004820152602560248201527f45524332303a2064656372656173656420616c6c6f77616e63652062656c6f77604482015264207a65726f60d81b606482015260840161024b565b610b6e8286868403610d13565b506001949350505050565b60003361070f818585610ed2565b60006106fb826001610cea565b6000610b9e61107d565b6001600160a01b038316610bc55760405163e6c4247b60e01b815260040160405180910390fd5b83600003610be657604051631168860160e01b815260040160405180910390fd5b610bef84610719565b9050610bfd3384848461139a565b506107456001606655565b6000610c1261107d565b6001600160a01b038316610c395760405163e6c4247b60e01b815260040160405180910390fd5b83600003610c5a57604051631168860160e01b815260040160405180910390fd5b610c663384848761139a565b90506107456001606655565b60006106fb826000610e37565b6001600160a01b0381166000908152603460205260408120546106fb90610650565b6001600160a01b0381166000908152603460205260408120546106fb565b6001600160a01b03918216600090815260356020908152604080832093909416825291909152205490565b600080610cf5611571565b9050610d0b8482670de0b6b3a7640000866115e9565b949350505050565b6001600160a01b038316610d755760405162461bcd60e51b8152602060048201526024808201527f45524332303a20617070726f76652066726f6d20746865207a65726f206164646044820152637265737360e01b606482015260840161024b565b6001600160a01b038216610dd65760405162461bcd60e51b815260206004820152602260248201527f45524332303a20617070726f766520746f20746865207a65726f206164647265604482015261737360f01b606482015260840161024b565b6001600160a01b0383811660008181526035602090815260408083209487168084529482529182902085905590518481527f8c5be1e5ebec7d5bd14f71427d1e84f3dd0314c0f7b2291e5b200ac8c7c3b925910160405180910390a3505050565b600080610e42611571565b9050610d0b84670de0b6b3a764000083866115e9565b6000610e648484610cbf565b90506000198114610ecc5781811015610ebf5760405162461bcd60e51b815260206004820152601d60248201527f45524332303a20696e73756666696369656e7420616c6c6f77616e6365000000604482015260640161024b565b610ecc8484848403610d13565b50505050565b6001600160a01b038316610f365760405162461bcd60e51b815260206004820152602560248201527f45524332303a207472616e736665722066726f6d20746865207a65726f206164604482015264647265737360d81b606482015260840161024b565b6001600160a01b038216610f985760405162461bcd60e51b815260206004820152602360248201527f45524332303a207472616e7366657220746f20746865207a65726f206164647260448201526265737360e81b606482015260840161024b565b6001600160a01b038316600090815260346020526040902054818110156110105760405162461bcd60e51b815260206004820152602660248201527f45524332303a207472616e7366657220616d6f756e7420657863656564732062604482015265616c616e636560d01b606482015260840161024b565b6001600160a01b0380851660008181526034602052604080822086860390559286168082529083902080548601905591517fddf252ad1be2c89b69c2b068fc378daa952ba7f163c4a11628f55a4df523b3ef906110709086815260200190565b60405180910390a3610ecc565b6002606654036110cf5760405162461bcd60e51b815260206004820152601f60248201527f5265656e7472616e637947756172643a207265656e7472616e742063616c6c00604482015260640161024b565b6002606655565b6001546040516323b872dd60e01b81523360048201526001600160a01b0390911660248201526044810183905260009073c02aaa39b223fe8d0a0e5c4f27ead9083c756cc29081906323b872dd906064016020604051808303816000875af1158015611146573d6000803e3d6000fd5b505050506040513d601f19601f8201168201806040525081019061116a9190611c3e565b50600154604051632e1a7d4d60e01b8152600481018690526001600160a01b0390911690632e1a7d4d90602401600060405180830381600087803b1580156111b157600080fd5b505af11580156111c5573d6000803e3d6000fd5b5050600080546040516370a0823160e01b81523060048201526001600160a01b03909116935090915082906370a0823190602401602060405180830381865afa158015611216573d6000803e3d6000fd5b505050506040513d601f19601f8201168201806040525081019061123a9190611c60565b9050816001600160a01b0316631249c58b876040518263ffffffff1660e01b81526004016000604051808303818588803b15801561127757600080fd5b505af115801561128b573d6000803e3d6000fd5b50506000546040516370a0823160e01b81523060048201528594506001600160a01b0390911692506370a082319150602401602060405180830381865afa1580156112da573d6000803e3d6000fd5b505050506040513d601f19601f820116820180604052508101906112fe9190611c60565b6113089190611c79565b9350611314858561164b565b60408051878152602081018690526001600160a01b0387169133917fdcbc1c05240f31ff3ad067ef1ee35ce4997762752e3a095284754544f4c709d7910160405180910390a350505092915050565b600154600160b01b900460ff1661138c5760405162461bcd60e51b815260040161024b90611c8c565b611396828261170c565b5050565b6000826001600160a01b0316856001600160a01b0316146113c0576113c0838684610e58565b6113ca838361174e565b60005460405163db006a7560e01b81526004810184905273c02aaa39b223fe8d0a0e5c4f27ead9083c756cc2916001600160a01b031690819063db006a75906024016020604051808303816000875af115801561142b573d6000803e3d6000fd5b505050506040513d601f19601f8201168201806040525081019061144f9190611c60565b50479250816001600160a01b031663d0e30db0846040518263ffffffff1660e01b81526004016000604051808303818588803b15801561148e57600080fd5b505af11580156114a2573d6000803e3d6000fd5b505060405163a9059cbb60e01b81526001600160a01b038a81166004830152602482018890528616935063a9059cbb925060440190506020604051808303816000875af11580156114f7573d6000803e3d6000fd5b505050506040513d601f19601f8201168201806040525081019061151b9190611c3e565b5060408051848152602081018690526001600160a01b03808816929089169133917ffbde797d201c681b91056529119e0b02407c7bb96a4a2c75c01fc9667232c8db910160405180910390a45050949350505050565b60008060009054906101000a90046001600160a01b03166001600160a01b031663182df0f56040518163ffffffff1660e01b8152600401602060405180830381865afa1580156115c5573d6000803e3d6000fd5b505050506040513d601f19601f820116820180604052508101906106579190611c60565b6000806115f7868686611882565b9050600183600281111561160d5761160d611cd7565b14801561162a57506000848061162557611625611ced565b868809115b1561163d5761163a600182611c08565b90505b95945050505050565b505050565b6001600160a01b0382166116a15760405162461bcd60e51b815260206004820152601f60248201527f45524332303a206d696e7420746f20746865207a65726f206164647265737300604482015260640161024b565b80603660008282546116b39190611c08565b90915550506001600160a01b0382166000818152603460209081526040808320805486019055518481527fddf252ad1be2c89b69c2b068fc378daa952ba7f163c4a11628f55a4df523b3ef910160405180910390a35050565b600154600160b01b900460ff166117355760405162461bcd60e51b815260040161024b90611c8c565b60376117418382611d67565b5060386116468282611d67565b6001600160a01b0382166117ae5760405162461bcd60e51b815260206004820152602160248201527f45524332303a206275726e2066726f6d20746865207a65726f206164647265736044820152607360f81b606482015260840161024b565b6001600160a01b038216600090815260346020526040902054818110156118225760405162461bcd60e51b815260206004820152602260248201527f45524332303a206275726e20616d6f756e7420657863656564732062616c616e604482015261636560f01b606482015260840161024b565b6001600160a01b03831660008181526034602090815260408083208686039055603680548790039055518581529192917fddf252ad1be2c89b69c2b068fc378daa952ba7f163c4a11628f55a4df523b3ef910160405180910390a3505050565b60008080600019858709858702925082811083820303915050806000036118bc578382816118b2576118b2611ced565b0492505050610745565b8084116118c857600080fd5b60008486880960026001871981018816978890046003810283188082028403028082028403028082028403028082028403028082028403029081029092039091026000889003889004909101858311909403939093029303949094049190911702949350505050565b600060208083528351808285015260005b8181101561195e57858101830151858201604001528201611942565b506000604082860101526040601f19601f8301168501019250505092915050565b60006020828403121561199157600080fd5b5035919050565b6001600160a01b03811681146119ad57600080fd5b50565b600080604083850312156119c357600080fd5b82356119ce81611998565b946020939093013593505050565b6000806000606084860312156119f157600080fd5b83356119fc81611998565b92506020840135611a0c81611998565b929592945050506040919091013590565b600060208284031215611a2f57600080fd5b813561074581611998565b60008060408385031215611a4d57600080fd5b823591506020830135611a5f81611998565b809150509250929050565b60008083601f840112611a7c57600080fd5b50813567ffffffffffffffff811115611a9457600080fd5b602083019150836020828501011115611aac57600080fd5b9250929050565b60008060008060008060808789031215611acc57600080fd5b863567ffffffffffffffff80821115611ae457600080fd5b611af08a838b01611a6a565b90985096506020890135915080821115611b0957600080fd5b50611b1689828a01611a6a565b9095509350506040870135611b2a81611998565b91506060870135611b3a81611998565b809150509295509295509295565b600080600060608486031215611b5d57600080fd5b833592506020840135611b6f81611998565b91506040840135611b7f81611998565b809150509250925092565b60008060408385031215611b9d57600080fd5b8235611ba881611998565b91506020830135611a5f81611998565b600181811c90821680611bcc57607f821691505b602082108103611bec57634e487b7160e01b600052602260045260246000fd5b50919050565b634e487b7160e01b600052601160045260246000fd5b808201808211156106fb576106fb611bf2565b600060208284031215611c2d57600080fd5b815160ff8116811461074557600080fd5b600060208284031215611c5057600080fd5b8151801515811461074557600080fd5b600060208284031215611c7257600080fd5b5051919050565b818103818111156106fb576106fb611bf2565b6020808252602b908201527f496e697469616c697a61626c653a20636f6e7472616374206973206e6f74206960408201526a6e697469616c697a696e6760a81b606082015260800190565b634e487b7160e01b600052602160045260246000fd5b634e487b7160e01b600052601260045260246000fd5b634e487b7160e01b600052604160045260246000fd5b601f82111561164657600081815260208120601f850160051c81016020861015611d405750805b601f850160051c820191505b81811015611d5f57828155600101611d4c565b505050505050565b815167ffffffffffffffff811115611d8157611d81611d03565b611d9581611d8f8454611bb8565b84611d19565b602080601f831160018114611dca5760008415611db25750858301515b600019600386901b1c1916600185901b178555611d5f565b600085815260208120601f198616915b82811015611df957888601518255948401946001909101908401611dda565b5085821015611e175787850151600019600388901b60f8161c191681555b5050505050600190811b0190555056fea2646970667358221220dc138e9d6070ae538253b0a33a7c7b3887a23664dda1a2bc9906422bb569d1ba64736f6c63430008110033",
  "devdoc": {
    "author": "Spice Finance Inc",
    "kind": "dev",
    "methods": {
      "allowance(address,address)": {
        "details": "See {IERC20-allowance}."
      },
      "approve(address,uint256)": {
        "details": "See {IERC20-approve}. NOTE: If `amount` is the maximum `uint256`, the allowance is not updated on `transferFrom`. This is semantically equivalent to an infinite approval. Requirements: - `spender` cannot be the zero address."
      },
      "balanceOf(address)": {
        "details": "See {IERC20-balanceOf}."
      },
      "constructor": {
        "custom:oz-upgrades-unsafe-allow": "constructor"
      },
      "decreaseAllowance(address,uint256)": {
        "details": "Atomically decreases the allowance granted to `spender` by the caller. This is an alternative to {approve} that can be used as a mitigation for problems described in {IERC20-approve}. Emits an {Approval} event indicating the updated allowance. Requirements: - `spender` cannot be the zero address. - `spender` must have allowance for the caller of at least `subtractedValue`."
      },
      "deposit(uint256,address)": {
        "params": {
          "assets": "The amount of weth being deposited",
          "receiver": "The account that will receive the receipt tokens"
        },
        "returns": {
          "shares": "The amount of receipt tokens minted"
        }
      },
      "increaseAllowance(address,uint256)": {
        "details": "Atomically increases the allowance granted to `spender` by the caller. This is an alternative to {approve} that can be used as a mitigation for problems described in {IERC20-approve}. Emits an {Approval} event indicating the updated allowance. Requirements: - `spender` cannot be the zero address."
      },
      "initialize(string,string,address,address)": {
        "params": {
          "lpTokenAddress_": "BToken address",
          "name_": "Receipt token name",
          "symbol_": "Receipt token symbol",
          "wethUnwrapper_": "WETH Unwrapper"
        }
      },
      "mint(uint256,address)": {
        "params": {
          "receiver": "The account that will receive the receipt tokens",
          "shares": "The amount of receipt tokens to mint"
        },
        "returns": {
          "assets": "The amount of weth deposited"
        }
      },
      "name()": {
        "details": "Returns the name of the token."
      },
      "redeem(uint256,address,address)": {
        "params": {
          "owner": "The account that will pay receipt tokens",
          "receiver": "The account that will receive weth",
          "shares": "The amount of receipt tokens being burnt"
        }
      },
      "symbol()": {
        "details": "Returns the symbol of the token, usually a shorter version of the name."
      },
      "totalSupply()": {
        "details": "See {IERC20-totalSupply}."
      },
      "transfer(address,uint256)": {
        "details": "See {IERC20-transfer}. Requirements: - `to` cannot be the zero address. - the caller must have a balance of at least `amount`."
      },
      "transferFrom(address,address,uint256)": {
        "details": "See {IERC20-transferFrom}. Emits an {Approval} event indicating the updated allowance. This is not required by the EIP. See the note at the beginning of {ERC20}. NOTE: Does not update the allowance if the current allowance is the maximum `uint256`. Requirements: - `from` and `to` cannot be the zero address. - `from` must have a balance of at least `amount`. - the caller must have allowance for ``from``'s tokens of at least `amount`."
      },
      "withdraw(uint256,address,address)": {
        "params": {
          "assets": "The amount of weth being withdrawn",
          "owner": "The account that will pay receipt tokens",
          "receiver": "The account that will receive weth"
        }
      }
    },
    "title": "ERC4626 Wrapper for Drops CEther",
    "version": 1
  },
  "userdoc": {
    "errors": {
      "InvalidAddress()": [
        {
          "notice": "Invalid address (e.g. zero address)"
        }
      ],
      "ParameterOutOfBounds()": [
        {
          "notice": "Parameter out of bounds"
        }
      ]
    },
    "kind": "user",
    "methods": {
      "WETH()": {
        "notice": "WETH address"
      },
      "asset()": {
        "notice": "Get underlying token address"
      },
      "convertToAssets(uint256)": {
        "notice": "See {IERC4626-convertToAssets}"
      },
      "convertToShares(uint256)": {
        "notice": "See {IERC4626-convertToShares}"
      },
      "decimals()": {
        "notice": "See {IERC20Metadata-decimals}."
      },
      "deposit(uint256,address)": {
        "notice": "Deposits weth into CEther and receive receipt tokens"
      },
      "initialize(string,string,address,address)": {
        "notice": "Drops4626 constructor (for proxy)"
      },
      "lpTokenAddress()": {
        "notice": "CEther address"
      },
      "maxDeposit(address)": {
        "notice": "See {IERC4626-maxDeposit}"
      },
      "maxMint(address)": {
        "notice": "See {IERC4626-maxMint}"
      },
      "maxRedeem(address)": {
        "notice": "See {IERC4626-maxRedeem}"
      },
      "maxWithdraw(address)": {
        "notice": "See {IERC4626-maxWithdraw}"
      },
      "mint(uint256,address)": {
        "notice": "Deposits weth into CEther and receive receipt tokens"
      },
      "previewDeposit(uint256)": {
        "notice": "See {IERC4626-previewDeposit}"
      },
      "previewMint(uint256)": {
        "notice": "See {IERC4626-previewMint}"
      },
      "previewRedeem(uint256)": {
        "notice": "See {IERC4626-previewRedeem}"
      },
      "previewWithdraw(uint256)": {
        "notice": "See {IERC4626-previewWithdraw}"
      },
      "redeem(uint256,address,address)": {
        "notice": "Withdraw weth from the pool"
      },
      "totalAssets()": {
        "notice": "See {IERC4626-totalAssets}"
      },
      "withdraw(uint256,address,address)": {
        "notice": "Withdraw weth from the pool"
      }
    },
    "version": 1
  },
  "storageLayout": {
    "storage": [
      {
        "astId": 12366,
        "contract": "contracts/vaults/Drops4626.sol:Drops4626",
        "label": "lpTokenAddress",
        "offset": 0,
        "slot": "0",
        "type": "t_address"
      },
      {
        "astId": 12369,
        "contract": "contracts/vaults/Drops4626.sol:Drops4626",
        "label": "wethUnwrapper",
        "offset": 0,
        "slot": "1",
        "type": "t_contract(WETHUnwrapper)11030"
      },
      {
        "astId": 12372,
        "contract": "contracts/vaults/Drops4626.sol:Drops4626",
        "label": "_decimals",
        "offset": 20,
        "slot": "1",
        "type": "t_uint8"
      },
      {
        "astId": 1142,
        "contract": "contracts/vaults/Drops4626.sol:Drops4626",
        "label": "_initialized",
        "offset": 21,
        "slot": "1",
        "type": "t_uint8"
      },
      {
        "astId": 1145,
        "contract": "contracts/vaults/Drops4626.sol:Drops4626",
        "label": "_initializing",
        "offset": 22,
        "slot": "1",
        "type": "t_bool"
      },
      {
        "astId": 4793,
        "contract": "contracts/vaults/Drops4626.sol:Drops4626",
        "label": "__gap",
        "offset": 0,
        "slot": "2",
        "type": "t_array(t_uint256)50_storage"
      },
      {
        "astId": 1659,
        "contract": "contracts/vaults/Drops4626.sol:Drops4626",
        "label": "_balances",
        "offset": 0,
        "slot": "52",
        "type": "t_mapping(t_address,t_uint256)"
      },
      {
        "astId": 1665,
        "contract": "contracts/vaults/Drops4626.sol:Drops4626",
        "label": "_allowances",
        "offset": 0,
        "slot": "53",
        "type": "t_mapping(t_address,t_mapping(t_address,t_uint256))"
      },
      {
        "astId": 1667,
        "contract": "contracts/vaults/Drops4626.sol:Drops4626",
        "label": "_totalSupply",
        "offset": 0,
        "slot": "54",
        "type": "t_uint256"
      },
      {
        "astId": 1669,
        "contract": "contracts/vaults/Drops4626.sol:Drops4626",
        "label": "_name",
        "offset": 0,
        "slot": "55",
        "type": "t_string_storage"
      },
      {
        "astId": 1671,
        "contract": "contracts/vaults/Drops4626.sol:Drops4626",
        "label": "_symbol",
        "offset": 0,
        "slot": "56",
        "type": "t_string_storage"
      },
      {
        "astId": 2251,
        "contract": "contracts/vaults/Drops4626.sol:Drops4626",
        "label": "__gap",
        "offset": 0,
        "slot": "57",
        "type": "t_array(t_uint256)45_storage"
      },
      {
        "astId": 1581,
        "contract": "contracts/vaults/Drops4626.sol:Drops4626",
        "label": "_status",
        "offset": 0,
        "slot": "102",
        "type": "t_uint256"
      },
      {
        "astId": 1639,
        "contract": "contracts/vaults/Drops4626.sol:Drops4626",
        "label": "__gap",
        "offset": 0,
        "slot": "103",
        "type": "t_array(t_uint256)49_storage"
      }
    ],
    "types": {
      "t_address": {
        "encoding": "inplace",
        "label": "address",
        "numberOfBytes": "20"
      },
      "t_array(t_uint256)45_storage": {
        "base": "t_uint256",
        "encoding": "inplace",
        "label": "uint256[45]",
        "numberOfBytes": "1440"
      },
      "t_array(t_uint256)49_storage": {
        "base": "t_uint256",
        "encoding": "inplace",
        "label": "uint256[49]",
        "numberOfBytes": "1568"
      },
      "t_array(t_uint256)50_storage": {
        "base": "t_uint256",
        "encoding": "inplace",
        "label": "uint256[50]",
        "numberOfBytes": "1600"
      },
      "t_bool": {
        "encoding": "inplace",
        "label": "bool",
        "numberOfBytes": "1"
      },
      "t_contract(WETHUnwrapper)11030": {
        "encoding": "inplace",
        "label": "contract WETHUnwrapper",
        "numberOfBytes": "20"
      },
      "t_mapping(t_address,t_mapping(t_address,t_uint256))": {
        "encoding": "mapping",
        "key": "t_address",
        "label": "mapping(address => mapping(address => uint256))",
        "numberOfBytes": "32",
        "value": "t_mapping(t_address,t_uint256)"
      },
      "t_mapping(t_address,t_uint256)": {
        "encoding": "mapping",
        "key": "t_address",
        "label": "mapping(address => uint256)",
        "numberOfBytes": "32",
        "value": "t_uint256"
      },
      "t_string_storage": {
        "encoding": "bytes",
        "label": "string",
        "numberOfBytes": "32"
      },
      "t_uint256": {
        "encoding": "inplace",
        "label": "uint256",
        "numberOfBytes": "32"
      },
      "t_uint8": {
        "encoding": "inplace",
        "label": "uint8",
        "numberOfBytes": "1"
      }
    }
  }
}