{
  "address": "0x27E36aa07e6f95e7FDcdc21C3300AEA28f33d30a",
  "abi": [
    {
      "inputs": [
        {
          "internalType": "contract SpiceFi4626",
          "name": "implementation_",
          "type": "address"
        }
      ],
      "stateMutability": "nonpayable",
      "type": "constructor"
    },
    {
      "inputs": [],
      "name": "InvalidAddress",
      "type": "error"
    },
    {
      "inputs": [],
      "name": "ParameterOutOfBounds",
      "type": "error"
    },
    {
      "anonymous": false,
      "inputs": [
        {
          "indexed": true,
          "internalType": "bytes32",
          "name": "role",
          "type": "bytes32"
        },
        {
          "indexed": true,
          "internalType": "bytes32",
          "name": "previousAdminRole",
          "type": "bytes32"
        },
        {
          "indexed": true,
          "internalType": "bytes32",
          "name": "newAdminRole",
          "type": "bytes32"
        }
      ],
      "name": "RoleAdminChanged",
      "type": "event"
    },
    {
      "anonymous": false,
      "inputs": [
        {
          "indexed": true,
          "internalType": "bytes32",
          "name": "role",
          "type": "bytes32"
        },
        {
          "indexed": true,
          "internalType": "address",
          "name": "account",
          "type": "address"
        },
        {
          "indexed": true,
          "internalType": "address",
          "name": "sender",
          "type": "address"
        }
      ],
      "name": "RoleGranted",
      "type": "event"
    },
    {
      "anonymous": false,
      "inputs": [
        {
          "indexed": true,
          "internalType": "bytes32",
          "name": "role",
          "type": "bytes32"
        },
        {
          "indexed": true,
          "internalType": "address",
          "name": "account",
          "type": "address"
        },
        {
          "indexed": true,
          "internalType": "address",
          "name": "sender",
          "type": "address"
        }
      ],
      "name": "RoleRevoked",
      "type": "event"
    },
    {
      "anonymous": false,
      "inputs": [
        {
          "indexed": true,
          "internalType": "address",
          "name": "owner",
          "type": "address"
        },
        {
          "indexed": false,
          "internalType": "address",
          "name": "vault",
          "type": "address"
        }
      ],
      "name": "VaultCreated",
      "type": "event"
    },
    {
      "inputs": [],
      "name": "AGGREGATOR_ROLE",
      "outputs": [
        {
          "internalType": "bytes32",
          "name": "",
          "type": "bytes32"
        }
      ],
      "stateMutability": "view",
      "type": "function"
    },
    {
      "inputs": [],
      "name": "DEFAULT_ADMIN_ROLE",
      "outputs": [
        {
          "internalType": "bytes32",
          "name": "",
          "type": "bytes32"
        }
      ],
      "stateMutability": "view",
      "type": "function"
    },
    {
      "inputs": [],
      "name": "VAULT_ROLE",
      "outputs": [
        {
          "internalType": "bytes32",
          "name": "",
          "type": "bytes32"
        }
      ],
      "stateMutability": "view",
      "type": "function"
    },
    {
      "inputs": [
        {
          "internalType": "address",
          "name": "asset",
          "type": "address"
        },
        {
          "internalType": "address",
          "name": "assetReceiver",
          "type": "address"
        },
        {
          "internalType": "address[]",
          "name": "vaults",
          "type": "address[]"
        },
        {
          "internalType": "uint256",
          "name": "withdrawalFees",
          "type": "uint256"
        }
      ],
      "name": "createVault",
      "outputs": [
        {
          "internalType": "contract SpiceFi4626",
          "name": "vault",
          "type": "address"
        }
      ],
      "stateMutability": "nonpayable",
      "type": "function"
    },
    {
      "inputs": [
        {
          "internalType": "bytes32",
          "name": "role",
          "type": "bytes32"
        }
      ],
      "name": "getRoleAdmin",
      "outputs": [
        {
          "internalType": "bytes32",
          "name": "",
          "type": "bytes32"
        }
      ],
      "stateMutability": "view",
      "type": "function"
    },
    {
      "inputs": [
        {
          "internalType": "bytes32",
          "name": "role",
          "type": "bytes32"
        },
        {
          "internalType": "uint256",
          "name": "index",
          "type": "uint256"
        }
      ],
      "name": "getRoleMember",
      "outputs": [
        {
          "internalType": "address",
          "name": "",
          "type": "address"
        }
      ],
      "stateMutability": "view",
      "type": "function"
    },
    {
      "inputs": [
        {
          "internalType": "bytes32",
          "name": "role",
          "type": "bytes32"
        }
      ],
      "name": "getRoleMemberCount",
      "outputs": [
        {
          "internalType": "uint256",
          "name": "",
          "type": "uint256"
        }
      ],
      "stateMutability": "view",
      "type": "function"
    },
    {
      "inputs": [
        {
          "internalType": "bytes32",
          "name": "role",
          "type": "bytes32"
        },
        {
          "internalType": "address",
          "name": "account",
          "type": "address"
        }
      ],
      "name": "grantRole",
      "outputs": [],
      "stateMutability": "nonpayable",
      "type": "function"
    },
    {
      "inputs": [
        {
          "internalType": "bytes32",
          "name": "role",
          "type": "bytes32"
        },
        {
          "internalType": "address",
          "name": "account",
          "type": "address"
        }
      ],
      "name": "hasRole",
      "outputs": [
        {
          "internalType": "bool",
          "name": "",
          "type": "bool"
        }
      ],
      "stateMutability": "view",
      "type": "function"
    },
    {
      "inputs": [],
      "name": "implementation",
      "outputs": [
        {
          "internalType": "contract SpiceFi4626",
          "name": "",
          "type": "address"
        }
      ],
      "stateMutability": "view",
      "type": "function"
    },
    {
      "inputs": [
        {
          "internalType": "bytes32",
          "name": "role",
          "type": "bytes32"
        },
        {
          "internalType": "address",
          "name": "account",
          "type": "address"
        }
      ],
      "name": "renounceRole",
      "outputs": [],
      "stateMutability": "nonpayable",
      "type": "function"
    },
    {
      "inputs": [
        {
          "internalType": "bytes32",
          "name": "role",
          "type": "bytes32"
        },
        {
          "internalType": "address",
          "name": "account",
          "type": "address"
        }
      ],
      "name": "revokeRole",
      "outputs": [],
      "stateMutability": "nonpayable",
      "type": "function"
    },
    {
      "inputs": [
        {
          "internalType": "bytes4",
          "name": "interfaceId",
          "type": "bytes4"
        }
      ],
      "name": "supportsInterface",
      "outputs": [
        {
          "internalType": "bool",
          "name": "",
          "type": "bool"
        }
      ],
      "stateMutability": "view",
      "type": "function"
    }
  ],
  "transactionHash": "0xa35b6c3fd8379e242aad611831e288327cf9d9c76c860e7f812118490bedf6c1",
  "args": [
    "0x3Fa7af1cBE2a72E624F5823F0bc504A082617e99"
  ],
  "numDeployments": 1,
  "solcInputHash": "f0a0fde2fb4fe77499cc2361feac9c81",
  "bytecode": "0x60a06040523480156200001157600080fd5b5060405162001188380380620011888339810160408190526200003491620001e0565b6001600160a01b0381166200005c5760405163e6c4247b60e01b815260040160405180910390fd5b620000696000336200007b565b6001600160a01b031660805262000212565b6200008782826200008b565b5050565b620000a28282620000ce60201b620006781760201c565b6000828152600160209081526040909120620000c9918390620006fc6200016e821b17901c565b505050565b6000828152602081815260408083206001600160a01b038516845290915290205460ff1662000087576000828152602081815260408083206001600160a01b03851684529091529020805460ff191660011790556200012a3390565b6001600160a01b0316816001600160a01b0316837f2f8788117e7eff1d82e926ec794901d17c78024a50270940304540a733656f0d60405160405180910390a45050565b600062000185836001600160a01b0384166200018e565b90505b92915050565b6000818152600183016020526040812054620001d75750815460018181018455600084815260208082209093018490558454848252828601909352604090209190915562000188565b50600062000188565b600060208284031215620001f357600080fd5b81516001600160a01b03811681146200020b57600080fd5b9392505050565b608051610f53620002356000396000818161018101526103fa0152610f536000f3fe608060405234801561001057600080fd5b50600436106100cf5760003560e01c80639010d07c1161008c578063a217fddf11610066578063a217fddf14610208578063ca15c87314610210578063d547741f14610223578063ef6b046a1461023657600080fd5b80639010d07c146101bb57806391d14854146101ce57806398c4f1ac146101e157600080fd5b806301ffc9a7146100d4578063248a9ca3146100fc5780632f2ff15d1461012d5780633225b10b1461014257806336568abe146101695780635c60da1b1461017c575b600080fd5b6100e76100e2366004610c30565b610249565b60405190151581526020015b60405180910390f35b61011f61010a366004610c5a565b60009081526020819052604090206001015490565b6040519081526020016100f3565b61014061013b366004610c8a565b610274565b005b61011f7fb3c3f8258c2780bffb0b444bbeed42fe51cc1a89779df0a97a43a56e08602e1981565b610140610177366004610c8a565b61029e565b6101a37f000000000000000000000000000000000000000000000000000000000000000081565b6040516001600160a01b0390911681526020016100f3565b6101a36101c9366004610cb6565b610321565b6100e76101dc366004610c8a565b610340565b61011f7f31e0210044b4f6757ce6aa31f9c6e8d4896d24a755014887391a926c5224d95981565b61011f600081565b61011f61021e366004610c5a565b610369565b610140610231366004610c8a565b610380565b6101a3610244366004610cd8565b6103a5565b60006001600160e01b03198216635a05180f60e01b148061026e575061026e82610711565b92915050565b60008281526020819052604090206001015461028f81610746565b6102998383610753565b505050565b6001600160a01b03811633146103135760405162461bcd60e51b815260206004820152602f60248201527f416363657373436f6e74726f6c3a2063616e206f6e6c792072656e6f756e636560448201526e103937b632b9903337b91039b2b63360891b60648201526084015b60405180910390fd5b61031d8282610775565b5050565b60008281526001602052604081206103399083610797565b9392505050565b6000918252602082815260408084206001600160a01b0393909316845291905290205460ff1690565b600081815260016020526040812061026e906107a3565b60008281526020819052604090206001015461039b81610746565b6102998383610775565b60006001600160a01b0386166103ce5760405163e6c4247b60e01b815260040160405180910390fd5b6001600160a01b0385166103f55760405163e6c4247b60e01b815260040160405180910390fd5b6104277f00000000000000000000000000000000000000000000000000000000000000006001600160a01b03166107ad565b60405163cf756fdf60e01b81526001600160a01b0388811660048301523360248301528781166044830152606482018590529192509082169063cf756fdf90608401600060405180830381600087803b15801561048357600080fd5b505af1158015610497573d6000803e3d6000fd5b5050505060008484905090506000826001600160a01b03166398c4f1ac6040518163ffffffff1660e01b8152600401602060405180830381865afa1580156104e3573d6000803e3d6000fd5b505050506040513d601f19601f820116820180604052508101906105079190610d71565b905060005b828114610604576105637f31e0210044b4f6757ce6aa31f9c6e8d4896d24a755014887391a926c5224d95988888481811061054957610549610d8a565b905060200201602081019061055e9190610da0565b61084a565b836001600160a01b0316632f2ff15d8389898581811061058557610585610d8a565b905060200201602081019061059a9190610da0565b6040516001600160e01b031960e085901b16815260048101929092526001600160a01b03166024820152604401600060405180830381600087803b1580156105e157600080fd5b505af11580156105f5573d6000803e3d6000fd5b5050505080600101905061050c565b5061062f7fb3c3f8258c2780bffb0b444bbeed42fe51cc1a89779df0a97a43a56e08602e1984610753565b6040516001600160a01b038416815233907f5d9c31ffa0fecffd7cf379989a3c7af252f0335e0d2a1320b55245912c781f539060200160405180910390a2505095945050505050565b6106828282610340565b61031d576000828152602081815260408083206001600160a01b03851684529091529020805460ff191660011790556106b83390565b6001600160a01b0316816001600160a01b0316837f2f8788117e7eff1d82e926ec794901d17c78024a50270940304540a733656f0d60405160405180910390a45050565b6000610339836001600160a01b0384166108ae565b60006001600160e01b03198216637965db0b60e01b148061026e57506301ffc9a760e01b6001600160e01b031983161461026e565b610750813361084a565b50565b61075d8282610678565b600082815260016020526040902061029990826106fc565b61077f82826108fd565b60008281526001602052604090206102999082610962565b60006103398383610977565b600061026e825490565b6000604051733d602d80600a3d3981f3363d3d373d3d3d363d7360601b81528260601b60148201526e5af43d82803e903d91602b57fd5bf360881b60288201526037816000f09150506001600160a01b0381166108455760405162461bcd60e51b8152602060048201526016602482015275115490cc4c4d8dce8818dc99585d194819985a5b195960521b604482015260640161030a565b919050565b6108548282610340565b61031d5761086c816001600160a01b031660146109a1565b6108778360206109a1565b604051602001610888929190610ddf565b60408051601f198184030181529082905262461bcd60e51b825261030a91600401610e54565b60008181526001830160205260408120546108f55750815460018181018455600084815260208082209093018490558454848252828601909352604090209190915561026e565b50600061026e565b6109078282610340565b1561031d576000828152602081815260408083206001600160a01b0385168085529252808320805460ff1916905551339285917ff6391f5c32d9c69d2a47ea670b442974b53935d1edc7fd64eb21e047a839171b9190a45050565b6000610339836001600160a01b038416610b3d565b600082600001828154811061098e5761098e610d8a565b9060005260206000200154905092915050565b606060006109b0836002610e9d565b6109bb906002610eb4565b67ffffffffffffffff8111156109d3576109d3610ec7565b6040519080825280601f01601f1916602001820160405280156109fd576020820181803683370190505b509050600360fc1b81600081518110610a1857610a18610d8a565b60200101906001600160f81b031916908160001a905350600f60fb1b81600181518110610a4757610a47610d8a565b60200101906001600160f81b031916908160001a9053506000610a6b846002610e9d565b610a76906001610eb4565b90505b6001811115610aee576f181899199a1a9b1b9c1cb0b131b232b360811b85600f1660108110610aaa57610aaa610d8a565b1a60f81b828281518110610ac057610ac0610d8a565b60200101906001600160f81b031916908160001a90535060049490941c93610ae781610edd565b9050610a79565b5083156103395760405162461bcd60e51b815260206004820181905260248201527f537472696e67733a20686578206c656e67746820696e73756666696369656e74604482015260640161030a565b60008181526001830160205260408120548015610c26576000610b61600183610ef4565b8554909150600090610b7590600190610ef4565b9050818114610bda576000866000018281548110610b9557610b95610d8a565b9060005260206000200154905080876000018481548110610bb857610bb8610d8a565b6000918252602080832090910192909255918252600188019052604090208390555b8554869080610beb57610beb610f07565b60019003818190600052602060002001600090559055856001016000868152602001908152602001600020600090556001935050505061026e565b600091505061026e565b600060208284031215610c4257600080fd5b81356001600160e01b03198116811461033957600080fd5b600060208284031215610c6c57600080fd5b5035919050565b80356001600160a01b038116811461084557600080fd5b60008060408385031215610c9d57600080fd5b82359150610cad60208401610c73565b90509250929050565b60008060408385031215610cc957600080fd5b50508035926020909101359150565b600080600080600060808688031215610cf057600080fd5b610cf986610c73565b9450610d0760208701610c73565b9350604086013567ffffffffffffffff80821115610d2457600080fd5b818801915088601f830112610d3857600080fd5b813581811115610d4757600080fd5b8960208260051b8501011115610d5c57600080fd5b96999598505060200195606001359392505050565b600060208284031215610d8357600080fd5b5051919050565b634e487b7160e01b600052603260045260246000fd5b600060208284031215610db257600080fd5b61033982610c73565b60005b83811015610dd6578181015183820152602001610dbe565b50506000910152565b7f416363657373436f6e74726f6c3a206163636f756e7420000000000000000000815260008351610e17816017850160208801610dbb565b7001034b99036b4b9b9b4b733903937b6329607d1b6017918401918201528351610e48816028840160208801610dbb565b01602801949350505050565b6020815260008251806020840152610e73816040850160208701610dbb565b601f01601f19169190910160400192915050565b634e487b7160e01b600052601160045260246000fd5b808202811582820484141761026e5761026e610e87565b8082018082111561026e5761026e610e87565b634e487b7160e01b600052604160045260246000fd5b600081610eec57610eec610e87565b506000190190565b8181038181111561026e5761026e610e87565b634e487b7160e01b600052603160045260246000fdfea264697066735822122096034904812951638fe5285120f49f04239d01451ac55ab1f385dba391f5ecad64736f6c63430008110033",
  "devdoc": {
    "author": "Spice Finance Inc",
    "events": {
      "VaultCreated(address,address)": {
        "params": {
          "owner": "Owner addres",
          "vault": "Vault address"
        }
      }
    },
    "kind": "dev",
    "methods": {
      "constructor": {
        "params": {
          "implementation_": "SpiceFi4626 implementation address"
        }
      },
      "createVault(address,address,address[],uint256)": {
        "params": {
          "asset": "Asset address for SpiceFi4626",
          "assetReceiver": "Default asset receiver",
          "vaults": "Default vault addresses",
          "withdrawalFees": "Default withdrawal fees"
        },
        "returns": {
          "vault": "Created vault address"
        }
      },
      "getRoleAdmin(bytes32)": {
        "details": "Returns the admin role that controls `role`. See {grantRole} and {revokeRole}. To change a role's admin, use {_setRoleAdmin}."
      },
      "getRoleMember(bytes32,uint256)": {
        "details": "Returns one of the accounts that have `role`. `index` must be a value between 0 and {getRoleMemberCount}, non-inclusive. Role bearers are not sorted in any particular way, and their ordering may change at any point. WARNING: When using {getRoleMember} and {getRoleMemberCount}, make sure you perform all queries on the same block. See the following https://forum.openzeppelin.com/t/iterating-over-elements-on-enumerableset-in-openzeppelin-contracts/2296[forum post] for more information."
      },
      "getRoleMemberCount(bytes32)": {
        "details": "Returns the number of accounts that have `role`. Can be used together with {getRoleMember} to enumerate all bearers of a role."
      },
      "grantRole(bytes32,address)": {
        "details": "Grants `role` to `account`. If `account` had not been already granted `role`, emits a {RoleGranted} event. Requirements: - the caller must have ``role``'s admin role. May emit a {RoleGranted} event."
      },
      "hasRole(bytes32,address)": {
        "details": "Returns `true` if `account` has been granted `role`."
      },
      "renounceRole(bytes32,address)": {
        "details": "Revokes `role` from the calling account. Roles are often managed via {grantRole} and {revokeRole}: this function's purpose is to provide a mechanism for accounts to lose their privileges if they are compromised (such as when a trusted device is misplaced). If the calling account had been revoked `role`, emits a {RoleRevoked} event. Requirements: - the caller must be `account`. May emit a {RoleRevoked} event."
      },
      "revokeRole(bytes32,address)": {
        "details": "Revokes `role` from `account`. If `account` had been granted `role`, emits a {RoleRevoked} event. Requirements: - the caller must have ``role``'s admin role. May emit a {RoleRevoked} event."
      },
      "supportsInterface(bytes4)": {
        "details": "See {IERC165-supportsInterface}."
      }
    },
    "title": "SpiceFiFactory",
    "version": 1
  },
  "userdoc": {
    "errors": {
      "InvalidAddress()": [
        {
          "notice": "Invalid address (e.g. zero address)"
        }
      ],
      "ParameterOutOfBounds()": [
        {
          "notice": "Parameter out of bounds"
        }
      ]
    },
    "events": {
      "VaultCreated(address,address)": {
        "notice": "Emitted when new vault is created"
      }
    },
    "kind": "user",
    "methods": {
      "AGGREGATOR_ROLE()": {
        "notice": "Aggregator contracts"
      },
      "VAULT_ROLE()": {
        "notice": "Vault contracts"
      },
      "constructor": {
        "notice": "Constructor"
      },
      "createVault(address,address,address[],uint256)": {
        "notice": "Creates new SpiceFi4626 vault"
      },
      "implementation()": {
        "notice": "SpiceFi4626 implementation"
      }
    },
    "version": 1
  },
  "storageLayout": {
    "storage": [
      {
        "astId": 6900,
        "contract": "contracts/vaults/SpiceFiFactory.sol:SpiceFiFactory",
        "label": "_roles",
        "offset": 0,
        "slot": "0",
        "type": "t_mapping(t_bytes32,t_struct(RoleData)6895_storage)"
      },
      {
        "astId": 7214,
        "contract": "contracts/vaults/SpiceFiFactory.sol:SpiceFiFactory",
        "label": "_roleMembers",
        "offset": 0,
        "slot": "1",
        "type": "t_mapping(t_bytes32,t_struct(AddressSet)10703_storage)"
      }
    ],
    "types": {
      "t_address": {
        "encoding": "inplace",
        "label": "address",
        "numberOfBytes": "20"
      },
      "t_array(t_bytes32)dyn_storage": {
        "base": "t_bytes32",
        "encoding": "dynamic_array",
        "label": "bytes32[]",
        "numberOfBytes": "32"
      },
      "t_bool": {
        "encoding": "inplace",
        "label": "bool",
        "numberOfBytes": "1"
      },
      "t_bytes32": {
        "encoding": "inplace",
        "label": "bytes32",
        "numberOfBytes": "32"
      },
      "t_mapping(t_address,t_bool)": {
        "encoding": "mapping",
        "key": "t_address",
        "label": "mapping(address => bool)",
        "numberOfBytes": "32",
        "value": "t_bool"
      },
      "t_mapping(t_bytes32,t_struct(AddressSet)10703_storage)": {
        "encoding": "mapping",
        "key": "t_bytes32",
        "label": "mapping(bytes32 => struct EnumerableSet.AddressSet)",
        "numberOfBytes": "32",
        "value": "t_struct(AddressSet)10703_storage"
      },
      "t_mapping(t_bytes32,t_struct(RoleData)6895_storage)": {
        "encoding": "mapping",
        "key": "t_bytes32",
        "label": "mapping(bytes32 => struct AccessControl.RoleData)",
        "numberOfBytes": "32",
        "value": "t_struct(RoleData)6895_storage"
      },
      "t_mapping(t_bytes32,t_uint256)": {
        "encoding": "mapping",
        "key": "t_bytes32",
        "label": "mapping(bytes32 => uint256)",
        "numberOfBytes": "32",
        "value": "t_uint256"
      },
      "t_struct(AddressSet)10703_storage": {
        "encoding": "inplace",
        "label": "struct EnumerableSet.AddressSet",
        "members": [
          {
            "astId": 10702,
            "contract": "contracts/vaults/SpiceFiFactory.sol:SpiceFiFactory",
            "label": "_inner",
            "offset": 0,
            "slot": "0",
            "type": "t_struct(Set)10402_storage"
          }
        ],
        "numberOfBytes": "64"
      },
      "t_struct(RoleData)6895_storage": {
        "encoding": "inplace",
        "label": "struct AccessControl.RoleData",
        "members": [
          {
            "astId": 6892,
            "contract": "contracts/vaults/SpiceFiFactory.sol:SpiceFiFactory",
            "label": "members",
            "offset": 0,
            "slot": "0",
            "type": "t_mapping(t_address,t_bool)"
          },
          {
            "astId": 6894,
            "contract": "contracts/vaults/SpiceFiFactory.sol:SpiceFiFactory",
            "label": "adminRole",
            "offset": 0,
            "slot": "1",
            "type": "t_bytes32"
          }
        ],
        "numberOfBytes": "64"
      },
      "t_struct(Set)10402_storage": {
        "encoding": "inplace",
        "label": "struct EnumerableSet.Set",
        "members": [
          {
            "astId": 10397,
            "contract": "contracts/vaults/SpiceFiFactory.sol:SpiceFiFactory",
            "label": "_values",
            "offset": 0,
            "slot": "0",
            "type": "t_array(t_bytes32)dyn_storage"
          },
          {
            "astId": 10401,
            "contract": "contracts/vaults/SpiceFiFactory.sol:SpiceFiFactory",
            "label": "_indexes",
            "offset": 0,
            "slot": "1",
            "type": "t_mapping(t_bytes32,t_uint256)"
          }
        ],
        "numberOfBytes": "64"
      },
      "t_uint256": {
        "encoding": "inplace",
        "label": "uint256",
        "numberOfBytes": "32"
      }
    }
  }
}