{
  "address": "0x8c6D9574D98715e464474B14F9f5bcF23ED117d1",
  "abi": [
    {
      "inputs": [],
      "stateMutability": "nonpayable",
      "type": "constructor"
    },
    {
      "inputs": [],
      "name": "InsufficientShareBalance",
      "type": "error"
    },
    {
      "inputs": [],
      "name": "InvalidAddress",
      "type": "error"
    },
    {
      "inputs": [],
      "name": "InvalidTokenId",
      "type": "error"
    },
    {
      "inputs": [],
      "name": "MetadataRevealed",
      "type": "error"
    },
    {
      "inputs": [],
      "name": "MoreThanOne",
      "type": "error"
    },
    {
      "inputs": [],
      "name": "OutOfSupply",
      "type": "error"
    },
    {
      "inputs": [],
      "name": "ParameterOutOfBounds",
      "type": "error"
    },
    {
      "inputs": [],
      "name": "SlippageTooHigh",
      "type": "error"
    },
    {
      "inputs": [],
      "name": "WithdrawBeforeReveal",
      "type": "error"
    },
    {
      "anonymous": false,
      "inputs": [
        {
          "indexed": false,
          "internalType": "address",
          "name": "previousAdmin",
          "type": "address"
        },
        {
          "indexed": false,
          "internalType": "address",
          "name": "newAdmin",
          "type": "address"
        }
      ],
      "name": "AdminChanged",
      "type": "event"
    },
    {
      "anonymous": false,
      "inputs": [
        {
          "indexed": true,
          "internalType": "address",
          "name": "owner",
          "type": "address"
        },
        {
          "indexed": true,
          "internalType": "address",
          "name": "approved",
          "type": "address"
        },
        {
          "indexed": true,
          "internalType": "uint256",
          "name": "tokenId",
          "type": "uint256"
        }
      ],
      "name": "Approval",
      "type": "event"
    },
    {
      "anonymous": false,
      "inputs": [
        {
          "indexed": true,
          "internalType": "address",
          "name": "owner",
          "type": "address"
        },
        {
          "indexed": true,
          "internalType": "address",
          "name": "operator",
          "type": "address"
        },
        {
          "indexed": false,
          "internalType": "bool",
          "name": "approved",
          "type": "bool"
        }
      ],
      "name": "ApprovalForAll",
      "type": "event"
    },
    {
      "anonymous": false,
      "inputs": [
        {
          "indexed": true,
          "internalType": "address",
          "name": "beacon",
          "type": "address"
        }
      ],
      "name": "BeaconUpgraded",
      "type": "event"
    },
    {
      "anonymous": false,
      "inputs": [
        {
          "indexed": true,
          "internalType": "address",
          "name": "sender",
          "type": "address"
        },
        {
          "indexed": true,
          "internalType": "uint256",
          "name": "tokenId",
          "type": "uint256"
        },
        {
          "indexed": false,
          "internalType": "uint256",
          "name": "assets",
          "type": "uint256"
        },
        {
          "indexed": false,
          "internalType": "uint256",
          "name": "shares",
          "type": "uint256"
        }
      ],
      "name": "Deposit",
      "type": "event"
    },
    {
      "anonymous": false,
      "inputs": [
        {
          "indexed": false,
          "internalType": "uint8",
          "name": "version",
          "type": "uint8"
        }
      ],
      "name": "Initialized",
      "type": "event"
    },
    {
      "anonymous": false,
      "inputs": [
        {
          "indexed": false,
          "internalType": "address",
          "name": "account",
          "type": "address"
        }
      ],
      "name": "Paused",
      "type": "event"
    },
    {
      "anonymous": false,
      "inputs": [
        {
          "indexed": true,
          "internalType": "bytes32",
          "name": "role",
          "type": "bytes32"
        },
        {
          "indexed": true,
          "internalType": "bytes32",
          "name": "previousAdminRole",
          "type": "bytes32"
        },
        {
          "indexed": true,
          "internalType": "bytes32",
          "name": "newAdminRole",
          "type": "bytes32"
        }
      ],
      "name": "RoleAdminChanged",
      "type": "event"
    },
    {
      "anonymous": false,
      "inputs": [
        {
          "indexed": true,
          "internalType": "bytes32",
          "name": "role",
          "type": "bytes32"
        },
        {
          "indexed": true,
          "internalType": "address",
          "name": "account",
          "type": "address"
        },
        {
          "indexed": true,
          "internalType": "address",
          "name": "sender",
          "type": "address"
        }
      ],
      "name": "RoleGranted",
      "type": "event"
    },
    {
      "anonymous": false,
      "inputs": [
        {
          "indexed": true,
          "internalType": "bytes32",
          "name": "role",
          "type": "bytes32"
        },
        {
          "indexed": true,
          "internalType": "address",
          "name": "account",
          "type": "address"
        },
        {
          "indexed": true,
          "internalType": "address",
          "name": "sender",
          "type": "address"
        }
      ],
      "name": "RoleRevoked",
      "type": "event"
    },
    {
      "anonymous": false,
      "inputs": [
        {
          "indexed": true,
          "internalType": "address",
          "name": "from",
          "type": "address"
        },
        {
          "indexed": true,
          "internalType": "address",
          "name": "to",
          "type": "address"
        },
        {
          "indexed": true,
          "internalType": "uint256",
          "name": "tokenId",
          "type": "uint256"
        }
      ],
      "name": "Transfer",
      "type": "event"
    },
    {
      "anonymous": false,
      "inputs": [
        {
          "indexed": false,
          "internalType": "address",
          "name": "account",
          "type": "address"
        }
      ],
      "name": "Unpaused",
      "type": "event"
    },
    {
      "anonymous": false,
      "inputs": [
        {
          "indexed": true,
          "internalType": "address",
          "name": "implementation",
          "type": "address"
        }
      ],
      "name": "Upgraded",
      "type": "event"
    },
    {
      "anonymous": false,
      "inputs": [
        {
          "indexed": true,
          "internalType": "address",
          "name": "sender",
          "type": "address"
        },
        {
          "indexed": true,
          "internalType": "uint256",
          "name": "tokenId",
          "type": "uint256"
        },
        {
          "indexed": true,
          "internalType": "address",
          "name": "receiver",
          "type": "address"
        },
        {
          "indexed": false,
          "internalType": "uint256",
          "name": "assets",
          "type": "uint256"
        },
        {
          "indexed": false,
          "internalType": "uint256",
          "name": "shares",
          "type": "uint256"
        }
      ],
      "name": "Withdraw",
      "type": "event"
    },
    {
      "inputs": [],
      "name": "ASSET_RECEIVER_ROLE",
      "outputs": [
        {
          "internalType": "bytes32",
          "name": "",
          "type": "bytes32"
        }
      ],
      "stateMutability": "view",
      "type": "function"
    },
    {
      "inputs": [],
      "name": "DEFAULT_ADMIN_ROLE",
      "outputs": [
        {
          "internalType": "bytes32",
          "name": "",
          "type": "bytes32"
        }
      ],
      "stateMutability": "view",
      "type": "function"
    },
    {
      "inputs": [],
      "name": "SPICE_ROLE",
      "outputs": [
        {
          "internalType": "bytes32",
          "name": "",
          "type": "bytes32"
        }
      ],
      "stateMutability": "view",
      "type": "function"
    },
    {
      "inputs": [],
      "name": "STRATEGIST_ROLE",
      "outputs": [
        {
          "internalType": "bytes32",
          "name": "",
          "type": "bytes32"
        }
      ],
      "stateMutability": "view",
      "type": "function"
    },
    {
      "inputs": [],
      "name": "USER_ROLE",
      "outputs": [
        {
          "internalType": "bytes32",
          "name": "",
          "type": "bytes32"
        }
      ],
      "stateMutability": "view",
      "type": "function"
    },
    {
      "inputs": [],
      "name": "VAULT_ROLE",
      "outputs": [
        {
          "internalType": "bytes32",
          "name": "",
          "type": "bytes32"
        }
      ],
      "stateMutability": "view",
      "type": "function"
    },
    {
      "inputs": [],
      "name": "WETH",
      "outputs": [
        {
          "internalType": "address",
          "name": "",
          "type": "address"
        }
      ],
      "stateMutability": "view",
      "type": "function"
    },
    {
      "inputs": [
        {
          "internalType": "address",
          "name": "to",
          "type": "address"
        },
        {
          "internalType": "uint256",
          "name": "tokenId",
          "type": "uint256"
        }
      ],
      "name": "approve",
      "outputs": [],
      "stateMutability": "nonpayable",
      "type": "function"
    },
    {
      "inputs": [],
      "name": "asset",
      "outputs": [
        {
          "internalType": "address",
          "name": "",
          "type": "address"
        }
      ],
      "stateMutability": "pure",
      "type": "function"
    },
    {
      "inputs": [
        {
          "internalType": "address",
          "name": "owner",
          "type": "address"
        }
      ],
      "name": "balanceOf",
      "outputs": [
        {
          "internalType": "uint256",
          "name": "",
          "type": "uint256"
        }
      ],
      "stateMutability": "view",
      "type": "function"
    },
    {
      "inputs": [
        {
          "internalType": "uint256",
          "name": "shares",
          "type": "uint256"
        }
      ],
      "name": "convertToAssets",
      "outputs": [
        {
          "internalType": "uint256",
          "name": "",
          "type": "uint256"
        }
      ],
      "stateMutability": "view",
      "type": "function"
    },
    {
      "inputs": [
        {
          "internalType": "uint256",
          "name": "assets",
          "type": "uint256"
        }
      ],
      "name": "convertToShares",
      "outputs": [
        {
          "internalType": "uint256",
          "name": "",
          "type": "uint256"
        }
      ],
      "stateMutability": "view",
      "type": "function"
    },
    {
      "inputs": [
        {
          "internalType": "address",
          "name": "vault",
          "type": "address"
        },
        {
          "internalType": "uint256",
          "name": "assets",
          "type": "uint256"
        },
        {
          "internalType": "uint256",
          "name": "minShares",
          "type": "uint256"
        }
      ],
      "name": "deposit",
      "outputs": [
        {
          "internalType": "uint256",
          "name": "shares",
          "type": "uint256"
        }
      ],
      "stateMutability": "nonpayable",
      "type": "function"
    },
    {
      "inputs": [
        {
          "internalType": "uint256",
          "name": "tokenId",
          "type": "uint256"
        },
        {
          "internalType": "uint256",
          "name": "assets",
          "type": "uint256"
        }
      ],
      "name": "deposit",
      "outputs": [
        {
          "internalType": "uint256",
          "name": "shares",
          "type": "uint256"
        }
      ],
      "stateMutability": "nonpayable",
      "type": "function"
    },
    {
      "inputs": [
        {
          "internalType": "uint256",
          "name": "tokenId",
          "type": "uint256"
        }
      ],
      "name": "getApproved",
      "outputs": [
        {
          "internalType": "address",
          "name": "",
          "type": "address"
        }
      ],
      "stateMutability": "view",
      "type": "function"
    },
    {
      "inputs": [
        {
          "internalType": "bytes32",
          "name": "role",
          "type": "bytes32"
        }
      ],
      "name": "getRoleAdmin",
      "outputs": [
        {
          "internalType": "bytes32",
          "name": "",
          "type": "bytes32"
        }
      ],
      "stateMutability": "view",
      "type": "function"
    },
    {
      "inputs": [
        {
          "internalType": "bytes32",
          "name": "role",
          "type": "bytes32"
        },
        {
          "internalType": "uint256",
          "name": "index",
          "type": "uint256"
        }
      ],
      "name": "getRoleMember",
      "outputs": [
        {
          "internalType": "address",
          "name": "",
          "type": "address"
        }
      ],
      "stateMutability": "view",
      "type": "function"
    },
    {
      "inputs": [
        {
          "internalType": "bytes32",
          "name": "role",
          "type": "bytes32"
        }
      ],
      "name": "getRoleMemberCount",
      "outputs": [
        {
          "internalType": "uint256",
          "name": "",
          "type": "uint256"
        }
      ],
      "stateMutability": "view",
      "type": "function"
    },
    {
      "inputs": [
        {
          "internalType": "bytes32",
          "name": "role",
          "type": "bytes32"
        },
        {
          "internalType": "address",
          "name": "account",
          "type": "address"
        }
      ],
      "name": "grantRole",
      "outputs": [],
      "stateMutability": "nonpayable",
      "type": "function"
    },
    {
      "inputs": [
        {
          "internalType": "bytes32",
          "name": "role",
          "type": "bytes32"
        },
        {
          "internalType": "address",
          "name": "account",
          "type": "address"
        }
      ],
      "name": "hasRole",
      "outputs": [
        {
          "internalType": "bool",
          "name": "",
          "type": "bool"
        }
      ],
      "stateMutability": "view",
      "type": "function"
    },
    {
      "inputs": [
        {
          "internalType": "address",
          "name": "strategist_",
          "type": "address"
        },
        {
          "internalType": "address",
          "name": "assetReceiver_",
          "type": "address"
        },
        {
          "internalType": "uint256",
          "name": "withdrawalFees_",
          "type": "uint256"
        }
      ],
      "name": "initialize",
      "outputs": [],
      "stateMutability": "nonpayable",
      "type": "function"
    },
    {
      "inputs": [
        {
          "internalType": "address",
          "name": "owner",
          "type": "address"
        },
        {
          "internalType": "address",
          "name": "operator",
          "type": "address"
        }
      ],
      "name": "isApprovedForAll",
      "outputs": [
        {
          "internalType": "bool",
          "name": "",
          "type": "bool"
        }
      ],
      "stateMutability": "view",
      "type": "function"
    },
    {
      "inputs": [
        {
          "internalType": "address",
          "name": "",
          "type": "address"
        }
      ],
      "name": "maxDeposit",
      "outputs": [
        {
          "internalType": "uint256",
          "name": "",
          "type": "uint256"
        }
      ],
      "stateMutability": "view",
      "type": "function"
    },
    {
      "inputs": [
        {
          "internalType": "address",
          "name": "",
          "type": "address"
        }
      ],
      "name": "maxMint",
      "outputs": [
        {
          "internalType": "uint256",
          "name": "",
          "type": "uint256"
        }
      ],
      "stateMutability": "view",
      "type": "function"
    },
    {
      "inputs": [
        {
          "internalType": "address",
          "name": "",
          "type": "address"
        }
      ],
      "name": "maxRedeem",
      "outputs": [
        {
          "internalType": "uint256",
          "name": "",
          "type": "uint256"
        }
      ],
      "stateMutability": "view",
      "type": "function"
    },
    {
      "inputs": [
        {
          "internalType": "address",
          "name": "",
          "type": "address"
        }
      ],
      "name": "maxWithdraw",
      "outputs": [
        {
          "internalType": "uint256",
          "name": "",
          "type": "uint256"
        }
      ],
      "stateMutability": "view",
      "type": "function"
    },
    {
      "inputs": [
        {
          "internalType": "address",
          "name": "vault",
          "type": "address"
        },
        {
          "internalType": "uint256",
          "name": "shares",
          "type": "uint256"
        },
        {
          "internalType": "uint256",
          "name": "maxAssets",
          "type": "uint256"
        }
      ],
      "name": "mint",
      "outputs": [
        {
          "internalType": "uint256",
          "name": "assets",
          "type": "uint256"
        }
      ],
      "stateMutability": "nonpayable",
      "type": "function"
    },
    {
      "inputs": [
        {
          "internalType": "uint256",
          "name": "tokenId",
          "type": "uint256"
        },
        {
          "internalType": "uint256",
          "name": "shares",
          "type": "uint256"
        }
      ],
      "name": "mint",
      "outputs": [
        {
          "internalType": "uint256",
          "name": "assets",
          "type": "uint256"
        }
      ],
      "stateMutability": "nonpayable",
      "type": "function"
    },
    {
      "inputs": [
        {
          "internalType": "bytes[]",
          "name": "data",
          "type": "bytes[]"
        }
      ],
      "name": "multicall",
      "outputs": [
        {
          "internalType": "bytes[]",
          "name": "results",
          "type": "bytes[]"
        }
      ],
      "stateMutability": "nonpayable",
      "type": "function"
    },
    {
      "inputs": [],
      "name": "multisig",
      "outputs": [
        {
          "internalType": "address",
          "name": "",
          "type": "address"
        }
      ],
      "stateMutability": "view",
      "type": "function"
    },
    {
      "inputs": [],
      "name": "name",
      "outputs": [
        {
          "internalType": "string",
          "name": "",
          "type": "string"
        }
      ],
      "stateMutability": "view",
      "type": "function"
    },
    {
      "inputs": [
        {
          "internalType": "uint256",
          "name": "tokenId",
          "type": "uint256"
        }
      ],
      "name": "ownerOf",
      "outputs": [
        {
          "internalType": "address",
          "name": "",
          "type": "address"
        }
      ],
      "stateMutability": "view",
      "type": "function"
    },
    {
      "inputs": [],
      "name": "pause",
      "outputs": [],
      "stateMutability": "nonpayable",
      "type": "function"
    },
    {
      "inputs": [],
      "name": "paused",
      "outputs": [
        {
          "internalType": "bool",
          "name": "",
          "type": "bool"
        }
      ],
      "stateMutability": "view",
      "type": "function"
    },
    {
      "inputs": [
        {
          "internalType": "uint256",
          "name": "assets",
          "type": "uint256"
        }
      ],
      "name": "previewDeposit",
      "outputs": [
        {
          "internalType": "uint256",
          "name": "",
          "type": "uint256"
        }
      ],
      "stateMutability": "view",
      "type": "function"
    },
    {
      "inputs": [
        {
          "internalType": "uint256",
          "name": "shares",
          "type": "uint256"
        }
      ],
      "name": "previewMint",
      "outputs": [
        {
          "internalType": "uint256",
          "name": "",
          "type": "uint256"
        }
      ],
      "stateMutability": "view",
      "type": "function"
    },
    {
      "inputs": [
        {
          "internalType": "uint256",
          "name": "shares",
          "type": "uint256"
        }
      ],
      "name": "previewRedeem",
      "outputs": [
        {
          "internalType": "uint256",
          "name": "",
          "type": "uint256"
        }
      ],
      "stateMutability": "view",
      "type": "function"
    },
    {
      "inputs": [
        {
          "internalType": "uint256",
          "name": "assets",
          "type": "uint256"
        }
      ],
      "name": "previewWithdraw",
      "outputs": [
        {
          "internalType": "uint256",
          "name": "",
          "type": "uint256"
        }
      ],
      "stateMutability": "view",
      "type": "function"
    },
    {
      "inputs": [],
      "name": "proxiableUUID",
      "outputs": [
        {
          "internalType": "bytes32",
          "name": "",
          "type": "bytes32"
        }
      ],
      "stateMutability": "view",
      "type": "function"
    },
    {
      "inputs": [
        {
          "internalType": "uint256",
          "name": "tokenId",
          "type": "uint256"
        },
        {
          "internalType": "uint256",
          "name": "shares",
          "type": "uint256"
        },
        {
          "internalType": "address",
          "name": "receiver",
          "type": "address"
        }
      ],
      "name": "redeem",
      "outputs": [
        {
          "internalType": "uint256",
          "name": "assets",
          "type": "uint256"
        }
      ],
      "stateMutability": "nonpayable",
      "type": "function"
    },
    {
      "inputs": [
        {
          "internalType": "address",
          "name": "vault",
          "type": "address"
        },
        {
          "internalType": "uint256",
          "name": "shares",
          "type": "uint256"
        },
        {
          "internalType": "uint256",
          "name": "minAssets",
          "type": "uint256"
        }
      ],
      "name": "redeem",
      "outputs": [
        {
          "internalType": "uint256",
          "name": "assets",
          "type": "uint256"
        }
      ],
      "stateMutability": "nonpayable",
      "type": "function"
    },
    {
      "inputs": [
        {
          "internalType": "bytes32",
          "name": "role",
          "type": "bytes32"
        },
        {
          "internalType": "address",
          "name": "account",
          "type": "address"
        }
      ],
      "name": "renounceRole",
      "outputs": [],
      "stateMutability": "nonpayable",
      "type": "function"
    },
    {
      "inputs": [
        {
          "internalType": "bytes32",
          "name": "role",
          "type": "bytes32"
        },
        {
          "internalType": "address",
          "name": "account",
          "type": "address"
        }
      ],
      "name": "revokeRole",
      "outputs": [],
      "stateMutability": "nonpayable",
      "type": "function"
    },
    {
      "inputs": [
        {
          "internalType": "address",
          "name": "from",
          "type": "address"
        },
        {
          "internalType": "address",
          "name": "to",
          "type": "address"
        },
        {
          "internalType": "uint256",
          "name": "tokenId",
          "type": "uint256"
        }
      ],
      "name": "safeTransferFrom",
      "outputs": [],
      "stateMutability": "nonpayable",
      "type": "function"
    },
    {
      "inputs": [
        {
          "internalType": "address",
          "name": "from",
          "type": "address"
        },
        {
          "internalType": "address",
          "name": "to",
          "type": "address"
        },
        {
          "internalType": "uint256",
          "name": "tokenId",
          "type": "uint256"
        },
        {
          "internalType": "bytes",
          "name": "data",
          "type": "bytes"
        }
      ],
      "name": "safeTransferFrom",
      "outputs": [],
      "stateMutability": "nonpayable",
      "type": "function"
    },
    {
      "inputs": [
        {
          "internalType": "address",
          "name": "operator",
          "type": "address"
        },
        {
          "internalType": "bool",
          "name": "approved",
          "type": "bool"
        }
      ],
      "name": "setApprovalForAll",
      "outputs": [],
      "stateMutability": "nonpayable",
      "type": "function"
    },
    {
      "inputs": [
        {
          "internalType": "string",
          "name": "baseUri",
          "type": "string"
        }
      ],
      "name": "setBaseURI",
      "outputs": [],
      "stateMutability": "nonpayable",
      "type": "function"
    },
    {
      "inputs": [
        {
          "internalType": "string",
          "name": "previewUri",
          "type": "string"
        }
      ],
      "name": "setPreviewURI",
      "outputs": [],
      "stateMutability": "nonpayable",
      "type": "function"
    },
    {
      "inputs": [
        {
          "internalType": "bool",
          "name": "verified_",
          "type": "bool"
        }
      ],
      "name": "setVerified",
      "outputs": [],
      "stateMutability": "nonpayable",
      "type": "function"
    },
    {
      "inputs": [
        {
          "internalType": "uint256",
          "name": "withdrawalFees_",
          "type": "uint256"
        }
      ],
      "name": "setWithdrawalFees",
      "outputs": [],
      "stateMutability": "nonpayable",
      "type": "function"
    },
    {
      "inputs": [
        {
          "internalType": "bytes4",
          "name": "interfaceId",
          "type": "bytes4"
        }
      ],
      "name": "supportsInterface",
      "outputs": [
        {
          "internalType": "bool",
          "name": "",
          "type": "bool"
        }
      ],
      "stateMutability": "view",
      "type": "function"
    },
    {
      "inputs": [],
      "name": "symbol",
      "outputs": [
        {
          "internalType": "string",
          "name": "",
          "type": "string"
        }
      ],
      "stateMutability": "view",
      "type": "function"
    },
    {
      "inputs": [
        {
          "internalType": "uint256",
          "name": "",
          "type": "uint256"
        }
      ],
      "name": "tokenShares",
      "outputs": [
        {
          "internalType": "uint256",
          "name": "",
          "type": "uint256"
        }
      ],
      "stateMutability": "view",
      "type": "function"
    },
    {
      "inputs": [
        {
          "internalType": "uint256",
          "name": "tokenId",
          "type": "uint256"
        }
      ],
      "name": "tokenURI",
      "outputs": [
        {
          "internalType": "string",
          "name": "",
          "type": "string"
        }
      ],
      "stateMutability": "view",
      "type": "function"
    },
    {
      "inputs": [],
      "name": "totalAssets",
      "outputs": [
        {
          "internalType": "uint256",
          "name": "",
          "type": "uint256"
        }
      ],
      "stateMutability": "view",
      "type": "function"
    },
    {
      "inputs": [],
      "name": "totalShares",
      "outputs": [
        {
          "internalType": "uint256",
          "name": "",
          "type": "uint256"
        }
      ],
      "stateMutability": "view",
      "type": "function"
    },
    {
      "inputs": [
        {
          "internalType": "address",
          "name": "from",
          "type": "address"
        },
        {
          "internalType": "address",
          "name": "to",
          "type": "address"
        },
        {
          "internalType": "uint256",
          "name": "tokenId",
          "type": "uint256"
        }
      ],
      "name": "transferFrom",
      "outputs": [],
      "stateMutability": "nonpayable",
      "type": "function"
    },
    {
      "inputs": [],
      "name": "unpause",
      "outputs": [],
      "stateMutability": "nonpayable",
      "type": "function"
    },
    {
      "inputs": [
        {
          "internalType": "address",
          "name": "newImplementation",
          "type": "address"
        }
      ],
      "name": "upgradeTo",
      "outputs": [],
      "stateMutability": "nonpayable",
      "type": "function"
    },
    {
      "inputs": [
        {
          "internalType": "address",
          "name": "newImplementation",
          "type": "address"
        },
        {
          "internalType": "bytes",
          "name": "data",
          "type": "bytes"
        }
      ],
      "name": "upgradeToAndCall",
      "outputs": [],
      "stateMutability": "payable",
      "type": "function"
    },
    {
      "inputs": [],
      "name": "verified",
      "outputs": [
        {
          "internalType": "bool",
          "name": "",
          "type": "bool"
        }
      ],
      "stateMutability": "view",
      "type": "function"
    },
    {
      "inputs": [
        {
          "internalType": "uint256",
          "name": "tokenId",
          "type": "uint256"
        },
        {
          "internalType": "uint256",
          "name": "assets",
          "type": "uint256"
        },
        {
          "internalType": "address",
          "name": "receiver",
          "type": "address"
        }
      ],
      "name": "withdraw",
      "outputs": [
        {
          "internalType": "uint256",
          "name": "shares",
          "type": "uint256"
        }
      ],
      "stateMutability": "nonpayable",
      "type": "function"
    },
    {
      "inputs": [
        {
          "internalType": "address",
          "name": "vault",
          "type": "address"
        },
        {
          "internalType": "uint256",
          "name": "assets",
          "type": "uint256"
        },
        {
          "internalType": "uint256",
          "name": "maxShares",
          "type": "uint256"
        }
      ],
      "name": "withdraw",
      "outputs": [
        {
          "internalType": "uint256",
          "name": "shares",
          "type": "uint256"
        }
      ],
      "stateMutability": "nonpayable",
      "type": "function"
    },
    {
      "inputs": [],
      "name": "withdrawalFees",
      "outputs": [
        {
          "internalType": "uint256",
          "name": "",
          "type": "uint256"
        }
      ],
      "stateMutability": "view",
      "type": "function"
    }
  ],
  "transactionHash": "0x997ee50d4f68cfcc95da2737273c51dfa166cc333e7ff0b7948708a6ca3ff1c5",
  "args": [],
  "numDeployments": 1,
  "solcInputHash": "f02d658e8baaed5c9d1d9dc3473cd140",
  "bytecode": "0x60a0604052306080523480156200001557600080fd5b506200002062000026565b620000ee565b60075462010000900460ff1615620000945760405162461bcd60e51b815260206004820152602760248201527f496e697469616c697a61626c653a20636f6e747261637420697320696e697469604482015266616c697a696e6760c81b606482015260840160405180910390fd5b60075460ff61010090910481161015620000ec576007805461ff00191661ff0017905560405160ff81527f7f26b83ff96e1f2b6a682f133852f6798a09c465da95921460cefb38474024989060200160405180910390a15b565b608051614c5162000126600039600081816117e70152818161182701528181611939015281816119790152611a080152614c516000f3fe6080604052600436106103c35760003560e01c806355f804b3116101f2578063ac9650d81161010d578063c87b56dd116100a0578063d905777e1161006f578063d905777e14610b67578063e2bbb15814610b87578063e985e9c514610ba7578063ef8b30f714610ac757600080fd5b8063c87b56dd14610ae7578063ca15c87314610b07578063ce96cb7714610b27578063d547741f14610b4757600080fd5b8063b88d4fde116100dc578063b88d4fde14610a8d578063bbb82d8914610aad578063c63d75b614610742578063c6e6f59214610ac757600080fd5b8063ac9650d8146109f8578063ad5c464814610a25578063b3d7f6b914610a4d578063b5c5f67214610a6d57600080fd5b80639010d07c1161018557806398c4f1ac1161015457806398c4f1ac1461097f578063a217fddf146109a1578063a22cb465146109b6578063a378a324146109d657600080fd5b80639010d07c1461090a57806390498f931461092a57806391d148541461094a57806395d89b411461096a57600080fd5b80636e95cabd116101c15780636e95cabd1461088157806370a08231146108b557806372f10ff4146108d55780638456cb59146108f557600080fd5b806355f804b3146108085780635c975abb146108285780636352211e1461084157806366f890811461086157600080fd5b8063248a9ca3116102e25780633f4ba83a116102755780634cdad506116102445780634cdad506146107aa5780634ee2c4ce146107ca5780634f1ef286146107e057806352d1902d146107f357600080fd5b80633f4ba83a1461072d578063402d267d1461074257806342842e0e146107625780634783c35b1461078257600080fd5b80633659cfe6116102b15780633659cfe6146106a357806338d52e0f146106c35780633a98ef39146106ea5780633ae64e0c1461070057600080fd5b8063248a9ca3146106125780632b83cccd146106435780632f2ff15d1461066357806336568abe1461068357600080fd5b80630ad58d2f1161035a57806317708d611161032957806317708d61146105905780631794bb3c146105b25780631b2ef1ca146105d257806323b872dd146105f257600080fd5b80630ad58d2f146104fc5780630efe6a8b1461051c578063131191611461053c578063156e29f61461057057600080fd5b806307a2d13a1161039657806307a2d13a14610462578063081812fc14610482578063095ea7b3146104ba5780630a28a477146104dc57600080fd5b806301e1d114146103c857806301ffc9a7146103f0578063049104e51461042057806306fdde0314610440575b600080fd5b3480156103d457600080fd5b506103dd610bf0565b6040519081526020015b60405180910390f35b3480156103fc57600080fd5b5061041061040b366004614094565b610da1565b60405190151581526020016103e7565b34801561042c57600080fd5b506103dd61043b3660046140cd565b610db2565b34801561044c57600080fd5b50610455610e73565b6040516103e79190614152565b34801561046e57600080fd5b506103dd61047d366004614165565b610f05565b34801561048e57600080fd5b506104a261049d366004614165565b610f12565b6040516001600160a01b0390911681526020016103e7565b3480156104c657600080fd5b506104da6104d536600461417e565b610f39565b005b3480156104e857600080fd5b506103dd6104f7366004614165565b611053565b34801561050857600080fd5b506103dd6105173660046140cd565b61107d565b34801561052857600080fd5b506103dd6105373660046141a8565b611134565b34801561054857600080fd5b506103dd7f14823911f2da1b49f045a0929a60b8c1f2a7fc8c06c7284ca3e8ab4e193a08c881565b34801561057c57600080fd5b506103dd61058b3660046141a8565b611222565b34801561059c57600080fd5b506103dd600080516020614b7583398151915281565b3480156105be57600080fd5b506104da6105cd3660046141db565b61138a565b3480156105de57600080fd5b506103dd6105ed366004614217565b6115d3565b3480156105fe57600080fd5b506104da61060d3660046141db565b611694565b34801561061e57600080fd5b506103dd61062d366004614165565b6000908152610134602052604090206001015490565b34801561064f57600080fd5b506103dd61065e3660046141a8565b6116c5565b34801561066f57600080fd5b506104da61067e366004614239565b611739565b34801561068f57600080fd5b506104da61069e366004614239565b61175f565b3480156106af57600080fd5b506104da6106be366004614265565b6117dd565b3480156106cf57600080fd5b5073c02aaa39b223fe8d0a0e5c4f27ead9083c756cc26104a2565b3480156106f657600080fd5b506103dd60015481565b34801561070c57600080fd5b506103dd61071b366004614165565b60026020526000908152604090205481565b34801561073957600080fd5b506104da6118bc565b34801561074e57600080fd5b506103dd61075d366004614265565b6118cf565b34801561076e57600080fd5b506104da61077d3660046141db565b6118f2565b34801561078e57600080fd5b506104a2737b15f2b26c25e1815dc4fb8957ce76a0c531958281565b3480156107b657600080fd5b506103dd6107c5366004614165565b61190d565b3480156107d657600080fd5b506103dd60005481565b6104da6107ee36600461432c565b61192f565b3480156107ff57600080fd5b506103dd6119fb565b34801561081457600080fd5b506104da61082336600461437a565b611aae565b34801561083457600080fd5b506101025460ff16610410565b34801561084d57600080fd5b506104a261085c366004614165565b611ad2565b34801561086d57600080fd5b506104da61087c366004614165565b611b32565b34801561088d57600080fd5b506103dd7f419682485a4d899a3e911be267c1b40c528840983eb762a6f384130c1e0930e381565b3480156108c157600080fd5b506103dd6108d0366004614265565b611b65565b3480156108e157600080fd5b506104da6108f03660046143d1565b611beb565b34801561090157600080fd5b506104da611c17565b34801561091657600080fd5b506104a2610925366004614217565b611c2a565b34801561093657600080fd5b506104da61094536600461437a565b611c43565b34801561095657600080fd5b50610410610965366004614239565b611c7e565b34801561097657600080fd5b50610455611caa565b34801561098b57600080fd5b506103dd600080516020614bdc83398151915281565b3480156109ad57600080fd5b506103dd600081565b3480156109c257600080fd5b506104da6109d13660046143ee565b611cb9565b3480156109e257600080fd5b506103dd600080516020614bfc83398151915281565b348015610a0457600080fd5b50610a18610a13366004614425565b611cc4565b6040516103e7919061449a565b348015610a3157600080fd5b506104a273c02aaa39b223fe8d0a0e5c4f27ead9083c756cc281565b348015610a5957600080fd5b506103dd610a68366004614165565b611db9565b348015610a7957600080fd5b506103dd610a883660046141a8565b611dc6565b348015610a9957600080fd5b506104da610aa83660046144fc565b611e9b565b348015610ab957600080fd5b506003546104109060ff1681565b348015610ad357600080fd5b506103dd610ae2366004614165565b611ecd565b348015610af357600080fd5b50610455610b02366004614165565b611eda565b348015610b1357600080fd5b506103dd610b22366004614165565b61205f565b348015610b3357600080fd5b506103dd610b42366004614265565b612077565b348015610b5357600080fd5b506104da610b62366004614239565b612137565b348015610b7357600080fd5b506103dd610b82366004614265565b61215d565b348015610b9357600080fd5b506103dd610ba2366004614217565b612219565b348015610bb357600080fd5b50610410610bc2366004614564565b6001600160a01b03918216600090815260d56020908152604080832093909416825291909152205460ff1690565b60008073c02aaa39b223fe8d0a0e5c4f27ead9083c756cc26040516370a0823160e01b81523060048201526001600160a01b0391909116906370a0823190602401602060405180830381865afa158015610c4e573d6000803e3d6000fd5b505050506040513d601f19601f82011682018060405250810190610c72919061458e565b9050600080610c8e600080516020614bdc83398151915261205f565b905060005b818114610d9857610cb2600080516020614bdc83398151915282611c2a565b6040516370a0823160e01b81523060048201529093506001600160a01b03841690634cdad5069082906370a0823190602401602060405180830381865afa158015610d01573d6000803e3d6000fd5b505050506040513d601f19601f82011682018060405250810190610d25919061458e565b6040518263ffffffff1660e01b8152600401610d4391815260200190565b602060405180830381865afa158015610d60573d6000803e3d6000fd5b505050506040513d601f19601f82011682018060405250810190610d84919061458e565b610d8e90856145bd565b9350600101610c93565b50919392505050565b6000610dac826122cf565b92915050565b6000610dbc6122f4565b610dc461233d565b83600003610de557604051631168860160e01b815260040160405180910390fd5b82600003610e0657604051631168860160e01b815260040160405180910390fd5b6001600160a01b038216610e2d5760405163e6c4247b60e01b815260040160405180910390fd5b610e368361190d565b9050600081610e46856000612398565b610e5091906145d0565b9050610e603386858588866123c7565b50610e6c600161019855565b9392505050565b606060d08054610e82906145e3565b80601f0160208091040260200160405190810160405280929190818152602001828054610eae906145e3565b8015610efb5780601f10610ed057610100808354040283529160200191610efb565b820191906000526020600020905b815481529060010190602001808311610ede57829003601f168201915b5050505050905090565b6000610dac826000612398565b6000610f1d826126d2565b50600090815260d460205260409020546001600160a01b031690565b6000610f4482611ad2565b9050806001600160a01b0316836001600160a01b031603610fb65760405162461bcd60e51b815260206004820152602160248201527f4552433732313a20617070726f76616c20746f2063757272656e74206f776e656044820152603960f91b60648201526084015b60405180910390fd5b336001600160a01b0382161480610fd25750610fd28133610bc2565b6110445760405162461bcd60e51b815260206004820152603d60248201527f4552433732313a20617070726f76652063616c6c6572206973206e6f7420746f60448201527f6b656e206f776e6572206f7220617070726f76656420666f7220616c6c0000006064820152608401610fad565b61104e8383612731565b505050565b6000610dac61107661271060005461271061106e91906145d0565b85919061279f565b600161284e565b60006110876122f4565b61108f61233d565b836000036110b057604051631168860160e01b815260040160405180910390fd5b826000036110d157604051631168860160e01b815260040160405180910390fd5b6001600160a01b0382166110f85760405163e6c4247b60e01b815260040160405180910390fd5b61110183611053565b9050600061112461111385600161284e565b61111d90846145d0565b6000612398565b9050610e603386858786866123c7565b600061113e61233d565b600080516020614bfc83398151915261115681612878565b61116e600080516020614bdc8339815191528661287e565b61118d73c02aaa39b223fe8d0a0e5c4f27ead9083c756cc286866128d7565b604051636e553f6560e01b8152600481018590523060248201526001600160a01b03861690636e553f65906044015b6020604051808303816000875af11580156111db573d6000803e3d6000fd5b505050506040513d601f19601f820116820180604052508101906111ff919061458e565b915081831115610e605760405163428637bb60e11b815260040160405180910390fd5b600061122c61233d565b600080516020614bfc83398151915261124481612878565b61125c600080516020614bdc8339815191528661287e565b60405163b3d7f6b960e01b8152600481018590526000906001600160a01b0387169063b3d7f6b990602401602060405180830381865afa1580156112a4573d6000803e3d6000fd5b505050506040513d601f19601f820116820180604052508101906112c8919061458e565b90506112e973c02aaa39b223fe8d0a0e5c4f27ead9083c756cc287836128d7565b6040516394bf804d60e01b8152600481018690523060248201526001600160a01b038716906394bf804d906044016020604051808303816000875af1158015611336573d6000803e3d6000fd5b505050506040513d601f19601f8201168201806040525081019061135a919061458e565b92508284101561137d5760405163428637bb60e11b815260040160405180910390fd5b5050610e6c600161019855565b60075462010000900460ff16158080156113af5750600754600161010090910460ff16105b806113cf5750303b1580156113cf575060075460ff610100909104166001145b6114325760405162461bcd60e51b815260206004820152602e60248201527f496e697469616c697a61626c653a20636f6e747261637420697320616c72656160448201526d191e481a5b9a5d1a585b1a5e995960921b6064820152608401610fad565b6007805461ff0019166101001790558015611459576007805462ff00001916620100001790555b6001600160a01b0384166114805760405163e6c4247b60e01b815260040160405180910390fd5b6001600160a01b0383166114a75760405163e6c4247b60e01b815260040160405180910390fd5b61271082106114c957604051631168860160e01b815260040160405180910390fd5b6115156040518060400160405280600d81526020016c53706963652046696e616e636560981b81525060405180604001604052806005815260200164535049434560d81b8152506129ab565b6115206000336129dd565b61153f6000737b15f2b26c25e1815dc4fb8957ce76a0c53195826129dd565b611557600080516020614bfc833981519152856129dd565b6115817f419682485a4d899a3e911be267c1b40c528840983eb762a6f384130c1e0930e3846129dd565b600082905580156115cd576007805462ff000019169055604051600181527f7f26b83ff96e1f2b6a682f133852f6798a09c465da95921460cefb38474024989060200160405180910390a15b50505050565b60006115dd6122f4565b6115e561233d565b6115ee82611db9565b90506115fc338483856129e7565b8015611689576040516323b872dd60e01b81523360048201523060248201526044810182905273c02aaa39b223fe8d0a0e5c4f27ead9083c756cc29081906323b872dd906064016020604051808303816000875af1158015611662573d6000803e3d6000fd5b505050506040513d601f19601f82011682018060405250810190611686919061461d565b50505b610dac600161019855565b61169e3382612b5f565b6116ba5760405162461bcd60e51b8152600401610fad9061463a565b61104e838383612bdd565b60006116cf61233d565b600080516020614bfc8339815191526116e781612878565b6116ff600080516020614bdc8339815191528661287e565b604051635d043b2960e11b815260048101859052306024820181905260448201526001600160a01b0386169063ba087652906064016111bc565b6000828152610134602052604090206001015461175581612878565b61104e8383612d41565b6001600160a01b03811633146117cf5760405162461bcd60e51b815260206004820152602f60248201527f416363657373436f6e74726f6c3a2063616e206f6e6c792072656e6f756e636560448201526e103937b632b9903337b91039b2b63360891b6064820152608401610fad565b6117d98282612d64565b5050565b6001600160a01b037f00000000000000000000000000000000000000000000000000000000000000001630036118255760405162461bcd60e51b8152600401610fad90614687565b7f00000000000000000000000000000000000000000000000000000000000000006001600160a01b031661186e600080516020614b95833981519152546001600160a01b031690565b6001600160a01b0316146118945760405162461bcd60e51b8152600401610fad906146d3565b61189d81612d87565b604080516000808252602082019092526118b991839190612d92565b50565b60006118c781612878565b6118b9612efd565b60006118de6101025460ff1690565b6118ea57600019610dac565b600092915050565b61104e83838360405180602001604052806000815250611e9b565b6000610dac61111d60005461271061192591906145d0565b849061271061279f565b6001600160a01b037f00000000000000000000000000000000000000000000000000000000000000001630036119775760405162461bcd60e51b8152600401610fad90614687565b7f00000000000000000000000000000000000000000000000000000000000000006001600160a01b03166119c0600080516020614b95833981519152546001600160a01b031690565b6001600160a01b0316146119e65760405162461bcd60e51b8152600401610fad906146d3565b6119ef82612d87565b6117d982826001612d92565b6000306001600160a01b037f00000000000000000000000000000000000000000000000000000000000000001614611a9b5760405162461bcd60e51b815260206004820152603860248201527f555550535570677261646561626c653a206d757374206e6f742062652063616c60448201527f6c6564207468726f7567682064656c656761746563616c6c00000000000000006064820152608401610fad565b50600080516020614b9583398151915290565b6000611ab981612878565b6007805460ff19166001179055600661104e838261476d565b600081815260d260205260408120546001600160a01b031680610dac5760405162461bcd60e51b8152602060048201526018602482015277115490cdcc8c4e881a5b9d985b1a59081d1bdad95b88125160421b6044820152606401610fad565b6000611b3d81612878565b6127108210611b5f57604051631168860160e01b815260040160405180910390fd5b50600055565b60006001600160a01b038216611bcf5760405162461bcd60e51b815260206004820152602960248201527f4552433732313a2061646472657373207a65726f206973206e6f7420612076616044820152683634b21037bbb732b960b91b6064820152608401610fad565b506001600160a01b0316600090815260d3602052604090205490565b600080516020614b75833981519152611c0381612878565b506003805460ff1916911515919091179055565b6000611c2281612878565b6118b9612f50565b600082815261016660205260408120610e6c9083612f8e565b6000611c4e81612878565b60075460ff1615611c7257604051633ea9219f60e21b815260040160405180910390fd5b600561104e838261476d565b6000918252610134602090815260408084206001600160a01b0393909316845291905290205460ff1690565b606060d18054610e82906145e3565b6117d9338383612f9a565b60608167ffffffffffffffff811115611cdf57611cdf614280565b604051908082528060200260200182016040528015611d1257816020015b6060815260200190600190039081611cfd5790505b50905060005b82811015611db257611d8230858584818110611d3657611d3661482d565b9050602002810190611d489190614843565b8080601f01602080910402602001604051908101604052809392919081815260200183838082843760009201919091525061306892505050565b828281518110611d9457611d9461482d565b60200260200101819052508080611daa90614891565b915050611d18565b5092915050565b6000610dac826001612398565b6000611dd061233d565b600080516020614bfc833981519152611de881612878565b611e00600080516020614bdc8339815191528661287e565b604051632d182be560e21b815260048101859052306024820181905260448201526001600160a01b0386169063b460af94906064016020604051808303816000875af1158015611e54573d6000803e3d6000fd5b505050506040513d601f19601f82011682018060405250810190611e78919061458e565b915081831015610e605760405163428637bb60e11b815260040160405180910390fd5b611ea53383612b5f565b611ec15760405162461bcd60e51b8152600401610fad9061463a565b6115cd8484848461308d565b6000610dac82600061284e565b6060611ee5826126d2565b60075460ff16611f815760058054611efc906145e3565b80601f0160208091040260200160405190810160405280929190818152602001828054611f28906145e3565b8015611f755780601f10611f4a57610100808354040283529160200191611f75565b820191906000526020600020905b815481529060010190602001808311611f5857829003601f168201915b50505050509050919050565b600060068054611f90906145e3565b80601f0160208091040260200160405190810160405280929190818152602001828054611fbc906145e3565b80156120095780601f10611fde57610100808354040283529160200191612009565b820191906000526020600020905b815481529060010190602001808311611fec57829003601f168201915b50505050509050600081511161202e5760405180602001604052806000815250610e6c565b80612038846130c0565b6040516020016120499291906148aa565b6040516020818303038152906040529392505050565b600081815261016660205260408120610dac90613153565b60008073c02aaa39b223fe8d0a0e5c4f27ead9083c756cc26040516370a0823160e01b81523060048201526001600160a01b0391909116906370a0823190602401602060405180830381865afa1580156120d5573d6000803e3d6000fd5b505050506040513d601f19601f820116820180604052508101906120f9919061458e565b90506121086101025460ff1690565b61212e5761212960005461271061211f91906145d0565b829061271061279f565b610e6c565b60009392505050565b6000828152610134602052604090206001015461215381612878565b61104e8383612d64565b60008073c02aaa39b223fe8d0a0e5c4f27ead9083c756cc26040516370a0823160e01b81523060048201526001600160a01b0391909116906370a0823190602401602060405180830381865afa1580156121bb573d6000803e3d6000fd5b505050506040513d601f19601f820116820180604052508101906121df919061458e565b90506121ee6101025460ff1690565b61212e5761212961221260005461271061220891906145d0565b839061271061279f565b600061284e565b60006122236122f4565b61222b61233d565b61223482611ecd565b905081156122c3576040516323b872dd60e01b81523360048201523060248201526044810183905273c02aaa39b223fe8d0a0e5c4f27ead9083c756cc29081906323b872dd906064016020604051808303816000875af115801561229c573d6000803e3d6000fd5b505050506040513d601f19601f820116820180604052508101906122c0919061461d565b50505b611689338484846129e7565b60006001600160e01b03198216635a05180f60e01b1480610dac5750610dac8261315d565b6101025460ff161561233b5760405162461bcd60e51b815260206004820152601060248201526f14185d5cd8589b194e881c185d5cd95960821b6044820152606401610fad565b565b600261019854036123905760405162461bcd60e51b815260206004820152601f60248201527f5265656e7472616e637947756172643a207265656e7472616e742063616c6c006044820152606401610fad565b600261019855565b60015460009080156123bd576123b86123af610bf0565b85908386613182565b6123bf565b835b949350505050565b60075460ff166123ea5760405163e2347d9b60e01b815260040160405180910390fd5b856001600160a01b03166123fd86611ad2565b6001600160a01b031614612424576040516307ed98ed60e31b815260040160405180910390fd5b6000858152600260205260409020548211156124535760405163af4e51c760e01b815260040160405180910390fd5b816001600082825461246591906145d0565b9091555050600085815260026020526040812080548492906124889084906145d0565b90915550600090506124ba7f419682485a4d899a3e911be267c1b40c528840983eb762a6f384130c1e0930e382611c2a565b905060006124d7600080516020614b758339815191526000611c2a565b905060006124e68460026131df565b60405163a9059cbb60e01b81526001600160a01b03851660048201526024810182905290915073c02aaa39b223fe8d0a0e5c4f27ead9083c756cc290819063a9059cbb906044016020604051808303816000875af115801561254c573d6000803e3d6000fd5b505050506040513d601f19601f82011682018060405250810190612570919061461d565b506001600160a01b03811663a9059cbb8461258b88866131eb565b6040516001600160e01b031960e085901b1681526001600160a01b03909216600483015260248201526044016020604051808303816000875af11580156125d6573d6000803e3d6000fd5b505050506040513d601f19601f820116820180604052508101906125fa919061461d565b5060405163a9059cbb60e01b81526001600160a01b0389811660048301526024820189905282169063a9059cbb906044016020604051808303816000875af115801561264a573d6000803e3d6000fd5b505050506040513d601f19601f8201168201806040525081019061266e919061461d565b50876001600160a01b0316898b6001600160a01b03167f48e958c7a7678cf4af1429f561cd67752f1b42f215b49a96076b0dc3a12037f08a8a6040516126be929190918252602082015260400190565b60405180910390a450505050505050505050565b600081815260d260205260409020546001600160a01b03166118b95760405162461bcd60e51b8152602060048201526018602482015277115490cdcc8c4e881a5b9d985b1a59081d1bdad95b88125160421b6044820152606401610fad565b600081815260d46020526040902080546001600160a01b0319166001600160a01b038416908117909155819061276682611ad2565b6001600160a01b03167f8c5be1e5ebec7d5bd14f71427d1e84f3dd0314c0f7b2291e5b200ac8c7c3b92560405160405180910390a45050565b60008080600019858709858702925082811083820303915050806000036127d9578382816127cf576127cf6148d9565b0492505050610e6c565b8084116127e557600080fd5b60008486880960026001871981018816978890046003810283188082028403028082028403028082028403028082028403028082028403029081029092039091026000889003889004909101858311909403939093029303949094049190911702949350505050565b60015460009083158061285f575080155b6123bd576123b88161286f610bf0565b86919086613182565b6118b981335b6128888282611c7e565b6117d957612895816131f7565b6128a0836020613209565b6040516020016128b19291906148ef565b60408051601f198184030181529082905262461bcd60e51b8252610fad91600401614152565b604051636eb1769f60e11b81523060048201526001600160a01b038381166024830152600091839186169063dd62ed3e90604401602060405180830381865afa158015612928573d6000803e3d6000fd5b505050506040513d601f19601f8201168201806040525081019061294c919061458e565b61295691906145bd565b604080516001600160a01b038616602482015260448082018490528251808303909101815260649091019091526020810180516001600160e01b031663095ea7b360e01b1790529091506115cd9085906133a5565b60075462010000900460ff166129d35760405162461bcd60e51b8152600401610fad90614964565b6117d98282613477565b6117d98282612d41565b612a107f14823911f2da1b49f045a0929a60b8c1f2a7fc8c06c7284ca3e8ab4e193a08c861205f565b1580612a415750612a417f14823911f2da1b49f045a0929a60b8c1f2a7fc8c06c7284ca3e8ab4e193a08c885611c7e565b612a855760405162461bcd60e51b815260206004820152601560248201527418d85b1b195c881a5cc81b9bdd08195b98589b1959605a1b6044820152606401610fad565b82600003612a9d57612a96846134b8565b9250612ad7565b836001600160a01b0316612ab084611ad2565b6001600160a01b031614612ad7576040516307ed98ed60e31b815260040160405180910390fd5b60008381526002602052604081208054839290612af59084906145bd565b925050819055508060016000828254612b0e91906145bd565b9091555050604080518381526020810183905284916001600160a01b038716917f36af321ec8d3c75236829c5317affd40ddb308863a1236d2d277a4025cccee1e910160405180910390a350505050565b600080612b6b83611ad2565b9050806001600160a01b0316846001600160a01b03161480612bb257506001600160a01b03808216600090815260d5602090815260408083209388168352929052205460ff165b806123bf5750836001600160a01b0316612bcb84610f12565b6001600160a01b031614949350505050565b826001600160a01b0316612bf082611ad2565b6001600160a01b031614612c165760405162461bcd60e51b8152600401610fad906149af565b6001600160a01b038216612c785760405162461bcd60e51b8152602060048201526024808201527f4552433732313a207472616e7366657220746f20746865207a65726f206164646044820152637265737360e01b6064820152608401610fad565b826001600160a01b0316612c8b82611ad2565b6001600160a01b031614612cb15760405162461bcd60e51b8152600401610fad906149af565b600081815260d46020908152604080832080546001600160a01b03199081169091556001600160a01b0387811680865260d3855283862080546000190190559087168086528386208054600101905586865260d290945282852080549092168417909155905184937fddf252ad1be2c89b69c2b068fc378daa952ba7f163c4a11628f55a4df523b3ef91a4505050565b612d4b82826135d8565b60008281526101666020526040902061104e908261365f565b612d6e8282613674565b60008281526101666020526040902061104e90826136dc565b60006117d981612878565b7f4910fdfa16fed3260ed0e7147f7cc6da11a60208b5b9406d12a635614ffd91435460ff1615612dc55761104e836136f1565b826001600160a01b03166352d1902d6040518163ffffffff1660e01b8152600401602060405180830381865afa925050508015612e1f575060408051601f3d908101601f19168201909252612e1c9181019061458e565b60015b612e825760405162461bcd60e51b815260206004820152602e60248201527f45524331393637557067726164653a206e657720696d706c656d656e7461746960448201526d6f6e206973206e6f74205555505360901b6064820152608401610fad565b600080516020614b958339815191528114612ef15760405162461bcd60e51b815260206004820152602960248201527f45524331393637557067726164653a20756e737570706f727465642070726f786044820152681a58589b195555525160ba1b6064820152608401610fad565b5061104e83838361378d565b612f056137b2565b610102805460ff191690557f5db9ee0a495bf2e6ff9c91a7834c1ba4fdd244a5e8aa4e537bd38aeae4b073aa335b6040516001600160a01b03909116815260200160405180910390a1565b612f586122f4565b610102805460ff191660011790557f62e78cea01bee320cd4e420270b5ea74000d11b0c9f74754ebdbfc544b05a258612f333390565b6000610e6c83836137fc565b816001600160a01b0316836001600160a01b031603612ffb5760405162461bcd60e51b815260206004820152601960248201527f4552433732313a20617070726f766520746f2063616c6c6572000000000000006044820152606401610fad565b6001600160a01b03838116600081815260d56020908152604080832094871680845294825291829020805460ff191686151590811790915591519182527f17307eab39ab6107e8899845ad3d59bd9653f200f220920489ca2b5937696c31910160405180910390a3505050565b6060610e6c8383604051806060016040528060278152602001614bb560279139613826565b613098848484612bdd565b6130a4848484846138c4565b6115cd5760405162461bcd60e51b8152600401610fad906149f4565b606060006130cd836139c2565b600101905060008167ffffffffffffffff8111156130ed576130ed614280565b6040519080825280601f01601f191660200182016040528015613117576020820181803683370190505b5090508181016020015b600019016f181899199a1a9b1b9c1cb0b131b232b360811b600a86061a8153600a850494508461312157509392505050565b6000610dac825490565b60006001600160e01b03198216637965db0b60e01b1480610dac5750610dac82613a9a565b60008061319086868661279f565b905060018360028111156131a6576131a6614a46565b1480156131c35750600084806131be576131be6148d9565b868809115b156131d6576131d36001826145bd565b90505b95945050505050565b6000610e6c8284614a5c565b6000610e6c82846145d0565b6060610dac6001600160a01b03831660145b60606000613218836002614a7e565b6132239060026145bd565b67ffffffffffffffff81111561323b5761323b614280565b6040519080825280601f01601f191660200182016040528015613265576020820181803683370190505b509050600360fc1b816000815181106132805761328061482d565b60200101906001600160f81b031916908160001a905350600f60fb1b816001815181106132af576132af61482d565b60200101906001600160f81b031916908160001a90535060006132d3846002614a7e565b6132de9060016145bd565b90505b6001811115613356576f181899199a1a9b1b9c1cb0b131b232b360811b85600f16601081106133125761331261482d565b1a60f81b8282815181106133285761332861482d565b60200101906001600160f81b031916908160001a90535060049490941c9361334f81614a95565b90506132e1565b508315610e6c5760405162461bcd60e51b815260206004820181905260248201527f537472696e67733a20686578206c656e67746820696e73756666696369656e746044820152606401610fad565b60006133fa826040518060400160405280602081526020017f5361666545524332303a206c6f772d6c6576656c2063616c6c206661696c6564815250856001600160a01b0316613aea9092919063ffffffff16565b80519091501561104e5780806020019051810190613418919061461d565b61104e5760405162461bcd60e51b815260206004820152602a60248201527f5361666545524332303a204552433230206f7065726174696f6e20646964206e6044820152691bdd081cdd58d8d9595960b21b6064820152608401610fad565b60075462010000900460ff1661349f5760405162461bcd60e51b8152600401610fad90614964565b60d06134ab838261476d565b5060d161104e828261476d565b6000806134c483611b65565b11156134e357604051634d092e5f60e01b815260040160405180910390fd5b61022b60045403613507576040516309b741cf60e41b815260040160405180910390fd5b50600480546001019081905573c02aaa39b223fe8d0a0e5c4f27ead9083c756cc26000613542600080516020614b7583398151915282611c2a565b6040516323b872dd60e01b81523360048201526001600160a01b03808316602483015267011c37937e0800006044830152919250908316906323b872dd906064016020604051808303816000875af11580156135a2573d6000803e3d6000fd5b505050506040513d601f19601f820116820180604052508101906135c6919061461d565b506135d18484613af9565b5050919050565b6135e28282611c7e565b6117d9576000828152610134602090815260408083206001600160a01b03851684529091529020805460ff1916600117905561361b3390565b6001600160a01b0316816001600160a01b0316837f2f8788117e7eff1d82e926ec794901d17c78024a50270940304540a733656f0d60405160405180910390a45050565b6000610e6c836001600160a01b038416613c84565b61367e8282611c7e565b156117d9576000828152610134602090815260408083206001600160a01b0385168085529252808320805460ff1916905551339285917ff6391f5c32d9c69d2a47ea670b442974b53935d1edc7fd64eb21e047a839171b9190a45050565b6000610e6c836001600160a01b038416613cd3565b6001600160a01b0381163b61375e5760405162461bcd60e51b815260206004820152602d60248201527f455243313936373a206e657720696d706c656d656e746174696f6e206973206e60448201526c1bdd08184818dbdb9d1c9858dd609a1b6064820152608401610fad565b600080516020614b9583398151915280546001600160a01b0319166001600160a01b0392909216919091179055565b61379683613dc6565b6000825111806137a35750805b1561104e576115cd8383613e06565b6101025460ff1661233b5760405162461bcd60e51b815260206004820152601460248201527314185d5cd8589b194e881b9bdd081c185d5cd95960621b6044820152606401610fad565b60008260000182815481106138135761381361482d565b9060005260206000200154905092915050565b60606001600160a01b0384163b61384f5760405162461bcd60e51b8152600401610fad90614aac565b600080856001600160a01b03168560405161386a9190614af2565b600060405180830381855af49150503d80600081146138a5576040519150601f19603f3d011682016040523d82523d6000602084013e6138aa565b606091505b50915091506138ba828286613eb2565b9695505050505050565b60006001600160a01b0384163b156139ba57604051630a85bd0160e11b81526001600160a01b0385169063150b7a0290613908903390899088908890600401614b0e565b6020604051808303816000875af1925050508015613943575060408051601f3d908101601f1916820190925261394091810190614b41565b60015b6139a0573d808015613971576040519150601f19603f3d011682016040523d82523d6000602084013e613976565b606091505b5080516000036139985760405162461bcd60e51b8152600401610fad906149f4565b805181602001fd5b6001600160e01b031916630a85bd0160e11b1490506123bf565b5060016123bf565b60008072184f03e93ff9f4daa797ed6e38ed64bf6a1f0160401b8310613a015772184f03e93ff9f4daa797ed6e38ed64bf6a1f0160401b830492506040015b6d04ee2d6d415b85acef81000000008310613a2d576d04ee2d6d415b85acef8100000000830492506020015b662386f26fc100008310613a4b57662386f26fc10000830492506010015b6305f5e1008310613a63576305f5e100830492506008015b6127108310613a7757612710830492506004015b60648310613a89576064830492506002015b600a8310610dac5760010192915050565b60006001600160e01b031982166380ac58cd60e01b1480613acb57506001600160e01b03198216635b5e139f60e01b145b80610dac57506301ffc9a760e01b6001600160e01b0319831614610dac565b60606123bf8484600085613eeb565b6001600160a01b038216613b4f5760405162461bcd60e51b815260206004820181905260248201527f4552433732313a206d696e7420746f20746865207a65726f20616464726573736044820152606401610fad565b600081815260d260205260409020546001600160a01b031615613bb45760405162461bcd60e51b815260206004820152601c60248201527f4552433732313a20746f6b656e20616c7265616479206d696e746564000000006044820152606401610fad565b600081815260d260205260409020546001600160a01b031615613c195760405162461bcd60e51b815260206004820152601c60248201527f4552433732313a20746f6b656e20616c7265616479206d696e746564000000006044820152606401610fad565b6001600160a01b038216600081815260d3602090815260408083208054600101905584835260d290915280822080546001600160a01b0319168417905551839291907fddf252ad1be2c89b69c2b068fc378daa952ba7f163c4a11628f55a4df523b3ef908290a45050565b6000818152600183016020526040812054613ccb57508154600181810184556000848152602080822090930184905584548482528286019093526040902091909155610dac565b506000610dac565b60008181526001830160205260408120548015613dbc576000613cf76001836145d0565b8554909150600090613d0b906001906145d0565b9050818114613d70576000866000018281548110613d2b57613d2b61482d565b9060005260206000200154905080876000018481548110613d4e57613d4e61482d565b6000918252602080832090910192909255918252600188019052604090208390555b8554869080613d8157613d81614b5e565b600190038181906000526020600020016000905590558560010160008681526020019081526020016000206000905560019350505050610dac565b6000915050610dac565b613dcf816136f1565b6040516001600160a01b038216907fbc7cd75a20ee27fd9adebab32041f755214dbc6bffa90cc0225b39da2e5c2d3b90600090a250565b60606001600160a01b0383163b613e2f5760405162461bcd60e51b8152600401610fad90614aac565b600080846001600160a01b031684604051613e4a9190614af2565b600060405180830381855af49150503d8060008114613e85576040519150601f19603f3d011682016040523d82523d6000602084013e613e8a565b606091505b50915091506131d68282604051806060016040528060278152602001614bb560279139613fc6565b60608315613ec1575081610e6c565b825115613ed15782518084602001fd5b8160405162461bcd60e51b8152600401610fad9190614152565b606082471015613f4c5760405162461bcd60e51b815260206004820152602660248201527f416464726573733a20696e73756666696369656e742062616c616e636520666f6044820152651c8818d85b1b60d21b6064820152608401610fad565b600080866001600160a01b03168587604051613f689190614af2565b60006040518083038185875af1925050503d8060008114613fa5576040519150601f19603f3d011682016040523d82523d6000602084013e613faa565b606091505b5091509150613fbb87838387613fdf565b979650505050505050565b60608315613fd5575081610e6c565b610e6c8383614054565b6060831561404e578251600003614047576001600160a01b0385163b6140475760405162461bcd60e51b815260206004820152601d60248201527f416464726573733a2063616c6c20746f206e6f6e2d636f6e74726163740000006044820152606401610fad565b50816123bf565b6123bf83835b8151156140645781518083602001fd5b8060405162461bcd60e51b8152600401610fad9190614152565b6001600160e01b0319811681146118b957600080fd5b6000602082840312156140a657600080fd5b8135610e6c8161407e565b80356001600160a01b03811681146140c857600080fd5b919050565b6000806000606084860312156140e257600080fd5b83359250602084013591506140f9604085016140b1565b90509250925092565b60005b8381101561411d578181015183820152602001614105565b50506000910152565b6000815180845261413e816020860160208601614102565b601f01601f19169290920160200192915050565b602081526000610e6c6020830184614126565b60006020828403121561417757600080fd5b5035919050565b6000806040838503121561419157600080fd5b61419a836140b1565b946020939093013593505050565b6000806000606084860312156141bd57600080fd5b6141c6846140b1565b95602085013595506040909401359392505050565b6000806000606084860312156141f057600080fd5b6141f9846140b1565b9250614207602085016140b1565b9150604084013590509250925092565b6000806040838503121561422a57600080fd5b50508035926020909101359150565b6000806040838503121561424c57600080fd5b8235915061425c602084016140b1565b90509250929050565b60006020828403121561427757600080fd5b610e6c826140b1565b634e487b7160e01b600052604160045260246000fd5b600067ffffffffffffffff808411156142b1576142b1614280565b604051601f8501601f19908116603f011681019082821181831017156142d9576142d9614280565b816040528093508581528686860111156142f257600080fd5b858560208301376000602087830101525050509392505050565b600082601f83011261431d57600080fd5b610e6c83833560208501614296565b6000806040838503121561433f57600080fd5b614348836140b1565b9150602083013567ffffffffffffffff81111561436457600080fd5b6143708582860161430c565b9150509250929050565b60006020828403121561438c57600080fd5b813567ffffffffffffffff8111156143a357600080fd5b8201601f810184136143b457600080fd5b6123bf84823560208401614296565b80151581146118b957600080fd5b6000602082840312156143e357600080fd5b8135610e6c816143c3565b6000806040838503121561440157600080fd5b61440a836140b1565b9150602083013561441a816143c3565b809150509250929050565b6000806020838503121561443857600080fd5b823567ffffffffffffffff8082111561445057600080fd5b818501915085601f83011261446457600080fd5b81358181111561447357600080fd5b8660208260051b850101111561448857600080fd5b60209290920196919550909350505050565b6000602080830181845280855180835260408601915060408160051b870101925083870160005b828110156144ef57603f198886030184526144dd858351614126565b945092850192908501906001016144c1565b5092979650505050505050565b6000806000806080858703121561451257600080fd5b61451b856140b1565b9350614529602086016140b1565b925060408501359150606085013567ffffffffffffffff81111561454c57600080fd5b6145588782880161430c565b91505092959194509250565b6000806040838503121561457757600080fd5b614580836140b1565b915061425c602084016140b1565b6000602082840312156145a057600080fd5b5051919050565b634e487b7160e01b600052601160045260246000fd5b80820180821115610dac57610dac6145a7565b81810381811115610dac57610dac6145a7565b600181811c908216806145f757607f821691505b60208210810361461757634e487b7160e01b600052602260045260246000fd5b50919050565b60006020828403121561462f57600080fd5b8151610e6c816143c3565b6020808252602d908201527f4552433732313a2063616c6c6572206973206e6f7420746f6b656e206f776e6560408201526c1c881bdc88185c1c1c9bdd9959609a1b606082015260800190565b6020808252602c908201527f46756e6374696f6e206d7573742062652063616c6c6564207468726f7567682060408201526b19195b1959d85d1958d85b1b60a21b606082015260800190565b6020808252602c908201527f46756e6374696f6e206d7573742062652063616c6c6564207468726f7567682060408201526b6163746976652070726f787960a01b606082015260800190565b601f82111561104e57600081815260208120601f850160051c810160208610156147465750805b601f850160051c820191505b8181101561476557828155600101614752565b505050505050565b815167ffffffffffffffff81111561478757614787614280565b61479b8161479584546145e3565b8461471f565b602080601f8311600181146147d057600084156147b85750858301515b600019600386901b1c1916600185901b178555614765565b600085815260208120601f198616915b828110156147ff578886015182559484019460019091019084016147e0565b508582101561481d5787850151600019600388901b60f8161c191681555b5050505050600190811b01905550565b634e487b7160e01b600052603260045260246000fd5b6000808335601e1984360301811261485a57600080fd5b83018035915067ffffffffffffffff82111561487557600080fd5b60200191503681900382131561488a57600080fd5b9250929050565b6000600182016148a3576148a36145a7565b5060010190565b600083516148bc818460208801614102565b8351908301906148d0818360208801614102565b01949350505050565b634e487b7160e01b600052601260045260246000fd5b7f416363657373436f6e74726f6c3a206163636f756e7420000000000000000000815260008351614927816017850160208801614102565b7001034b99036b4b9b9b4b733903937b6329607d1b6017918401918201528351614958816028840160208801614102565b01602801949350505050565b6020808252602b908201527f496e697469616c697a61626c653a20636f6e7472616374206973206e6f74206960408201526a6e697469616c697a696e6760a81b606082015260800190565b60208082526025908201527f4552433732313a207472616e736665722066726f6d20696e636f72726563742060408201526437bbb732b960d91b606082015260800190565b60208082526032908201527f4552433732313a207472616e7366657220746f206e6f6e20455243373231526560408201527131b2b4bb32b91034b6b83632b6b2b73a32b960711b606082015260800190565b634e487b7160e01b600052602160045260246000fd5b600082614a7957634e487b7160e01b600052601260045260246000fd5b500490565b8082028115828204841417610dac57610dac6145a7565b600081614aa457614aa46145a7565b506000190190565b60208082526026908201527f416464726573733a2064656c65676174652063616c6c20746f206e6f6e2d636f6040820152651b9d1c9858dd60d21b606082015260800190565b60008251614b04818460208701614102565b9190910192915050565b6001600160a01b03858116825284166020820152604081018390526080606082018190526000906138ba90830184614126565b600060208284031215614b5357600080fd5b8151610e6c8161407e565b634e487b7160e01b600052603160045260246000fdfe28bfb62eeff3c4bcd95c015fee311b2dabccad8f4fd94a4797d13fcb401b2621360894a13ba1a3210667c828492db98dca3e2076cc3735a920a3ca505d382bbc416464726573733a206c6f772d6c6576656c2064656c65676174652063616c6c206661696c656431e0210044b4f6757ce6aa31f9c6e8d4896d24a755014887391a926c5224d95917a8e30262c1f919c33056d877a3c22b95c2f5e4dac44683c1c2323cd79fbdb0a264697066735822122033acd86aa1cfb066d0b003953efe3972ff99ac54d61d13f4840f8781a4f5e5c264736f6c63430008110033",
  "devdoc": {
    "author": "Spice Finance Inc",
    "kind": "dev",
    "methods": {
      "approve(address,uint256)": {
        "details": "See {IERC721-approve}."
      },
      "balanceOf(address)": {
        "details": "See {IERC721-balanceOf}."
      },
      "constructor": {
        "custom:oz-upgrades-unsafe-allow": "constructor"
      },
      "getApproved(uint256)": {
        "details": "See {IERC721-getApproved}."
      },
      "getRoleAdmin(bytes32)": {
        "details": "Returns the admin role that controls `role`. See {grantRole} and {revokeRole}. To change a role's admin, use {_setRoleAdmin}."
      },
      "getRoleMember(bytes32,uint256)": {
        "details": "Returns one of the accounts that have `role`. `index` must be a value between 0 and {getRoleMemberCount}, non-inclusive. Role bearers are not sorted in any particular way, and their ordering may change at any point. WARNING: When using {getRoleMember} and {getRoleMemberCount}, make sure you perform all queries on the same block. See the following https://forum.openzeppelin.com/t/iterating-over-elements-on-enumerableset-in-openzeppelin-contracts/2296[forum post] for more information."
      },
      "getRoleMemberCount(bytes32)": {
        "details": "Returns the number of accounts that have `role`. Can be used together with {getRoleMember} to enumerate all bearers of a role."
      },
      "grantRole(bytes32,address)": {
        "details": "Grants `role` to `account`. If `account` had not been already granted `role`, emits a {RoleGranted} event. Requirements: - the caller must have ``role``'s admin role. May emit a {RoleGranted} event."
      },
      "hasRole(bytes32,address)": {
        "details": "Returns `true` if `account` has been granted `role`."
      },
      "initialize(address,address,uint256)": {
        "params": {
          "assetReceiver_": "Default asset receiver address",
          "strategist_": "Default strategist address",
          "withdrawalFees_": "Default withdrawal fees"
        }
      },
      "isApprovedForAll(address,address)": {
        "details": "See {IERC721-isApprovedForAll}."
      },
      "multicall(bytes[])": {
        "details": "Receives and executes a batch of function calls on this contract."
      },
      "name()": {
        "details": "See {IERC721Metadata-name}."
      },
      "ownerOf(uint256)": {
        "details": "See {IERC721-ownerOf}."
      },
      "paused()": {
        "details": "Returns true if the contract is paused, and false otherwise."
      },
      "proxiableUUID()": {
        "details": "Implementation of the ERC1822 {proxiableUUID} function. This returns the storage slot used by the implementation. It is used to validate the implementation's compatibility when performing an upgrade. IMPORTANT: A proxy pointing at a proxiable contract should not be considered proxiable itself, because this risks bricking a proxy that upgrades to it, by delegating to itself until out of gas. Thus it is critical that this function revert if invoked through a proxy. This is guaranteed by the `notDelegated` modifier."
      },
      "renounceRole(bytes32,address)": {
        "details": "Revokes `role` from the calling account. Roles are often managed via {grantRole} and {revokeRole}: this function's purpose is to provide a mechanism for accounts to lose their privileges if they are compromised (such as when a trusted device is misplaced). If the calling account had been revoked `role`, emits a {RoleRevoked} event. Requirements: - the caller must be `account`. May emit a {RoleRevoked} event."
      },
      "revokeRole(bytes32,address)": {
        "details": "Revokes `role` from `account`. If `account` had been granted `role`, emits a {RoleRevoked} event. Requirements: - the caller must have ``role``'s admin role. May emit a {RoleRevoked} event."
      },
      "safeTransferFrom(address,address,uint256)": {
        "details": "See {IERC721-safeTransferFrom}."
      },
      "safeTransferFrom(address,address,uint256,bytes)": {
        "details": "See {IERC721-safeTransferFrom}."
      },
      "setApprovalForAll(address,bool)": {
        "details": "See {IERC721-setApprovalForAll}."
      },
      "setBaseURI(string)": {
        "params": {
          "baseUri": "Metadata base uri"
        }
      },
      "setPreviewURI(string)": {
        "params": {
          "previewUri": "New preview uri"
        }
      },
      "setVerified(bool)": {
        "params": {
          "verified_": "new verified value"
        }
      },
      "setWithdrawalFees(uint256)": {
        "params": {
          "withdrawalFees_": "withdrawal fees"
        }
      },
      "symbol()": {
        "details": "See {IERC721Metadata-symbol}."
      },
      "transferFrom(address,address,uint256)": {
        "details": "See {IERC721-transferFrom}."
      },
      "upgradeTo(address)": {
        "details": "Upgrade the implementation of the proxy to `newImplementation`. Calls {_authorizeUpgrade}. Emits an {Upgraded} event."
      },
      "upgradeToAndCall(address,bytes)": {
        "details": "Upgrade the implementation of the proxy to `newImplementation`, and subsequently execute the function call encoded in `data`. Calls {_authorizeUpgrade}. Emits an {Upgraded} event."
      }
    },
    "title": "SpiceFiNFT4626",
    "version": 1
  },
  "userdoc": {
    "errors": {
      "InsufficientShareBalance()": [
        {
          "notice": "Insufficient share balance"
        }
      ],
      "InvalidAddress()": [
        {
          "notice": "Invalid address (e.g. zero address)"
        }
      ],
      "InvalidTokenId()": [
        {
          "notice": "User not owning token"
        }
      ],
      "MetadataRevealed()": [
        {
          "notice": "Metadata revealed"
        }
      ],
      "MoreThanOne()": [
        {
          "notice": "More than one NFT"
        }
      ],
      "OutOfSupply()": [
        {
          "notice": "MAX_SUPPLY NFTs are minted"
        }
      ],
      "ParameterOutOfBounds()": [
        {
          "notice": "Parameter out of bounds"
        }
      ],
      "SlippageTooHigh()": [
        {
          "notice": "Slippage too high"
        }
      ],
      "WithdrawBeforeReveal()": [
        {
          "notice": "Withdraw before reveal"
        }
      ]
    },
    "kind": "user",
    "methods": {
      "ASSET_RECEIVER_ROLE()": {
        "notice": "Contracts that receive fees"
      },
      "SPICE_ROLE()": {
        "notice": "Spice role"
      },
      "STRATEGIST_ROLE()": {
        "notice": "Rebalance vault assets using ERC4626 client interface"
      },
      "USER_ROLE()": {
        "notice": "Contracts allowed to deposit"
      },
      "VAULT_ROLE()": {
        "notice": "Contracts that funds can be sent to"
      },
      "WETH()": {
        "notice": "WETH address"
      },
      "asset()": {
        "notice": "See {ISpiceFiNFT4626-asset}"
      },
      "convertToAssets(uint256)": {
        "notice": "See {ISpiceFiNFT4626-convertToAssets}"
      },
      "convertToShares(uint256)": {
        "notice": "See {ISpiceFiNFT4626-convertToShares}"
      },
      "deposit(address,uint256,uint256)": {
        "notice": "See {IAggregatorVault-deposit}"
      },
      "deposit(uint256,uint256)": {
        "notice": "See {ISpiceFiNFT4626-deposit}."
      },
      "initialize(address,address,uint256)": {
        "notice": "SpiceFiNFT4626 constructor (for proxy)"
      },
      "maxDeposit(address)": {
        "notice": "See {ISpiceFiNFT4626-maxDeposit}"
      },
      "maxMint(address)": {
        "notice": "See {ISpiceFiNFT4626-maxMint}"
      },
      "maxRedeem(address)": {
        "notice": "See {ISpiceFiNFT4626-maxRedeem}"
      },
      "maxWithdraw(address)": {
        "notice": "See {ISpiceFiNFT4626-maxWithdraw}"
      },
      "mint(address,uint256,uint256)": {
        "notice": "See {IAggregatorVault-mint}"
      },
      "mint(uint256,uint256)": {
        "notice": "See {ISpiceFiNFT4626-mint}."
      },
      "multisig()": {
        "notice": "Spice Multisig"
      },
      "pause()": {
        "notice": "trigger paused state"
      },
      "previewDeposit(uint256)": {
        "notice": "See {ISpiceFiNFT4626-previewDeposit}"
      },
      "previewMint(uint256)": {
        "notice": "See {ISpiceFiNFT4626-previewMint}"
      },
      "previewRedeem(uint256)": {
        "notice": "See {ISpiceFiNFT4626-previewRedeem}"
      },
      "previewWithdraw(uint256)": {
        "notice": "See {ISpiceFiNFT4626-previewWithdraw}"
      },
      "redeem(address,uint256,uint256)": {
        "notice": "See {IAggregatorVault-redeem}"
      },
      "redeem(uint256,uint256,address)": {
        "notice": "See {ISpiceFiNFT4626-redeem}."
      },
      "setBaseURI(string)": {
        "notice": "Sets base uri and reveal"
      },
      "setPreviewURI(string)": {
        "notice": "Sets preview uri"
      },
      "setVerified(bool)": {
        "notice": "set verified"
      },
      "setWithdrawalFees(uint256)": {
        "notice": "set withdrawal fees"
      },
      "tokenShares(uint256)": {
        "notice": "Mapping TokenId => Shares"
      },
      "tokenURI(uint256)": {
        "notice": "See {IERC721Metadata-tokenURI}."
      },
      "totalAssets()": {
        "notice": "See {ISpiceFiNFT4626-totalAssets}"
      },
      "totalShares()": {
        "notice": "Total shares"
      },
      "unpause()": {
        "notice": "return to normal state"
      },
      "verified()": {
        "notice": "Indicates whether the vault is verified or not"
      },
      "withdraw(address,uint256,uint256)": {
        "notice": "See {IAggregatorVault-withdraw}"
      },
      "withdraw(uint256,uint256,address)": {
        "notice": "See {ISpiceFiNFT4626-withdraw}."
      },
      "withdrawalFees()": {
        "notice": "withdrawal fees per 10_000 units"
      }
    },
    "version": 1
  },
  "storageLayout": {
    "storage": [
      {
        "astId": 14260,
        "contract": "contracts/vaults/SpiceFiNFT4626.sol:SpiceFiNFT4626",
        "label": "withdrawalFees",
        "offset": 0,
        "slot": "0",
        "type": "t_uint256"
      },
      {
        "astId": 14263,
        "contract": "contracts/vaults/SpiceFiNFT4626.sol:SpiceFiNFT4626",
        "label": "totalShares",
        "offset": 0,
        "slot": "1",
        "type": "t_uint256"
      },
      {
        "astId": 14268,
        "contract": "contracts/vaults/SpiceFiNFT4626.sol:SpiceFiNFT4626",
        "label": "tokenShares",
        "offset": 0,
        "slot": "2",
        "type": "t_mapping(t_uint256,t_uint256)"
      },
      {
        "astId": 14271,
        "contract": "contracts/vaults/SpiceFiNFT4626.sol:SpiceFiNFT4626",
        "label": "verified",
        "offset": 0,
        "slot": "3",
        "type": "t_bool"
      },
      {
        "astId": 14274,
        "contract": "contracts/vaults/SpiceFiNFT4626.sol:SpiceFiNFT4626",
        "label": "_tokenIdPointer",
        "offset": 0,
        "slot": "4",
        "type": "t_uint256"
      },
      {
        "astId": 14277,
        "contract": "contracts/vaults/SpiceFiNFT4626.sol:SpiceFiNFT4626",
        "label": "_previewUri",
        "offset": 0,
        "slot": "5",
        "type": "t_string_storage"
      },
      {
        "astId": 14280,
        "contract": "contracts/vaults/SpiceFiNFT4626.sol:SpiceFiNFT4626",
        "label": "_baseUri",
        "offset": 0,
        "slot": "6",
        "type": "t_string_storage"
      },
      {
        "astId": 14283,
        "contract": "contracts/vaults/SpiceFiNFT4626.sol:SpiceFiNFT4626",
        "label": "_revealed",
        "offset": 0,
        "slot": "7",
        "type": "t_bool"
      },
      {
        "astId": 1142,
        "contract": "contracts/vaults/SpiceFiNFT4626.sol:SpiceFiNFT4626",
        "label": "_initialized",
        "offset": 1,
        "slot": "7",
        "type": "t_uint8"
      },
      {
        "astId": 1145,
        "contract": "contracts/vaults/SpiceFiNFT4626.sol:SpiceFiNFT4626",
        "label": "_initializing",
        "offset": 2,
        "slot": "7",
        "type": "t_bool"
      },
      {
        "astId": 1124,
        "contract": "contracts/vaults/SpiceFiNFT4626.sol:SpiceFiNFT4626",
        "label": "__gap",
        "offset": 0,
        "slot": "8",
        "type": "t_array(t_uint256)50_storage"
      },
      {
        "astId": 1439,
        "contract": "contracts/vaults/SpiceFiNFT4626.sol:SpiceFiNFT4626",
        "label": "__gap",
        "offset": 0,
        "slot": "58",
        "type": "t_array(t_uint256)50_storage"
      },
      {
        "astId": 4793,
        "contract": "contracts/vaults/SpiceFiNFT4626.sol:SpiceFiNFT4626",
        "label": "__gap",
        "offset": 0,
        "slot": "108",
        "type": "t_array(t_uint256)50_storage"
      },
      {
        "astId": 5072,
        "contract": "contracts/vaults/SpiceFiNFT4626.sol:SpiceFiNFT4626",
        "label": "__gap",
        "offset": 0,
        "slot": "158",
        "type": "t_array(t_uint256)50_storage"
      },
      {
        "astId": 3355,
        "contract": "contracts/vaults/SpiceFiNFT4626.sol:SpiceFiNFT4626",
        "label": "_name",
        "offset": 0,
        "slot": "208",
        "type": "t_string_storage"
      },
      {
        "astId": 3357,
        "contract": "contracts/vaults/SpiceFiNFT4626.sol:SpiceFiNFT4626",
        "label": "_symbol",
        "offset": 0,
        "slot": "209",
        "type": "t_string_storage"
      },
      {
        "astId": 3361,
        "contract": "contracts/vaults/SpiceFiNFT4626.sol:SpiceFiNFT4626",
        "label": "_owners",
        "offset": 0,
        "slot": "210",
        "type": "t_mapping(t_uint256,t_address)"
      },
      {
        "astId": 3365,
        "contract": "contracts/vaults/SpiceFiNFT4626.sol:SpiceFiNFT4626",
        "label": "_balances",
        "offset": 0,
        "slot": "211",
        "type": "t_mapping(t_address,t_uint256)"
      },
      {
        "astId": 3369,
        "contract": "contracts/vaults/SpiceFiNFT4626.sol:SpiceFiNFT4626",
        "label": "_tokenApprovals",
        "offset": 0,
        "slot": "212",
        "type": "t_mapping(t_uint256,t_address)"
      },
      {
        "astId": 3375,
        "contract": "contracts/vaults/SpiceFiNFT4626.sol:SpiceFiNFT4626",
        "label": "_operatorApprovals",
        "offset": 0,
        "slot": "213",
        "type": "t_mapping(t_address,t_mapping(t_address,t_bool))"
      },
      {
        "astId": 4306,
        "contract": "contracts/vaults/SpiceFiNFT4626.sol:SpiceFiNFT4626",
        "label": "__gap",
        "offset": 0,
        "slot": "214",
        "type": "t_array(t_uint256)44_storage"
      },
      {
        "astId": 1461,
        "contract": "contracts/vaults/SpiceFiNFT4626.sol:SpiceFiNFT4626",
        "label": "_paused",
        "offset": 0,
        "slot": "258",
        "type": "t_bool"
      },
      {
        "astId": 1566,
        "contract": "contracts/vaults/SpiceFiNFT4626.sol:SpiceFiNFT4626",
        "label": "__gap",
        "offset": 0,
        "slot": "259",
        "type": "t_array(t_uint256)49_storage"
      },
      {
        "astId": 184,
        "contract": "contracts/vaults/SpiceFiNFT4626.sol:SpiceFiNFT4626",
        "label": "_roles",
        "offset": 0,
        "slot": "308",
        "type": "t_mapping(t_bytes32,t_struct(RoleData)179_storage)"
      },
      {
        "astId": 479,
        "contract": "contracts/vaults/SpiceFiNFT4626.sol:SpiceFiNFT4626",
        "label": "__gap",
        "offset": 0,
        "slot": "309",
        "type": "t_array(t_uint256)49_storage"
      },
      {
        "astId": 33,
        "contract": "contracts/vaults/SpiceFiNFT4626.sol:SpiceFiNFT4626",
        "label": "_roleMembers",
        "offset": 0,
        "slot": "358",
        "type": "t_mapping(t_bytes32,t_struct(AddressSet)6588_storage)"
      },
      {
        "astId": 143,
        "contract": "contracts/vaults/SpiceFiNFT4626.sol:SpiceFiNFT4626",
        "label": "__gap",
        "offset": 0,
        "slot": "359",
        "type": "t_array(t_uint256)49_storage"
      },
      {
        "astId": 1581,
        "contract": "contracts/vaults/SpiceFiNFT4626.sol:SpiceFiNFT4626",
        "label": "_status",
        "offset": 0,
        "slot": "408",
        "type": "t_uint256"
      },
      {
        "astId": 1639,
        "contract": "contracts/vaults/SpiceFiNFT4626.sol:SpiceFiNFT4626",
        "label": "__gap",
        "offset": 0,
        "slot": "409",
        "type": "t_array(t_uint256)49_storage"
      }
    ],
    "types": {
      "t_address": {
        "encoding": "inplace",
        "label": "address",
        "numberOfBytes": "20"
      },
      "t_array(t_bytes32)dyn_storage": {
        "base": "t_bytes32",
        "encoding": "dynamic_array",
        "label": "bytes32[]",
        "numberOfBytes": "32"
      },
      "t_array(t_uint256)44_storage": {
        "base": "t_uint256",
        "encoding": "inplace",
        "label": "uint256[44]",
        "numberOfBytes": "1408"
      },
      "t_array(t_uint256)49_storage": {
        "base": "t_uint256",
        "encoding": "inplace",
        "label": "uint256[49]",
        "numberOfBytes": "1568"
      },
      "t_array(t_uint256)50_storage": {
        "base": "t_uint256",
        "encoding": "inplace",
        "label": "uint256[50]",
        "numberOfBytes": "1600"
      },
      "t_bool": {
        "encoding": "inplace",
        "label": "bool",
        "numberOfBytes": "1"
      },
      "t_bytes32": {
        "encoding": "inplace",
        "label": "bytes32",
        "numberOfBytes": "32"
      },
      "t_mapping(t_address,t_bool)": {
        "encoding": "mapping",
        "key": "t_address",
        "label": "mapping(address => bool)",
        "numberOfBytes": "32",
        "value": "t_bool"
      },
      "t_mapping(t_address,t_mapping(t_address,t_bool))": {
        "encoding": "mapping",
        "key": "t_address",
        "label": "mapping(address => mapping(address => bool))",
        "numberOfBytes": "32",
        "value": "t_mapping(t_address,t_bool)"
      },
      "t_mapping(t_address,t_uint256)": {
        "encoding": "mapping",
        "key": "t_address",
        "label": "mapping(address => uint256)",
        "numberOfBytes": "32",
        "value": "t_uint256"
      },
      "t_mapping(t_bytes32,t_struct(AddressSet)6588_storage)": {
        "encoding": "mapping",
        "key": "t_bytes32",
        "label": "mapping(bytes32 => struct EnumerableSetUpgradeable.AddressSet)",
        "numberOfBytes": "32",
        "value": "t_struct(AddressSet)6588_storage"
      },
      "t_mapping(t_bytes32,t_struct(RoleData)179_storage)": {
        "encoding": "mapping",
        "key": "t_bytes32",
        "label": "mapping(bytes32 => struct AccessControlUpgradeable.RoleData)",
        "numberOfBytes": "32",
        "value": "t_struct(RoleData)179_storage"
      },
      "t_mapping(t_bytes32,t_uint256)": {
        "encoding": "mapping",
        "key": "t_bytes32",
        "label": "mapping(bytes32 => uint256)",
        "numberOfBytes": "32",
        "value": "t_uint256"
      },
      "t_mapping(t_uint256,t_address)": {
        "encoding": "mapping",
        "key": "t_uint256",
        "label": "mapping(uint256 => address)",
        "numberOfBytes": "32",
        "value": "t_address"
      },
      "t_mapping(t_uint256,t_uint256)": {
        "encoding": "mapping",
        "key": "t_uint256",
        "label": "mapping(uint256 => uint256)",
        "numberOfBytes": "32",
        "value": "t_uint256"
      },
      "t_string_storage": {
        "encoding": "bytes",
        "label": "string",
        "numberOfBytes": "32"
      },
      "t_struct(AddressSet)6588_storage": {
        "encoding": "inplace",
        "label": "struct EnumerableSetUpgradeable.AddressSet",
        "members": [
          {
            "astId": 6587,
            "contract": "contracts/vaults/SpiceFiNFT4626.sol:SpiceFiNFT4626",
            "label": "_inner",
            "offset": 0,
            "slot": "0",
            "type": "t_struct(Set)6273_storage"
          }
        ],
        "numberOfBytes": "64"
      },
      "t_struct(RoleData)179_storage": {
        "encoding": "inplace",
        "label": "struct AccessControlUpgradeable.RoleData",
        "members": [
          {
            "astId": 176,
            "contract": "contracts/vaults/SpiceFiNFT4626.sol:SpiceFiNFT4626",
            "label": "members",
            "offset": 0,
            "slot": "0",
            "type": "t_mapping(t_address,t_bool)"
          },
          {
            "astId": 178,
            "contract": "contracts/vaults/SpiceFiNFT4626.sol:SpiceFiNFT4626",
            "label": "adminRole",
            "offset": 0,
            "slot": "1",
            "type": "t_bytes32"
          }
        ],
        "numberOfBytes": "64"
      },
      "t_struct(Set)6273_storage": {
        "encoding": "inplace",
        "label": "struct EnumerableSetUpgradeable.Set",
        "members": [
          {
            "astId": 6268,
            "contract": "contracts/vaults/SpiceFiNFT4626.sol:SpiceFiNFT4626",
            "label": "_values",
            "offset": 0,
            "slot": "0",
            "type": "t_array(t_bytes32)dyn_storage"
          },
          {
            "astId": 6272,
            "contract": "contracts/vaults/SpiceFiNFT4626.sol:SpiceFiNFT4626",
            "label": "_indexes",
            "offset": 0,
            "slot": "1",
            "type": "t_mapping(t_bytes32,t_uint256)"
          }
        ],
        "numberOfBytes": "64"
      },
      "t_uint256": {
        "encoding": "inplace",
        "label": "uint256",
        "numberOfBytes": "32"
      },
      "t_uint8": {
        "encoding": "inplace",
        "label": "uint8",
        "numberOfBytes": "1"
      }
    }
  }
}