{
  "address": "0x3Fa7af1cBE2a72E624F5823F0bc504A082617e99",
  "abi": [
    {
      "inputs": [],
      "stateMutability": "nonpayable",
      "type": "constructor"
    },
    {
      "inputs": [],
      "name": "InvalidAddress",
      "type": "error"
    },
    {
      "inputs": [],
      "name": "ParameterOutOfBounds",
      "type": "error"
    },
    {
      "inputs": [],
      "name": "SlippageTooHigh",
      "type": "error"
    },
    {
      "anonymous": false,
      "inputs": [
        {
          "indexed": false,
          "internalType": "address",
          "name": "previousAdmin",
          "type": "address"
        },
        {
          "indexed": false,
          "internalType": "address",
          "name": "newAdmin",
          "type": "address"
        }
      ],
      "name": "AdminChanged",
      "type": "event"
    },
    {
      "anonymous": false,
      "inputs": [
        {
          "indexed": true,
          "internalType": "address",
          "name": "owner",
          "type": "address"
        },
        {
          "indexed": true,
          "internalType": "address",
          "name": "spender",
          "type": "address"
        },
        {
          "indexed": false,
          "internalType": "uint256",
          "name": "value",
          "type": "uint256"
        }
      ],
      "name": "Approval",
      "type": "event"
    },
    {
      "anonymous": false,
      "inputs": [
        {
          "indexed": true,
          "internalType": "address",
          "name": "beacon",
          "type": "address"
        }
      ],
      "name": "BeaconUpgraded",
      "type": "event"
    },
    {
      "anonymous": false,
      "inputs": [
        {
          "indexed": true,
          "internalType": "address",
          "name": "sender",
          "type": "address"
        },
        {
          "indexed": true,
          "internalType": "address",
          "name": "owner",
          "type": "address"
        },
        {
          "indexed": false,
          "internalType": "uint256",
          "name": "assets",
          "type": "uint256"
        },
        {
          "indexed": false,
          "internalType": "uint256",
          "name": "shares",
          "type": "uint256"
        }
      ],
      "name": "Deposit",
      "type": "event"
    },
    {
      "anonymous": false,
      "inputs": [
        {
          "indexed": false,
          "internalType": "uint8",
          "name": "version",
          "type": "uint8"
        }
      ],
      "name": "Initialized",
      "type": "event"
    },
    {
      "anonymous": false,
      "inputs": [
        {
          "indexed": false,
          "internalType": "address",
          "name": "account",
          "type": "address"
        }
      ],
      "name": "Paused",
      "type": "event"
    },
    {
      "anonymous": false,
      "inputs": [
        {
          "indexed": true,
          "internalType": "bytes32",
          "name": "role",
          "type": "bytes32"
        },
        {
          "indexed": true,
          "internalType": "bytes32",
          "name": "previousAdminRole",
          "type": "bytes32"
        },
        {
          "indexed": true,
          "internalType": "bytes32",
          "name": "newAdminRole",
          "type": "bytes32"
        }
      ],
      "name": "RoleAdminChanged",
      "type": "event"
    },
    {
      "anonymous": false,
      "inputs": [
        {
          "indexed": true,
          "internalType": "bytes32",
          "name": "role",
          "type": "bytes32"
        },
        {
          "indexed": true,
          "internalType": "address",
          "name": "account",
          "type": "address"
        },
        {
          "indexed": true,
          "internalType": "address",
          "name": "sender",
          "type": "address"
        }
      ],
      "name": "RoleGranted",
      "type": "event"
    },
    {
      "anonymous": false,
      "inputs": [
        {
          "indexed": true,
          "internalType": "bytes32",
          "name": "role",
          "type": "bytes32"
        },
        {
          "indexed": true,
          "internalType": "address",
          "name": "account",
          "type": "address"
        },
        {
          "indexed": true,
          "internalType": "address",
          "name": "sender",
          "type": "address"
        }
      ],
      "name": "RoleRevoked",
      "type": "event"
    },
    {
      "anonymous": false,
      "inputs": [
        {
          "indexed": true,
          "internalType": "address",
          "name": "from",
          "type": "address"
        },
        {
          "indexed": true,
          "internalType": "address",
          "name": "to",
          "type": "address"
        },
        {
          "indexed": false,
          "internalType": "uint256",
          "name": "value",
          "type": "uint256"
        }
      ],
      "name": "Transfer",
      "type": "event"
    },
    {
      "anonymous": false,
      "inputs": [
        {
          "indexed": false,
          "internalType": "address",
          "name": "account",
          "type": "address"
        }
      ],
      "name": "Unpaused",
      "type": "event"
    },
    {
      "anonymous": false,
      "inputs": [
        {
          "indexed": true,
          "internalType": "address",
          "name": "implementation",
          "type": "address"
        }
      ],
      "name": "Upgraded",
      "type": "event"
    },
    {
      "anonymous": false,
      "inputs": [
        {
          "indexed": true,
          "internalType": "address",
          "name": "sender",
          "type": "address"
        },
        {
          "indexed": true,
          "internalType": "address",
          "name": "receiver",
          "type": "address"
        },
        {
          "indexed": true,
          "internalType": "address",
          "name": "owner",
          "type": "address"
        },
        {
          "indexed": false,
          "internalType": "uint256",
          "name": "assets",
          "type": "uint256"
        },
        {
          "indexed": false,
          "internalType": "uint256",
          "name": "shares",
          "type": "uint256"
        }
      ],
      "name": "Withdraw",
      "type": "event"
    },
    {
      "inputs": [],
      "name": "ASSET_RECEIVER_ROLE",
      "outputs": [
        {
          "internalType": "bytes32",
          "name": "",
          "type": "bytes32"
        }
      ],
      "stateMutability": "view",
      "type": "function"
    },
    {
      "inputs": [],
      "name": "DEFAULT_ADMIN_ROLE",
      "outputs": [
        {
          "internalType": "bytes32",
          "name": "",
          "type": "bytes32"
        }
      ],
      "stateMutability": "view",
      "type": "function"
    },
    {
      "inputs": [],
      "name": "SPICE_ROLE",
      "outputs": [
        {
          "internalType": "bytes32",
          "name": "",
          "type": "bytes32"
        }
      ],
      "stateMutability": "view",
      "type": "function"
    },
    {
      "inputs": [],
      "name": "STRATEGIST_ROLE",
      "outputs": [
        {
          "internalType": "bytes32",
          "name": "",
          "type": "bytes32"
        }
      ],
      "stateMutability": "view",
      "type": "function"
    },
    {
      "inputs": [],
      "name": "USER_ROLE",
      "outputs": [
        {
          "internalType": "bytes32",
          "name": "",
          "type": "bytes32"
        }
      ],
      "stateMutability": "view",
      "type": "function"
    },
    {
      "inputs": [],
      "name": "VAULT_ROLE",
      "outputs": [
        {
          "internalType": "bytes32",
          "name": "",
          "type": "bytes32"
        }
      ],
      "stateMutability": "view",
      "type": "function"
    },
    {
      "inputs": [
        {
          "internalType": "address",
          "name": "owner",
          "type": "address"
        },
        {
          "internalType": "address",
          "name": "spender",
          "type": "address"
        }
      ],
      "name": "allowance",
      "outputs": [
        {
          "internalType": "uint256",
          "name": "",
          "type": "uint256"
        }
      ],
      "stateMutability": "view",
      "type": "function"
    },
    {
      "inputs": [
        {
          "internalType": "address",
          "name": "spender",
          "type": "address"
        },
        {
          "internalType": "uint256",
          "name": "amount",
          "type": "uint256"
        }
      ],
      "name": "approve",
      "outputs": [
        {
          "internalType": "bool",
          "name": "",
          "type": "bool"
        }
      ],
      "stateMutability": "nonpayable",
      "type": "function"
    },
    {
      "inputs": [],
      "name": "asset",
      "outputs": [
        {
          "internalType": "address",
          "name": "",
          "type": "address"
        }
      ],
      "stateMutability": "view",
      "type": "function"
    },
    {
      "inputs": [
        {
          "internalType": "address",
          "name": "account",
          "type": "address"
        }
      ],
      "name": "balanceOf",
      "outputs": [
        {
          "internalType": "uint256",
          "name": "",
          "type": "uint256"
        }
      ],
      "stateMutability": "view",
      "type": "function"
    },
    {
      "inputs": [
        {
          "internalType": "uint256",
          "name": "shares",
          "type": "uint256"
        }
      ],
      "name": "convertToAssets",
      "outputs": [
        {
          "internalType": "uint256",
          "name": "assets",
          "type": "uint256"
        }
      ],
      "stateMutability": "view",
      "type": "function"
    },
    {
      "inputs": [
        {
          "internalType": "uint256",
          "name": "assets",
          "type": "uint256"
        }
      ],
      "name": "convertToShares",
      "outputs": [
        {
          "internalType": "uint256",
          "name": "shares",
          "type": "uint256"
        }
      ],
      "stateMutability": "view",
      "type": "function"
    },
    {
      "inputs": [],
      "name": "decimals",
      "outputs": [
        {
          "internalType": "uint8",
          "name": "",
          "type": "uint8"
        }
      ],
      "stateMutability": "view",
      "type": "function"
    },
    {
      "inputs": [
        {
          "internalType": "address",
          "name": "spender",
          "type": "address"
        },
        {
          "internalType": "uint256",
          "name": "subtractedValue",
          "type": "uint256"
        }
      ],
      "name": "decreaseAllowance",
      "outputs": [
        {
          "internalType": "bool",
          "name": "",
          "type": "bool"
        }
      ],
      "stateMutability": "nonpayable",
      "type": "function"
    },
    {
      "inputs": [
        {
          "internalType": "address",
          "name": "vault",
          "type": "address"
        },
        {
          "internalType": "uint256",
          "name": "assets",
          "type": "uint256"
        },
        {
          "internalType": "uint256",
          "name": "minShares",
          "type": "uint256"
        }
      ],
      "name": "deposit",
      "outputs": [
        {
          "internalType": "uint256",
          "name": "shares",
          "type": "uint256"
        }
      ],
      "stateMutability": "nonpayable",
      "type": "function"
    },
    {
      "inputs": [
        {
          "internalType": "uint256",
          "name": "assets",
          "type": "uint256"
        },
        {
          "internalType": "address",
          "name": "receiver",
          "type": "address"
        }
      ],
      "name": "deposit",
      "outputs": [
        {
          "internalType": "uint256",
          "name": "",
          "type": "uint256"
        }
      ],
      "stateMutability": "nonpayable",
      "type": "function"
    },
    {
      "inputs": [
        {
          "internalType": "bytes32",
          "name": "role",
          "type": "bytes32"
        }
      ],
      "name": "getRoleAdmin",
      "outputs": [
        {
          "internalType": "bytes32",
          "name": "",
          "type": "bytes32"
        }
      ],
      "stateMutability": "view",
      "type": "function"
    },
    {
      "inputs": [
        {
          "internalType": "bytes32",
          "name": "role",
          "type": "bytes32"
        },
        {
          "internalType": "uint256",
          "name": "index",
          "type": "uint256"
        }
      ],
      "name": "getRoleMember",
      "outputs": [
        {
          "internalType": "address",
          "name": "",
          "type": "address"
        }
      ],
      "stateMutability": "view",
      "type": "function"
    },
    {
      "inputs": [
        {
          "internalType": "bytes32",
          "name": "role",
          "type": "bytes32"
        }
      ],
      "name": "getRoleMemberCount",
      "outputs": [
        {
          "internalType": "uint256",
          "name": "",
          "type": "uint256"
        }
      ],
      "stateMutability": "view",
      "type": "function"
    },
    {
      "inputs": [
        {
          "internalType": "bytes32",
          "name": "role",
          "type": "bytes32"
        },
        {
          "internalType": "address",
          "name": "account",
          "type": "address"
        }
      ],
      "name": "grantRole",
      "outputs": [],
      "stateMutability": "nonpayable",
      "type": "function"
    },
    {
      "inputs": [
        {
          "internalType": "bytes32",
          "name": "role",
          "type": "bytes32"
        },
        {
          "internalType": "address",
          "name": "account",
          "type": "address"
        }
      ],
      "name": "hasRole",
      "outputs": [
        {
          "internalType": "bool",
          "name": "",
          "type": "bool"
        }
      ],
      "stateMutability": "view",
      "type": "function"
    },
    {
      "inputs": [
        {
          "internalType": "address",
          "name": "spender",
          "type": "address"
        },
        {
          "internalType": "uint256",
          "name": "addedValue",
          "type": "uint256"
        }
      ],
      "name": "increaseAllowance",
      "outputs": [
        {
          "internalType": "bool",
          "name": "",
          "type": "bool"
        }
      ],
      "stateMutability": "nonpayable",
      "type": "function"
    },
    {
      "inputs": [
        {
          "internalType": "address",
          "name": "asset_",
          "type": "address"
        },
        {
          "internalType": "address",
          "name": "strategist_",
          "type": "address"
        },
        {
          "internalType": "address",
          "name": "assetReceiver_",
          "type": "address"
        },
        {
          "internalType": "uint256",
          "name": "withdrawalFees_",
          "type": "uint256"
        }
      ],
      "name": "initialize",
      "outputs": [],
      "stateMutability": "nonpayable",
      "type": "function"
    },
    {
      "inputs": [
        {
          "internalType": "address",
          "name": "",
          "type": "address"
        }
      ],
      "name": "maxDeposit",
      "outputs": [
        {
          "internalType": "uint256",
          "name": "",
          "type": "uint256"
        }
      ],
      "stateMutability": "view",
      "type": "function"
    },
    {
      "inputs": [
        {
          "internalType": "address",
          "name": "",
          "type": "address"
        }
      ],
      "name": "maxMint",
      "outputs": [
        {
          "internalType": "uint256",
          "name": "",
          "type": "uint256"
        }
      ],
      "stateMutability": "view",
      "type": "function"
    },
    {
      "inputs": [
        {
          "internalType": "address",
          "name": "owner",
          "type": "address"
        }
      ],
      "name": "maxRedeem",
      "outputs": [
        {
          "internalType": "uint256",
          "name": "",
          "type": "uint256"
        }
      ],
      "stateMutability": "view",
      "type": "function"
    },
    {
      "inputs": [],
      "name": "maxTotalSupply",
      "outputs": [
        {
          "internalType": "uint256",
          "name": "",
          "type": "uint256"
        }
      ],
      "stateMutability": "view",
      "type": "function"
    },
    {
      "inputs": [
        {
          "internalType": "address",
          "name": "owner",
          "type": "address"
        }
      ],
      "name": "maxWithdraw",
      "outputs": [
        {
          "internalType": "uint256",
          "name": "",
          "type": "uint256"
        }
      ],
      "stateMutability": "view",
      "type": "function"
    },
    {
      "inputs": [
        {
          "internalType": "address",
          "name": "vault",
          "type": "address"
        },
        {
          "internalType": "uint256",
          "name": "shares",
          "type": "uint256"
        },
        {
          "internalType": "uint256",
          "name": "maxAssets",
          "type": "uint256"
        }
      ],
      "name": "mint",
      "outputs": [
        {
          "internalType": "uint256",
          "name": "assets",
          "type": "uint256"
        }
      ],
      "stateMutability": "nonpayable",
      "type": "function"
    },
    {
      "inputs": [
        {
          "internalType": "uint256",
          "name": "shares",
          "type": "uint256"
        },
        {
          "internalType": "address",
          "name": "receiver",
          "type": "address"
        }
      ],
      "name": "mint",
      "outputs": [
        {
          "internalType": "uint256",
          "name": "",
          "type": "uint256"
        }
      ],
      "stateMutability": "nonpayable",
      "type": "function"
    },
    {
      "inputs": [
        {
          "internalType": "bytes[]",
          "name": "data",
          "type": "bytes[]"
        }
      ],
      "name": "multicall",
      "outputs": [
        {
          "internalType": "bytes[]",
          "name": "results",
          "type": "bytes[]"
        }
      ],
      "stateMutability": "nonpayable",
      "type": "function"
    },
    {
      "inputs": [],
      "name": "multisig",
      "outputs": [
        {
          "internalType": "address",
          "name": "",
          "type": "address"
        }
      ],
      "stateMutability": "view",
      "type": "function"
    },
    {
      "inputs": [],
      "name": "name",
      "outputs": [
        {
          "internalType": "string",
          "name": "",
          "type": "string"
        }
      ],
      "stateMutability": "view",
      "type": "function"
    },
    {
      "inputs": [],
      "name": "pause",
      "outputs": [],
      "stateMutability": "nonpayable",
      "type": "function"
    },
    {
      "inputs": [],
      "name": "paused",
      "outputs": [
        {
          "internalType": "bool",
          "name": "",
          "type": "bool"
        }
      ],
      "stateMutability": "view",
      "type": "function"
    },
    {
      "inputs": [
        {
          "internalType": "uint256",
          "name": "assets",
          "type": "uint256"
        }
      ],
      "name": "previewDeposit",
      "outputs": [
        {
          "internalType": "uint256",
          "name": "",
          "type": "uint256"
        }
      ],
      "stateMutability": "view",
      "type": "function"
    },
    {
      "inputs": [
        {
          "internalType": "uint256",
          "name": "shares",
          "type": "uint256"
        }
      ],
      "name": "previewMint",
      "outputs": [
        {
          "internalType": "uint256",
          "name": "",
          "type": "uint256"
        }
      ],
      "stateMutability": "view",
      "type": "function"
    },
    {
      "inputs": [
        {
          "internalType": "uint256",
          "name": "shares",
          "type": "uint256"
        }
      ],
      "name": "previewRedeem",
      "outputs": [
        {
          "internalType": "uint256",
          "name": "",
          "type": "uint256"
        }
      ],
      "stateMutability": "view",
      "type": "function"
    },
    {
      "inputs": [
        {
          "internalType": "uint256",
          "name": "assets",
          "type": "uint256"
        }
      ],
      "name": "previewWithdraw",
      "outputs": [
        {
          "internalType": "uint256",
          "name": "",
          "type": "uint256"
        }
      ],
      "stateMutability": "view",
      "type": "function"
    },
    {
      "inputs": [],
      "name": "proxiableUUID",
      "outputs": [
        {
          "internalType": "bytes32",
          "name": "",
          "type": "bytes32"
        }
      ],
      "stateMutability": "view",
      "type": "function"
    },
    {
      "inputs": [
        {
          "internalType": "address",
          "name": "vault",
          "type": "address"
        },
        {
          "internalType": "uint256",
          "name": "shares",
          "type": "uint256"
        },
        {
          "internalType": "uint256",
          "name": "minAssets",
          "type": "uint256"
        }
      ],
      "name": "redeem",
      "outputs": [
        {
          "internalType": "uint256",
          "name": "assets",
          "type": "uint256"
        }
      ],
      "stateMutability": "nonpayable",
      "type": "function"
    },
    {
      "inputs": [
        {
          "internalType": "uint256",
          "name": "shares",
          "type": "uint256"
        },
        {
          "internalType": "address",
          "name": "receiver",
          "type": "address"
        },
        {
          "internalType": "address",
          "name": "owner",
          "type": "address"
        }
      ],
      "name": "redeem",
      "outputs": [
        {
          "internalType": "uint256",
          "name": "",
          "type": "uint256"
        }
      ],
      "stateMutability": "nonpayable",
      "type": "function"
    },
    {
      "inputs": [
        {
          "internalType": "bytes32",
          "name": "role",
          "type": "bytes32"
        },
        {
          "internalType": "address",
          "name": "account",
          "type": "address"
        }
      ],
      "name": "renounceRole",
      "outputs": [],
      "stateMutability": "nonpayable",
      "type": "function"
    },
    {
      "inputs": [
        {
          "internalType": "bytes32",
          "name": "role",
          "type": "bytes32"
        },
        {
          "internalType": "address",
          "name": "account",
          "type": "address"
        }
      ],
      "name": "revokeRole",
      "outputs": [],
      "stateMutability": "nonpayable",
      "type": "function"
    },
    {
      "inputs": [
        {
          "internalType": "uint256",
          "name": "maxTotalSupply_",
          "type": "uint256"
        }
      ],
      "name": "setMaxTotalSupply",
      "outputs": [],
      "stateMutability": "nonpayable",
      "type": "function"
    },
    {
      "inputs": [
        {
          "internalType": "bool",
          "name": "verified_",
          "type": "bool"
        }
      ],
      "name": "setVerified",
      "outputs": [],
      "stateMutability": "nonpayable",
      "type": "function"
    },
    {
      "inputs": [
        {
          "internalType": "uint256",
          "name": "withdrawalFees_",
          "type": "uint256"
        }
      ],
      "name": "setWithdrawalFees",
      "outputs": [],
      "stateMutability": "nonpayable",
      "type": "function"
    },
    {
      "inputs": [
        {
          "internalType": "bytes4",
          "name": "interfaceId",
          "type": "bytes4"
        }
      ],
      "name": "supportsInterface",
      "outputs": [
        {
          "internalType": "bool",
          "name": "",
          "type": "bool"
        }
      ],
      "stateMutability": "view",
      "type": "function"
    },
    {
      "inputs": [],
      "name": "symbol",
      "outputs": [
        {
          "internalType": "string",
          "name": "",
          "type": "string"
        }
      ],
      "stateMutability": "view",
      "type": "function"
    },
    {
      "inputs": [],
      "name": "totalAssets",
      "outputs": [
        {
          "internalType": "uint256",
          "name": "",
          "type": "uint256"
        }
      ],
      "stateMutability": "view",
      "type": "function"
    },
    {
      "inputs": [],
      "name": "totalSupply",
      "outputs": [
        {
          "internalType": "uint256",
          "name": "",
          "type": "uint256"
        }
      ],
      "stateMutability": "view",
      "type": "function"
    },
    {
      "inputs": [
        {
          "internalType": "address",
          "name": "to",
          "type": "address"
        },
        {
          "internalType": "uint256",
          "name": "amount",
          "type": "uint256"
        }
      ],
      "name": "transfer",
      "outputs": [
        {
          "internalType": "bool",
          "name": "",
          "type": "bool"
        }
      ],
      "stateMutability": "nonpayable",
      "type": "function"
    },
    {
      "inputs": [
        {
          "internalType": "address",
          "name": "from",
          "type": "address"
        },
        {
          "internalType": "address",
          "name": "to",
          "type": "address"
        },
        {
          "internalType": "uint256",
          "name": "amount",
          "type": "uint256"
        }
      ],
      "name": "transferFrom",
      "outputs": [
        {
          "internalType": "bool",
          "name": "",
          "type": "bool"
        }
      ],
      "stateMutability": "nonpayable",
      "type": "function"
    },
    {
      "inputs": [],
      "name": "unpause",
      "outputs": [],
      "stateMutability": "nonpayable",
      "type": "function"
    },
    {
      "inputs": [
        {
          "internalType": "address",
          "name": "newImplementation",
          "type": "address"
        }
      ],
      "name": "upgradeTo",
      "outputs": [],
      "stateMutability": "nonpayable",
      "type": "function"
    },
    {
      "inputs": [
        {
          "internalType": "address",
          "name": "newImplementation",
          "type": "address"
        },
        {
          "internalType": "bytes",
          "name": "data",
          "type": "bytes"
        }
      ],
      "name": "upgradeToAndCall",
      "outputs": [],
      "stateMutability": "payable",
      "type": "function"
    },
    {
      "inputs": [],
      "name": "verified",
      "outputs": [
        {
          "internalType": "bool",
          "name": "",
          "type": "bool"
        }
      ],
      "stateMutability": "view",
      "type": "function"
    },
    {
      "inputs": [
        {
          "internalType": "uint256",
          "name": "assets",
          "type": "uint256"
        },
        {
          "internalType": "address",
          "name": "receiver",
          "type": "address"
        },
        {
          "internalType": "address",
          "name": "owner",
          "type": "address"
        }
      ],
      "name": "withdraw",
      "outputs": [
        {
          "internalType": "uint256",
          "name": "",
          "type": "uint256"
        }
      ],
      "stateMutability": "nonpayable",
      "type": "function"
    },
    {
      "inputs": [
        {
          "internalType": "address",
          "name": "vault",
          "type": "address"
        },
        {
          "internalType": "uint256",
          "name": "assets",
          "type": "uint256"
        },
        {
          "internalType": "uint256",
          "name": "maxShares",
          "type": "uint256"
        }
      ],
      "name": "withdraw",
      "outputs": [
        {
          "internalType": "uint256",
          "name": "shares",
          "type": "uint256"
        }
      ],
      "stateMutability": "nonpayable",
      "type": "function"
    },
    {
      "inputs": [],
      "name": "withdrawalFees",
      "outputs": [
        {
          "internalType": "uint256",
          "name": "",
          "type": "uint256"
        }
      ],
      "stateMutability": "view",
      "type": "function"
    }
  ],
  "transactionHash": "0x60b949d0235cbea27774437b5aa717f8155163e88a1c9db787e24600efb85189",
  "args": [],
  "numDeployments": 1,
  "solcInputHash": "39802d8746e51023162f12dbcb970f74",
  "bytecode": "0x60a0604052306080523480156200001557600080fd5b506200002062000026565b620000ee565b60025462010000900460ff1615620000945760405162461bcd60e51b815260206004820152602760248201527f496e697469616c697a61626c653a20636f6e747261637420697320696e697469604482015266616c697a696e6760c81b606482015260840160405180910390fd5b60025460ff61010090910481161015620000ec576002805461ff00191661ff0017905560405160ff81527f7f26b83ff96e1f2b6a682f133852f6798a09c465da95921460cefb38474024989060200160405180910390a15b565b60805161430762000126600039600081816111ae015281816111ee0152818161133401528181611374015261140301526143076000f3fe6080604052600436106103975760003560e01c806366f89081116101dc578063ac9650d811610102578063c6e6f592116100a0578063d547741f1161006f578063d547741f14610ae1578063d905777e14610b01578063dd62ed3e14610b21578063ef8b30f714610a6157600080fd5b8063c6e6f59214610a61578063ca15c87314610a81578063ce96cb7714610aa1578063cf756fdf14610ac157600080fd5b8063b5c5f672116100dc578063b5c5f672146109e7578063ba08765214610a07578063bbb82d8914610a27578063c63d75b614610a4157600080fd5b8063ac9650d81461097a578063b3d7f6b9146109a7578063b460af94146109c757600080fd5b806391d148541161017a578063a217fddf11610149578063a217fddf14610903578063a378a32414610918578063a457c2d71461093a578063a9059cbb1461095a57600080fd5b806391d148541461088c57806394bf804d146108ac57806395d89b41146108cc57806398c4f1ac146108e157600080fd5b806370a08231116101b657806370a082311461080157806372f10ff4146108375780638456cb59146108575780639010d07c1461086c57600080fd5b806366f890811461078d5780636e553f65146107ad5780636e95cabd146107cd57600080fd5b80632f2ff15d116102c15780633f4ba83a1161025f5780634ee2c4ce1161022e5780634ee2c4ce146107375780634f1ef2861461074d57806352d1902d146107605780635c975abb1461077557600080fd5b80633f4ba83a146106ba578063402d267d146106cf5780634783c35b146106ef5780634cdad5061461071757600080fd5b80633659cfe61161029b5780633659cfe61461062857806338d52e0f14610648578063395093511461067a5780633f3e4c111461069a57600080fd5b80632f2ff15d146105ba578063313ce567146105dc57806336568abe1461060857600080fd5b8063131191611161033957806323b872dd1161030857806323b872dd14610533578063248a9ca3146105535780632ab4d052146105845780632b83cccd1461059a57600080fd5b80631311916114610496578063156e29f6146104ca57806317708d61146104ea57806318160ddd1461051e57600080fd5b806307a2d13a1161037557806307a2d13a14610416578063095ea7b3146104365780630a28a477146104565780630efe6a8b1461047657600080fd5b806301e1d1141461039c57806301ffc9a7146103c457806306fdde03146103f4575b600080fd5b3480156103a857600080fd5b506103b1610b41565b6040519081526020015b60405180910390f35b3480156103d057600080fd5b506103e46103df366004613955565b610cef565b60405190151581526020016103bb565b34801561040057600080fd5b50610409610d1a565b6040516103bb91906139cf565b34801561042257600080fd5b506103b16104313660046139e2565b610dac565b34801561044257600080fd5b506103e4610451366004613a17565b610db9565b34801561046257600080fd5b506103b16104713660046139e2565b610dd1565b34801561048257600080fd5b506103b1610491366004613a41565b610dfb565b3480156104a257600080fd5b506103b17f14823911f2da1b49f045a0929a60b8c1f2a7fc8c06c7284ca3e8ab4e193a08c881565b3480156104d657600080fd5b506103b16104e5366004613a41565b610ef9565b3480156104f657600080fd5b506103b17f28bfb62eeff3c4bcd95c015fee311b2dabccad8f4fd94a4797d13fcb401b262181565b34801561052a57600080fd5b50609b546103b1565b34801561053f57600080fd5b506103e461054e366004613a74565b61105e565b34801561055f57600080fd5b506103b161056e3660046139e2565b6000908152610161602052604090206001015490565b34801561059057600080fd5b506103b160015481565b3480156105a657600080fd5b506103b16105b5366004613a41565b611082565b3480156105c657600080fd5b506105da6105d5366004613ab0565b6110f6565b005b3480156105e857600080fd5b5060cb54600160a01b900460ff1660405160ff90911681526020016103bb565b34801561061457600080fd5b506105da610623366004613ab0565b611121565b34801561063457600080fd5b506105da610643366004613adc565b6111a4565b34801561065457600080fd5b5060cb546001600160a01b03165b6040516001600160a01b0390911681526020016103bb565b34801561068657600080fd5b506103e4610695366004613a17565b611283565b3480156106a657600080fd5b506105da6106b53660046139e2565b6112a5565b3480156106c657600080fd5b506105da6112b6565b3480156106db57600080fd5b506103b16106ea366004613adc565b6112c9565b3480156106fb57600080fd5b50610662737b15f2b26c25e1815dc4fb8957ce76a0c531958281565b34801561072357600080fd5b506103b16107323660046139e2565b611308565b34801561074357600080fd5b506103b160005481565b6105da61075b366004613b0d565b61132a565b34801561076c57600080fd5b506103b16113f6565b34801561078157600080fd5b5060fd5460ff166103e4565b34801561079957600080fd5b506105da6107a83660046139e2565b6114a9565b3480156107b957600080fd5b506103b16107c8366004613ab0565b6114dc565b3480156107d957600080fd5b506103b17f419682485a4d899a3e911be267c1b40c528840983eb762a6f384130c1e0930e381565b34801561080d57600080fd5b506103b161081c366004613adc565b6001600160a01b031660009081526099602052604090205490565b34801561084357600080fd5b506105da610852366004613bdd565b61154f565b34801561086357600080fd5b506105da61158d565b34801561087857600080fd5b50610662610887366004613bfa565b6115a0565b34801561089857600080fd5b506103e46108a7366004613ab0565b6115b9565b3480156108b857600080fd5b506103b16108c7366004613ab0565b6115e5565b3480156108d857600080fd5b50610409611658565b3480156108ed57600080fd5b506103b160008051602061429283398151915281565b34801561090f57600080fd5b506103b1600081565b34801561092457600080fd5b506103b16000805160206142b283398151915281565b34801561094657600080fd5b506103e4610955366004613a17565b611667565b34801561096657600080fd5b506103e4610975366004613a17565b6116e2565b34801561098657600080fd5b5061099a610995366004613c1c565b6116f0565b6040516103bb9190613c91565b3480156109b357600080fd5b506103b16109c23660046139e2565b6117e5565b3480156109d357600080fd5b506103b16109e2366004613cf3565b6117f2565b3480156109f357600080fd5b506103b1610a02366004613a41565b61186e565b348015610a1357600080fd5b506103b1610a22366004613cf3565b611943565b348015610a3357600080fd5b506002546103e49060ff1681565b348015610a4d57600080fd5b506103b1610a5c366004613adc565b6119b7565b348015610a6d57600080fd5b506103b1610a7c3660046139e2565b6119d9565b348015610a8d57600080fd5b506103b1610a9c3660046139e2565b6119e6565b348015610aad57600080fd5b506103b1610abc366004613adc565b6119fe565b348015610acd57600080fd5b506105da610adc366004613d2f565b611ae6565b348015610aed57600080fd5b506105da610afc366004613ab0565b611d5d565b348015610b0d57600080fd5b506103b1610b1c366004613adc565b611d83565b348015610b2d57600080fd5b506103b1610b3c366004613d7a565b611e56565b600080610b5660cb546001600160a01b031690565b6040516370a0823160e01b81523060048201526001600160a01b0391909116906370a0823190602401602060405180830381865afa158015610b9c573d6000803e3d6000fd5b505050506040513d601f19601f82011682018060405250810190610bc09190613da4565b9050600080610bdc6000805160206142928339815191526119e6565b905060005b818114610ce657610c00600080516020614292833981519152826115a0565b6040516370a0823160e01b81523060048201529093506001600160a01b03841690634cdad5069082906370a0823190602401602060405180830381865afa158015610c4f573d6000803e3d6000fd5b505050506040513d601f19601f82011682018060405250810190610c739190613da4565b6040518263ffffffff1660e01b8152600401610c9191815260200190565b602060405180830381865afa158015610cae573d6000803e3d6000fd5b505050506040513d601f19601f82011682018060405250810190610cd29190613da4565b610cdc9085613dd3565b9350600101610be1565b50919392505050565b60006001600160e01b03198216635a05180f60e01b1480610d145750610d1482611e81565b92915050565b6060609c8054610d2990613de6565b80601f0160208091040260200160405190810160405280929190818152602001828054610d5590613de6565b8015610da25780601f10610d7757610100808354040283529160200191610da2565b820191906000526020600020905b815481529060010190602001808311610d8557829003601f168201915b5050505050905090565b6000610d14826000611eb6565b600033610dc7818585611ee9565b5060019392505050565b6000610d14610df4612710600054612710610dec9190613e20565b85919061200d565b60016120bc565b6000610e056120ee565b6000805160206142b2833981519152610e1d81612149565b610e356000805160206142928339815191528661214f565b610e51610e4a60cb546001600160a01b031690565b86866121a8565b604051636e553f6560e01b8152600481018590523060248201526001600160a01b03861690636e553f65906044015b6020604051808303816000875af1158015610e9f573d6000803e3d6000fd5b505050506040513d601f19601f82011682018060405250810190610ec39190613da4565b915081831115610ee65760405163428637bb60e11b815260040160405180910390fd5b50610ef260016101c555565b9392505050565b6000610f036120ee565b6000805160206142b2833981519152610f1b81612149565b610f336000805160206142928339815191528661214f565b60405163b3d7f6b960e01b8152600481018590526000906001600160a01b0387169063b3d7f6b990602401602060405180830381865afa158015610f7b573d6000803e3d6000fd5b505050506040513d601f19601f82011682018060405250810190610f9f9190613da4565b9050610fbd610fb660cb546001600160a01b031690565b87836121a8565b6040516394bf804d60e01b8152600481018690523060248201526001600160a01b038716906394bf804d906044016020604051808303816000875af115801561100a573d6000803e3d6000fd5b505050506040513d601f19601f8201168201806040525081019061102e9190613da4565b9250828410156110515760405163428637bb60e11b815260040160405180910390fd5b5050610ef260016101c555565b60003361106c858285612293565b611077858585612307565b506001949350505050565b600061108c6120ee565b6000805160206142b28339815191526110a481612149565b6110bc6000805160206142928339815191528661214f565b604051635d043b2960e11b815260048101859052306024820181905260448201526001600160a01b0386169063ba08765290606401610e80565b6000828152610161602052604090206001015461111281612149565b61111c83836124bd565b505050565b6001600160a01b03811633146111965760405162461bcd60e51b815260206004820152602f60248201527f416363657373436f6e74726f6c3a2063616e206f6e6c792072656e6f756e636560448201526e103937b632b9903337b91039b2b63360891b60648201526084015b60405180910390fd5b6111a082826124e0565b5050565b6001600160a01b037f00000000000000000000000000000000000000000000000000000000000000001630036111ec5760405162461bcd60e51b815260040161118d90613e33565b7f00000000000000000000000000000000000000000000000000000000000000006001600160a01b031661123560008051602061424b833981519152546001600160a01b031690565b6001600160a01b03161461125b5760405162461bcd60e51b815260040161118d90613e7f565b61126481612503565b604080516000808252602082019092526112809183919061250e565b50565b600033610dc78185856112968383611e56565b6112a09190613dd3565b611ee9565b60006112b081612149565b50600155565b60006112c181612149565b611280612679565b60006112d760fd5460ff1690565b611300576112fb6112e7609b5490565b6001546112f49190613e20565b6000611eb6565b610d14565b600092915050565b6000610d146112f46000546127106113209190613e20565b849061271061200d565b6001600160a01b037f00000000000000000000000000000000000000000000000000000000000000001630036113725760405162461bcd60e51b815260040161118d90613e33565b7f00000000000000000000000000000000000000000000000000000000000000006001600160a01b03166113bb60008051602061424b833981519152546001600160a01b031690565b6001600160a01b0316146113e15760405162461bcd60e51b815260040161118d90613e7f565b6113ea82612503565b6111a08282600161250e565b6000306001600160a01b037f000000000000000000000000000000000000000000000000000000000000000016146114965760405162461bcd60e51b815260206004820152603860248201527f555550535570677261646561626c653a206d757374206e6f742062652063616c60448201527f6c6564207468726f7567682064656c656761746563616c6c0000000000000000606482015260840161118d565b5060008051602061424b83398151915290565b60006114b481612149565b61271082106114d657604051631168860160e01b815260040160405180910390fd5b50600055565b60006114e7826112c9565b8311156115365760405162461bcd60e51b815260206004820152601e60248201527f455243343632363a206465706f736974206d6f7265207468616e206d61780000604482015260640161118d565b6000611541846119d9565b9050610ef2338486846126cb565b7f28bfb62eeff3c4bcd95c015fee311b2dabccad8f4fd94a4797d13fcb401b262161157981612149565b506002805460ff1916911515919091179055565b600061159881612149565b6112806127c6565b600082815261019360205260408120610ef29083612803565b6000918252610161602090815260408084206001600160a01b0393909316845291905290205460ff1690565b60006115f0826119b7565b83111561163f5760405162461bcd60e51b815260206004820152601b60248201527f455243343632363a206d696e74206d6f7265207468616e206d61780000000000604482015260640161118d565b600061164a846117e5565b9050610ef2338483876126cb565b6060609d8054610d2990613de6565b600033816116758286611e56565b9050838110156116d55760405162461bcd60e51b815260206004820152602560248201527f45524332303a2064656372656173656420616c6c6f77616e63652062656c6f77604482015264207a65726f60d81b606482015260840161118d565b6110778286868403611ee9565b600033610dc7818585612307565b60608167ffffffffffffffff81111561170b5761170b613af7565b60405190808252806020026020018201604052801561173e57816020015b60608152602001906001900390816117295790505b50905060005b828110156117de576117ae3085858481811061176257611762613ecb565b90506020028101906117749190613ee1565b8080601f01602080910402602001604051908101604052809392919081815260200183838082843760009201919091525061280f92505050565b8282815181106117c0576117c0613ecb565b602002602001018190525080806117d690613f2f565b915050611744565b5092915050565b6000610d14826001611eb6565b60006117fd826119fe565b84111561184c5760405162461bcd60e51b815260206004820152601f60248201527f455243343632363a207769746864726177206d6f7265207468616e206d617800604482015260640161118d565b600061185785610dd1565b90506118663385858885612834565b949350505050565b60006118786120ee565b6000805160206142b283398151915261189081612149565b6118a86000805160206142928339815191528661214f565b604051632d182be560e21b815260048101859052306024820181905260448201526001600160a01b0386169063b460af94906064016020604051808303816000875af11580156118fc573d6000803e3d6000fd5b505050506040513d601f19601f820116820180604052508101906119209190613da4565b915081831015610ee65760405163428637bb60e11b815260040160405180910390fd5b600061194e82611d83565b84111561199d5760405162461bcd60e51b815260206004820152601d60248201527f455243343632363a2072656465656d206d6f7265207468616e206d6178000000604482015260640161118d565b60006119a885611308565b90506118663385858489612834565b60006119c560fd5460ff1690565b61130057609b546001546112fb9190613e20565b6000610d148260006120bc565b600081815261019360205260408120610d1490612920565b600080611a1360cb546001600160a01b031690565b6040516370a0823160e01b81523060048201526001600160a01b0391909116906370a0823190602401602060405180830381865afa158015611a59573d6000803e3d6000fd5b505050506040513d601f19601f82011682018060405250810190611a7d9190613da4565b9050611a8b60fd5460ff1690565b611add57611ad8600054612710611aa29190613e20565b612710611ad184611acb6112f4896001600160a01b031660009081526099602052604090205490565b9061292a565b919061200d565b610ef2565b60009392505050565b60025462010000900460ff1615808015611b0b5750600254600161010090910460ff16105b80611b2b5750303b158015611b2b575060025460ff610100909104166001145b611b8e5760405162461bcd60e51b815260206004820152602e60248201527f496e697469616c697a61626c653a20636f6e747261637420697320616c72656160448201526d191e481a5b9a5d1a585b1a5e995960921b606482015260840161118d565b6002805461ff0019166101001790558015611bb5576002805462ff00001916620100001790555b6001600160a01b038516611bdc5760405163e6c4247b60e01b815260040160405180910390fd5b6001600160a01b038416611c035760405163e6c4247b60e01b815260040160405180910390fd5b6001600160a01b038316611c2a5760405163e6c4247b60e01b815260040160405180910390fd5b6127108210611c4c57604051631168860160e01b815260040160405180910390fd5b611c5585612940565b611c9e6040518060400160405280600a81526020016929b834b1b2aa37b5b2b760b11b81525060405180604001604052806005815260200164535049434560d81b815250612971565b611ca96000336129a3565b611cc86000737b15f2b26c25e1815dc4fb8957ce76a0c53195826129a3565b611ce06000805160206142b2833981519152856129a3565b611d0a7f419682485a4d899a3e911be267c1b40c528840983eb762a6f384130c1e0930e3846129a3565b60008290558015611d56576002805462ff000019169055604051600181527f7f26b83ff96e1f2b6a682f133852f6798a09c465da95921460cefb38474024989060200160405180910390a15b5050505050565b60008281526101616020526040902060010154611d7981612149565b61111c83836124e0565b600080611d9860cb546001600160a01b031690565b6040516370a0823160e01b81523060048201526001600160a01b0391909116906370a0823190602401602060405180830381865afa158015611dde573d6000803e3d6000fd5b505050506040513d601f19601f82011682018060405250810190611e029190613da4565b9050611e1060fd5460ff1690565b611add57611ad8600054612710611e279190613e20565b612710611ad1611e388560006120bc565b6001600160a01b038816600090815260996020526040902054611acb565b6001600160a01b039182166000908152609a6020908152604080832093909416825291909152205490565b60006001600160e01b03198216637965db0b60e01b1480610d1457506301ffc9a760e01b6001600160e01b0319831614610d14565b600080611ec2609b5490565b90508015611ee357611ede611ed5610b41565b859083866129ad565b611866565b83611866565b6001600160a01b038316611f4b5760405162461bcd60e51b8152602060048201526024808201527f45524332303a20617070726f76652066726f6d20746865207a65726f206164646044820152637265737360e01b606482015260840161118d565b6001600160a01b038216611fac5760405162461bcd60e51b815260206004820152602260248201527f45524332303a20617070726f766520746f20746865207a65726f206164647265604482015261737360f01b606482015260840161118d565b6001600160a01b038381166000818152609a602090815260408083209487168084529482529182902085905590518481527f8c5be1e5ebec7d5bd14f71427d1e84f3dd0314c0f7b2291e5b200ac8c7c3b925910160405180910390a3505050565b60008080600019858709858702925082811083820303915050806000036120475783828161203d5761203d613f48565b0492505050610ef2565b80841161205357600080fd5b60008486880960026001871981018816978890046003810283188082028403028082028403028082028403028082028403028082028403029081029092039091026000889003889004909101858311909403939093029303949094049190911702949350505050565b6000806120c8609b5490565b90508315806120d5575080155b611ee357611ede816120e5610b41565b869190866129ad565b60026101c554036121415760405162461bcd60e51b815260206004820152601f60248201527f5265656e7472616e637947756172643a207265656e7472616e742063616c6c00604482015260640161118d565b60026101c555565b61128081335b61215982826115b9565b6111a05761216681612a0a565b612171836020612a1c565b604051602001612182929190613f5e565b60408051601f198184030181529082905262461bcd60e51b825261118d916004016139cf565b604051636eb1769f60e11b81523060048201526001600160a01b038381166024830152600091839186169063dd62ed3e90604401602060405180830381865afa1580156121f9573d6000803e3d6000fd5b505050506040513d601f19601f8201168201806040525081019061221d9190613da4565b6122279190613dd3565b6040516001600160a01b03851660248201526044810182905290915061228d90859063095ea7b360e01b906064015b60408051601f198184030181529190526020810180516001600160e01b03166001600160e01b031990931692909217909152612bb8565b50505050565b600061229f8484611e56565b9050600019811461228d57818110156122fa5760405162461bcd60e51b815260206004820152601d60248201527f45524332303a20696e73756666696369656e7420616c6c6f77616e6365000000604482015260640161118d565b61228d8484848403611ee9565b6001600160a01b03831661236b5760405162461bcd60e51b815260206004820152602560248201527f45524332303a207472616e736665722066726f6d20746865207a65726f206164604482015264647265737360d81b606482015260840161118d565b6001600160a01b0382166123cd5760405162461bcd60e51b815260206004820152602360248201527f45524332303a207472616e7366657220746f20746865207a65726f206164647260448201526265737360e81b606482015260840161118d565b6123d8838383612c8a565b6001600160a01b038316600090815260996020526040902054818110156124505760405162461bcd60e51b815260206004820152602660248201527f45524332303a207472616e7366657220616d6f756e7420657863656564732062604482015265616c616e636560d01b606482015260840161118d565b6001600160a01b0380851660008181526099602052604080822086860390559286168082529083902080548601905591517fddf252ad1be2c89b69c2b068fc378daa952ba7f163c4a11628f55a4df523b3ef906124b09086815260200190565b60405180910390a361228d565b6124c78282612cf0565b60008281526101936020526040902061111c9082612d77565b6124ea8282612d8c565b60008281526101936020526040902061111c9082612df4565b60006111a081612149565b7f4910fdfa16fed3260ed0e7147f7cc6da11a60208b5b9406d12a635614ffd91435460ff16156125415761111c83612e09565b826001600160a01b03166352d1902d6040518163ffffffff1660e01b8152600401602060405180830381865afa92505050801561259b575060408051601f3d908101601f1916820190925261259891810190613da4565b60015b6125fe5760405162461bcd60e51b815260206004820152602e60248201527f45524331393637557067726164653a206e657720696d706c656d656e7461746960448201526d6f6e206973206e6f74205555505360901b606482015260840161118d565b60008051602061424b833981519152811461266d5760405162461bcd60e51b815260206004820152602960248201527f45524331393637557067726164653a20756e737570706f727465642070726f786044820152681a58589b195555525160ba1b606482015260840161118d565b5061111c838383612ea5565b612681612eca565b60fd805460ff191690557f5db9ee0a495bf2e6ff9c91a7834c1ba4fdd244a5e8aa4e537bd38aeae4b073aa335b6040516001600160a01b03909116815260200160405180910390a1565b6126d36120ee565b6126fc7f14823911f2da1b49f045a0929a60b8c1f2a7fc8c06c7284ca3e8ab4e193a08c86119e6565b158061272d575061272d7f14823911f2da1b49f045a0929a60b8c1f2a7fc8c06c7284ca3e8ab4e193a08c8856115b9565b6127715760405162461bcd60e51b815260206004820152601560248201527418d85b1b195c881a5cc81b9bdd08195b98589b1959605a1b604482015260640161118d565b600081116127af5760405162461bcd60e51b815260206004820152600b60248201526a073686172657320697320360ac1b604482015260640161118d565b6127bb84848484612f15565b61228d60016101c555565b6127ce612f93565b60fd805460ff191660011790557f62e78cea01bee320cd4e420270b5ea74000d11b0c9f74754ebdbfc544b05a2586126ae3390565b6000610ef28383612fd9565b6060610ef2838360405180606001604052806027815260200161426b60279139613003565b61283c6120ee565b60006128697f419682485a4d899a3e911be267c1b40c528840983eb762a6f384130c1e0930e360006115a0565b905060006128987f28bfb62eeff3c4bcd95c015fee311b2dabccad8f4fd94a4797d13fcb401b262160006115a0565b90506000846128a8856000611eb6565b6128b29190613e20565b905060006128c18260026130a1565b90506128d089898989896130ad565b6128ec6128e560cb546001600160a01b031690565b8583613159565b61291161290160cb546001600160a01b031690565b8461290c8585613189565b613159565b50505050611d5660016101c555565b6000610d14825490565b60008183106129395781610ef2565b5090919050565b60025462010000900460ff166129685760405162461bcd60e51b815260040161118d90613fd3565b61128081613195565b60025462010000900460ff166129995760405162461bcd60e51b815260040161118d90613fd3565b6111a08282613257565b6111a082826124bd565b6000806129bb86868661200d565b905060018360028111156129d1576129d161401e565b1480156129ee5750600084806129e9576129e9613f48565b868809115b15612a01576129fe600182613dd3565b90505b95945050505050565b6060610d146001600160a01b03831660145b60606000612a2b836002614034565b612a36906002613dd3565b67ffffffffffffffff811115612a4e57612a4e613af7565b6040519080825280601f01601f191660200182016040528015612a78576020820181803683370190505b509050600360fc1b81600081518110612a9357612a93613ecb565b60200101906001600160f81b031916908160001a905350600f60fb1b81600181518110612ac257612ac2613ecb565b60200101906001600160f81b031916908160001a9053506000612ae6846002614034565b612af1906001613dd3565b90505b6001811115612b69576f181899199a1a9b1b9c1cb0b131b232b360811b85600f1660108110612b2557612b25613ecb565b1a60f81b828281518110612b3b57612b3b613ecb565b60200101906001600160f81b031916908160001a90535060049490941c93612b628161404b565b9050612af4565b508315610ef25760405162461bcd60e51b815260206004820181905260248201527f537472696e67733a20686578206c656e67746820696e73756666696369656e74604482015260640161118d565b6000612c0d826040518060400160405280602081526020017f5361666545524332303a206c6f772d6c6576656c2063616c6c206661696c6564815250856001600160a01b03166132989092919063ffffffff16565b80519091501561111c5780806020019051810190612c2b9190614062565b61111c5760405162461bcd60e51b815260206004820152602a60248201527f5361666545524332303a204552433230206f7065726174696f6e20646964206e6044820152691bdd081cdd58d8d9595960b21b606482015260840161118d565b60fd5460ff161561111c5760405162461bcd60e51b815260206004820152602a60248201527f45524332305061757361626c653a20746f6b656e207472616e736665722077686044820152691a5b19481c185d5cd95960b21b606482015260840161118d565b612cfa82826115b9565b6111a0576000828152610161602090815260408083206001600160a01b03851684529091529020805460ff19166001179055612d333390565b6001600160a01b0316816001600160a01b0316837f2f8788117e7eff1d82e926ec794901d17c78024a50270940304540a733656f0d60405160405180910390a45050565b6000610ef2836001600160a01b0384166132a7565b612d9682826115b9565b156111a0576000828152610161602090815260408083206001600160a01b0385168085529252808320805460ff1916905551339285917ff6391f5c32d9c69d2a47ea670b442974b53935d1edc7fd64eb21e047a839171b9190a45050565b6000610ef2836001600160a01b0384166132f6565b6001600160a01b0381163b612e765760405162461bcd60e51b815260206004820152602d60248201527f455243313936373a206e657720696d706c656d656e746174696f6e206973206e60448201526c1bdd08184818dbdb9d1c9858dd609a1b606482015260840161118d565b60008051602061424b83398151915280546001600160a01b0319166001600160a01b0392909216919091179055565b612eae836133e9565b600082511180612ebb5750805b1561111c5761228d8383613429565b60fd5460ff16612f135760405162461bcd60e51b815260206004820152601460248201527314185d5cd8589b194e881b9bdd081c185d5cd95960621b604482015260640161118d565b565b60cb54612f2d906001600160a01b03168530856134d5565b612f37838261350d565b826001600160a01b0316846001600160a01b03167fdcbc1c05240f31ff3ad067ef1ee35ce4997762752e3a095284754544f4c709d78484604051612f85929190918252602082015260400190565b60405180910390a350505050565b60fd5460ff1615612f135760405162461bcd60e51b815260206004820152601060248201526f14185d5cd8589b194e881c185d5cd95960821b604482015260640161118d565b6000826000018281548110612ff057612ff0613ecb565b9060005260206000200154905092915050565b60606001600160a01b0384163b61302c5760405162461bcd60e51b815260040161118d9061407f565b600080856001600160a01b03168560405161304791906140c5565b600060405180830381855af49150503d8060008114613082576040519150601f19603f3d011682016040523d82523d6000602084013e613087565b606091505b509150915061309782828661357c565b9695505050505050565b6000610ef282846140e1565b826001600160a01b0316856001600160a01b0316146130d1576130d1838683612293565b6130db83826135b5565b60cb546130f2906001600160a01b03168584613159565b826001600160a01b0316846001600160a01b0316866001600160a01b03167ffbde797d201c681b91056529119e0b02407c7bb96a4a2c75c01fc9667232c8db858560405161314a929190918252602082015260400190565b60405180910390a45050505050565b6040516001600160a01b03831660248201526044810182905261111c90849063a9059cbb60e01b90606401612256565b6000610ef28284613e20565b60025462010000900460ff166131bd5760405162461bcd60e51b815260040161118d90613fd3565b6000816001600160a01b031663313ce5676040518163ffffffff1660e01b8152600401602060405180830381865afa925050508015613219575060408051601f3d908101601f1916820190925261321691810190614103565b60015b61322557506012613228565b90505b60cb805460ff909216600160a01b026001600160a81b03199092166001600160a01b0390931692909217179055565b60025462010000900460ff1661327f5760405162461bcd60e51b815260040161118d90613fd3565b609c61328b8382614174565b50609d61111c8282614174565b606061186684846000856136f5565b60008181526001830160205260408120546132ee57508154600181810184556000848152602080822090930184905584548482528286019093526040902091909155610d14565b506000610d14565b600081815260018301602052604081205480156133df57600061331a600183613e20565b855490915060009061332e90600190613e20565b905081811461339357600086600001828154811061334e5761334e613ecb565b906000526020600020015490508087600001848154811061337157613371613ecb565b6000918252602080832090910192909255918252600188019052604090208390555b85548690806133a4576133a4614234565b600190038181906000526020600020016000905590558560010160008681526020019081526020016000206000905560019350505050610d14565b6000915050610d14565b6133f281612e09565b6040516001600160a01b038216907fbc7cd75a20ee27fd9adebab32041f755214dbc6bffa90cc0225b39da2e5c2d3b90600090a250565b60606001600160a01b0383163b6134525760405162461bcd60e51b815260040161118d9061407f565b600080846001600160a01b03168460405161346d91906140c5565b600060405180830381855af49150503d80600081146134a8576040519150601f19603f3d011682016040523d82523d6000602084013e6134ad565b606091505b5091509150612a01828260405180606001604052806027815260200161426b602791396137d0565b6040516001600160a01b038085166024830152831660448201526064810182905261228d9085906323b872dd60e01b90608401612256565b6001548161351a609b5490565b6135249190613dd3565b11156135725760405162461bcd60e51b815260206004820181905260248201527f6d617820746f74616c20737570706c79206578636565647320616c6c6f776564604482015260640161118d565b6111a082826137e9565b6060831561358b575081610ef2565b82511561359b5782518084602001fd5b8160405162461bcd60e51b815260040161118d91906139cf565b6001600160a01b0382166136155760405162461bcd60e51b815260206004820152602160248201527f45524332303a206275726e2066726f6d20746865207a65726f206164647265736044820152607360f81b606482015260840161118d565b61362182600083612c8a565b6001600160a01b038216600090815260996020526040902054818110156136955760405162461bcd60e51b815260206004820152602260248201527f45524332303a206275726e20616d6f756e7420657863656564732062616c616e604482015261636560f01b606482015260840161118d565b6001600160a01b03831660008181526099602090815260408083208686039055609b80548790039055518581529192917fddf252ad1be2c89b69c2b068fc378daa952ba7f163c4a11628f55a4df523b3ef910160405180910390a3505050565b6060824710156137565760405162461bcd60e51b815260206004820152602660248201527f416464726573733a20696e73756666696369656e742062616c616e636520666f6044820152651c8818d85b1b60d21b606482015260840161118d565b600080866001600160a01b0316858760405161377291906140c5565b60006040518083038185875af1925050503d80600081146137af576040519150601f19603f3d011682016040523d82523d6000602084013e6137b4565b606091505b50915091506137c5878383876138b6565b979650505050505050565b606083156137df575081610ef2565b610ef2838361392b565b6001600160a01b03821661383f5760405162461bcd60e51b815260206004820152601f60248201527f45524332303a206d696e7420746f20746865207a65726f206164647265737300604482015260640161118d565b61384b60008383612c8a565b80609b600082825461385d9190613dd3565b90915550506001600160a01b0382166000818152609960209081526040808320805486019055518481527fddf252ad1be2c89b69c2b068fc378daa952ba7f163c4a11628f55a4df523b3ef910160405180910390a35050565b6060831561392557825160000361391e576001600160a01b0385163b61391e5760405162461bcd60e51b815260206004820152601d60248201527f416464726573733a2063616c6c20746f206e6f6e2d636f6e7472616374000000604482015260640161118d565b5081611866565b61186683835b81511561393b5781518083602001fd5b8060405162461bcd60e51b815260040161118d91906139cf565b60006020828403121561396757600080fd5b81356001600160e01b031981168114610ef257600080fd5b60005b8381101561399a578181015183820152602001613982565b50506000910152565b600081518084526139bb81602086016020860161397f565b601f01601f19169290920160200192915050565b602081526000610ef260208301846139a3565b6000602082840312156139f457600080fd5b5035919050565b80356001600160a01b0381168114613a1257600080fd5b919050565b60008060408385031215613a2a57600080fd5b613a33836139fb565b946020939093013593505050565b600080600060608486031215613a5657600080fd5b613a5f846139fb565b95602085013595506040909401359392505050565b600080600060608486031215613a8957600080fd5b613a92846139fb565b9250613aa0602085016139fb565b9150604084013590509250925092565b60008060408385031215613ac357600080fd5b82359150613ad3602084016139fb565b90509250929050565b600060208284031215613aee57600080fd5b610ef2826139fb565b634e487b7160e01b600052604160045260246000fd5b60008060408385031215613b2057600080fd5b613b29836139fb565b9150602083013567ffffffffffffffff80821115613b4657600080fd5b818501915085601f830112613b5a57600080fd5b813581811115613b6c57613b6c613af7565b604051601f8201601f19908116603f01168101908382118183101715613b9457613b94613af7565b81604052828152886020848701011115613bad57600080fd5b8260208601602083013760006020848301015280955050505050509250929050565b801515811461128057600080fd5b600060208284031215613bef57600080fd5b8135610ef281613bcf565b60008060408385031215613c0d57600080fd5b50508035926020909101359150565b60008060208385031215613c2f57600080fd5b823567ffffffffffffffff80821115613c4757600080fd5b818501915085601f830112613c5b57600080fd5b813581811115613c6a57600080fd5b8660208260051b8501011115613c7f57600080fd5b60209290920196919550909350505050565b6000602080830181845280855180835260408601915060408160051b870101925083870160005b82811015613ce657603f19888603018452613cd48583516139a3565b94509285019290850190600101613cb8565b5092979650505050505050565b600080600060608486031215613d0857600080fd5b83359250613d18602085016139fb565b9150613d26604085016139fb565b90509250925092565b60008060008060808587031215613d4557600080fd5b613d4e856139fb565b9350613d5c602086016139fb565b9250613d6a604086016139fb565b9396929550929360600135925050565b60008060408385031215613d8d57600080fd5b613d96836139fb565b9150613ad3602084016139fb565b600060208284031215613db657600080fd5b5051919050565b634e487b7160e01b600052601160045260246000fd5b80820180821115610d1457610d14613dbd565b600181811c90821680613dfa57607f821691505b602082108103613e1a57634e487b7160e01b600052602260045260246000fd5b50919050565b81810381811115610d1457610d14613dbd565b6020808252602c908201527f46756e6374696f6e206d7573742062652063616c6c6564207468726f7567682060408201526b19195b1959d85d1958d85b1b60a21b606082015260800190565b6020808252602c908201527f46756e6374696f6e206d7573742062652063616c6c6564207468726f7567682060408201526b6163746976652070726f787960a01b606082015260800190565b634e487b7160e01b600052603260045260246000fd5b6000808335601e19843603018112613ef857600080fd5b83018035915067ffffffffffffffff821115613f1357600080fd5b602001915036819003821315613f2857600080fd5b9250929050565b600060018201613f4157613f41613dbd565b5060010190565b634e487b7160e01b600052601260045260246000fd5b7f416363657373436f6e74726f6c3a206163636f756e7420000000000000000000815260008351613f9681601785016020880161397f565b7001034b99036b4b9b9b4b733903937b6329607d1b6017918401918201528351613fc781602884016020880161397f565b01602801949350505050565b6020808252602b908201527f496e697469616c697a61626c653a20636f6e7472616374206973206e6f74206960408201526a6e697469616c697a696e6760a81b606082015260800190565b634e487b7160e01b600052602160045260246000fd5b8082028115828204841417610d1457610d14613dbd565b60008161405a5761405a613dbd565b506000190190565b60006020828403121561407457600080fd5b8151610ef281613bcf565b60208082526026908201527f416464726573733a2064656c65676174652063616c6c20746f206e6f6e2d636f6040820152651b9d1c9858dd60d21b606082015260800190565b600082516140d781846020870161397f565b9190910192915050565b6000826140fe57634e487b7160e01b600052601260045260246000fd5b500490565b60006020828403121561411557600080fd5b815160ff81168114610ef257600080fd5b601f82111561111c57600081815260208120601f850160051c8101602086101561414d5750805b601f850160051c820191505b8181101561416c57828155600101614159565b505050505050565b815167ffffffffffffffff81111561418e5761418e613af7565b6141a28161419c8454613de6565b84614126565b602080601f8311600181146141d757600084156141bf5750858301515b600019600386901b1c1916600185901b17855561416c565b600085815260208120601f198616915b82811015614206578886015182559484019460019091019084016141e7565b50858210156142245787850151600019600388901b60f8161c191681555b5050505050600190811b01905550565b634e487b7160e01b600052603160045260246000fdfe360894a13ba1a3210667c828492db98dca3e2076cc3735a920a3ca505d382bbc416464726573733a206c6f772d6c6576656c2064656c65676174652063616c6c206661696c656431e0210044b4f6757ce6aa31f9c6e8d4896d24a755014887391a926c5224d95917a8e30262c1f919c33056d877a3c22b95c2f5e4dac44683c1c2323cd79fbdb0a2646970667358221220caee31a2896cd5f9dce16337e035a09f61db2a8bbdf73ab3b26a68688e8d81e964736f6c63430008110033",
  "devdoc": {
    "author": "Spice Finance Inc",
    "kind": "dev",
    "methods": {
      "allowance(address,address)": {
        "details": "See {IERC20-allowance}."
      },
      "approve(address,uint256)": {
        "details": "See {IERC20-approve}. NOTE: If `amount` is the maximum `uint256`, the allowance is not updated on `transferFrom`. This is semantically equivalent to an infinite approval. Requirements: - `spender` cannot be the zero address."
      },
      "asset()": {
        "details": "See {IERC4626-asset}. "
      },
      "balanceOf(address)": {
        "details": "See {IERC20-balanceOf}."
      },
      "constructor": {
        "custom:oz-upgrades-unsafe-allow": "constructor"
      },
      "convertToAssets(uint256)": {
        "details": "See {IERC4626-convertToAssets}. "
      },
      "convertToShares(uint256)": {
        "details": "See {IERC4626-convertToShares}. "
      },
      "decimals()": {
        "details": "See {IERC20Metadata-decimals}. "
      },
      "decreaseAllowance(address,uint256)": {
        "details": "Atomically decreases the allowance granted to `spender` by the caller. This is an alternative to {approve} that can be used as a mitigation for problems described in {IERC20-approve}. Emits an {Approval} event indicating the updated allowance. Requirements: - `spender` cannot be the zero address. - `spender` must have allowance for the caller of at least `subtractedValue`."
      },
      "deposit(uint256,address)": {
        "details": "See {IERC4626-deposit}. "
      },
      "getRoleAdmin(bytes32)": {
        "details": "Returns the admin role that controls `role`. See {grantRole} and {revokeRole}. To change a role's admin, use {_setRoleAdmin}."
      },
      "getRoleMember(bytes32,uint256)": {
        "details": "Returns one of the accounts that have `role`. `index` must be a value between 0 and {getRoleMemberCount}, non-inclusive. Role bearers are not sorted in any particular way, and their ordering may change at any point. WARNING: When using {getRoleMember} and {getRoleMemberCount}, make sure you perform all queries on the same block. See the following https://forum.openzeppelin.com/t/iterating-over-elements-on-enumerableset-in-openzeppelin-contracts/2296[forum post] for more information."
      },
      "getRoleMemberCount(bytes32)": {
        "details": "Returns the number of accounts that have `role`. Can be used together with {getRoleMember} to enumerate all bearers of a role."
      },
      "grantRole(bytes32,address)": {
        "details": "Grants `role` to `account`. If `account` had not been already granted `role`, emits a {RoleGranted} event. Requirements: - the caller must have ``role``'s admin role. May emit a {RoleGranted} event."
      },
      "hasRole(bytes32,address)": {
        "details": "Returns `true` if `account` has been granted `role`."
      },
      "increaseAllowance(address,uint256)": {
        "details": "Atomically increases the allowance granted to `spender` by the caller. This is an alternative to {approve} that can be used as a mitigation for problems described in {IERC20-approve}. Emits an {Approval} event indicating the updated allowance. Requirements: - `spender` cannot be the zero address."
      },
      "initialize(address,address,address,uint256)": {
        "params": {
          "assetReceiver_": "Default asset receiver address",
          "asset_": "Asset token address",
          "strategist_": "Default strategist address",
          "withdrawalFees_": "Default withdrawal fees"
        }
      },
      "maxDeposit(address)": {
        "details": "Returns the maximum amount of the underlying asset that can be deposited into the Vault for the receiver, through a deposit call. - MUST return a limited value if receiver is subject to some deposit limit. - MUST return 2 ** 256 - 1 if there is no limit on the maximum amount of assets that may be deposited. - MUST NOT revert."
      },
      "maxMint(address)": {
        "details": "Returns the maximum amount of the Vault shares that can be minted for the receiver, through a mint call. - MUST return a limited value if receiver is subject to some mint limit. - MUST return 2 ** 256 - 1 if there is no limit on the maximum amount of shares that may be minted. - MUST NOT revert."
      },
      "maxRedeem(address)": {
        "details": "Returns the maximum amount of Vault shares that can be redeemed from the owner balance in the Vault, through a redeem call. - MUST return a limited value if owner is subject to some withdrawal limit or timelock. - MUST return balanceOf(owner) if owner is not subject to any withdrawal limit or timelock. - MUST NOT revert."
      },
      "maxWithdraw(address)": {
        "details": "Returns the maximum amount of the underlying asset that can be withdrawn from the owner balance in the Vault, through a withdraw call. - MUST return a limited value if owner is subject to some withdrawal limit or timelock. - MUST NOT revert."
      },
      "mint(uint256,address)": {
        "details": "See {IERC4626-mint}. "
      },
      "multicall(bytes[])": {
        "details": "Receives and executes a batch of function calls on this contract."
      },
      "name()": {
        "details": "Returns the name of the token."
      },
      "paused()": {
        "details": "Returns true if the contract is paused, and false otherwise."
      },
      "previewDeposit(uint256)": {
        "details": "See {IERC4626-previewDeposit}. "
      },
      "previewMint(uint256)": {
        "details": "See {IERC4626-previewMint}. "
      },
      "previewRedeem(uint256)": {
        "details": "Allows an on-chain or off-chain user to simulate the effects of their redeemption at the current block, given current on-chain conditions. - MUST return as close to and no more than the exact amount of assets that would be withdrawn in a redeem call   in the same transaction. I.e. redeem should return the same or more assets as previewRedeem if called in the   same transaction. - MUST NOT account for redemption limits like those returned from maxRedeem and should always act as though the   redemption would be accepted, regardless if the user has enough shares, etc. - MUST be inclusive of withdrawal fees. Integrators should be aware of the existence of withdrawal fees. - MUST NOT revert. NOTE: any unfavorable discrepancy between convertToAssets and previewRedeem SHOULD be considered slippage in share price or some other type of condition, meaning the depositor will lose assets by redeeming."
      },
      "previewWithdraw(uint256)": {
        "details": "Allows an on-chain or off-chain user to simulate the effects of their withdrawal at the current block, given current on-chain conditions. - MUST return as close to and no fewer than the exact amount of Vault shares that would be burned in a withdraw   call in the same transaction. I.e. withdraw should return the same or fewer shares as previewWithdraw if   called   in the same transaction. - MUST NOT account for withdrawal limits like those returned from maxWithdraw and should always act as though   the withdrawal would be accepted, regardless if the user has enough shares, etc. - MUST be inclusive of withdrawal fees. Integrators should be aware of the existence of withdrawal fees. - MUST NOT revert. NOTE: any unfavorable discrepancy between convertToShares and previewWithdraw SHOULD be considered slippage in share price or some other type of condition, meaning the depositor will lose assets by depositing."
      },
      "proxiableUUID()": {
        "details": "Implementation of the ERC1822 {proxiableUUID} function. This returns the storage slot used by the implementation. It is used to validate the implementation's compatibility when performing an upgrade. IMPORTANT: A proxy pointing at a proxiable contract should not be considered proxiable itself, because this risks bricking a proxy that upgrades to it, by delegating to itself until out of gas. Thus it is critical that this function revert if invoked through a proxy. This is guaranteed by the `notDelegated` modifier."
      },
      "redeem(uint256,address,address)": {
        "details": "See {IERC4626-redeem}. "
      },
      "renounceRole(bytes32,address)": {
        "details": "Revokes `role` from the calling account. Roles are often managed via {grantRole} and {revokeRole}: this function's purpose is to provide a mechanism for accounts to lose their privileges if they are compromised (such as when a trusted device is misplaced). If the calling account had been revoked `role`, emits a {RoleRevoked} event. Requirements: - the caller must be `account`. May emit a {RoleRevoked} event."
      },
      "revokeRole(bytes32,address)": {
        "details": "Revokes `role` from `account`. If `account` had been granted `role`, emits a {RoleRevoked} event. Requirements: - the caller must have ``role``'s admin role. May emit a {RoleRevoked} event."
      },
      "setMaxTotalSupply(uint256)": {
        "params": {
          "maxTotalSupply_": "max total supply"
        }
      },
      "setVerified(bool)": {
        "params": {
          "verified_": "new verified value"
        }
      },
      "setWithdrawalFees(uint256)": {
        "params": {
          "withdrawalFees_": "withdrawal fees"
        }
      },
      "supportsInterface(bytes4)": {
        "details": "See {IERC165-supportsInterface}."
      },
      "symbol()": {
        "details": "Returns the symbol of the token, usually a shorter version of the name."
      },
      "totalAssets()": {
        "details": "Returns the total amount of the underlying asset that is managed by Vault. - SHOULD include any compounding that occurs from yield. - MUST be inclusive of any fees that are charged against assets in the Vault. - MUST NOT revert."
      },
      "totalSupply()": {
        "details": "See {IERC20-totalSupply}."
      },
      "transfer(address,uint256)": {
        "details": "See {IERC20-transfer}. Requirements: - `to` cannot be the zero address. - the caller must have a balance of at least `amount`."
      },
      "transferFrom(address,address,uint256)": {
        "details": "See {IERC20-transferFrom}. Emits an {Approval} event indicating the updated allowance. This is not required by the EIP. See the note at the beginning of {ERC20}. NOTE: Does not update the allowance if the current allowance is the maximum `uint256`. Requirements: - `from` and `to` cannot be the zero address. - `from` must have a balance of at least `amount`. - the caller must have allowance for ``from``'s tokens of at least `amount`."
      },
      "upgradeTo(address)": {
        "details": "Upgrade the implementation of the proxy to `newImplementation`. Calls {_authorizeUpgrade}. Emits an {Upgraded} event."
      },
      "upgradeToAndCall(address,bytes)": {
        "details": "Upgrade the implementation of the proxy to `newImplementation`, and subsequently execute the function call encoded in `data`. Calls {_authorizeUpgrade}. Emits an {Upgraded} event."
      },
      "withdraw(uint256,address,address)": {
        "details": "See {IERC4626-withdraw}. "
      }
    },
    "title": "SpiceFi4626",
    "version": 1
  },
  "userdoc": {
    "errors": {
      "InvalidAddress()": [
        {
          "notice": "Invalid address (e.g. zero address)"
        }
      ],
      "ParameterOutOfBounds()": [
        {
          "notice": "Parameter out of bounds"
        }
      ],
      "SlippageTooHigh()": [
        {
          "notice": "Slippage too high"
        }
      ]
    },
    "kind": "user",
    "methods": {
      "ASSET_RECEIVER_ROLE()": {
        "notice": "Contracts that receive fees"
      },
      "SPICE_ROLE()": {
        "notice": "Spice role"
      },
      "STRATEGIST_ROLE()": {
        "notice": "Rebalance vault assets using ERC4626 client interface"
      },
      "USER_ROLE()": {
        "notice": "Contracts allowed to deposit"
      },
      "VAULT_ROLE()": {
        "notice": "Contracts that funds can be sent to"
      },
      "deposit(address,uint256,uint256)": {
        "notice": "See {IAggregatorVault-deposit}"
      },
      "initialize(address,address,address,uint256)": {
        "notice": "SpiceFi4626 constructor (for proxy)"
      },
      "maxTotalSupply()": {
        "notice": "Max Total Supply"
      },
      "mint(address,uint256,uint256)": {
        "notice": "See {IAggregatorVault-mint}"
      },
      "multisig()": {
        "notice": "Spice Multisig"
      },
      "pause()": {
        "notice": "trigger paused state"
      },
      "redeem(address,uint256,uint256)": {
        "notice": "See {IAggregatorVault-redeem}"
      },
      "setMaxTotalSupply(uint256)": {
        "notice": "set max total supply"
      },
      "setVerified(bool)": {
        "notice": "set verified"
      },
      "setWithdrawalFees(uint256)": {
        "notice": "set withdrawal fees"
      },
      "unpause()": {
        "notice": "return to normal state"
      },
      "verified()": {
        "notice": "Indicates whether the vault is verified or not"
      },
      "withdraw(address,uint256,uint256)": {
        "notice": "See {IAggregatorVault-withdraw}"
      },
      "withdrawalFees()": {
        "notice": "withdrawal fees per 10_000 units"
      }
    },
    "version": 1
  },
  "storageLayout": {
    "storage": [
      {
        "astId": 13145,
        "contract": "contracts/vaults/SpiceFi4626.sol:SpiceFi4626",
        "label": "withdrawalFees",
        "offset": 0,
        "slot": "0",
        "type": "t_uint256"
      },
      {
        "astId": 13148,
        "contract": "contracts/vaults/SpiceFi4626.sol:SpiceFi4626",
        "label": "maxTotalSupply",
        "offset": 0,
        "slot": "1",
        "type": "t_uint256"
      },
      {
        "astId": 13151,
        "contract": "contracts/vaults/SpiceFi4626.sol:SpiceFi4626",
        "label": "verified",
        "offset": 0,
        "slot": "2",
        "type": "t_bool"
      },
      {
        "astId": 1142,
        "contract": "contracts/vaults/SpiceFi4626.sol:SpiceFi4626",
        "label": "_initialized",
        "offset": 1,
        "slot": "2",
        "type": "t_uint8"
      },
      {
        "astId": 1145,
        "contract": "contracts/vaults/SpiceFi4626.sol:SpiceFi4626",
        "label": "_initializing",
        "offset": 2,
        "slot": "2",
        "type": "t_bool"
      },
      {
        "astId": 1124,
        "contract": "contracts/vaults/SpiceFi4626.sol:SpiceFi4626",
        "label": "__gap",
        "offset": 0,
        "slot": "3",
        "type": "t_array(t_uint256)50_storage"
      },
      {
        "astId": 1439,
        "contract": "contracts/vaults/SpiceFi4626.sol:SpiceFi4626",
        "label": "__gap",
        "offset": 0,
        "slot": "53",
        "type": "t_array(t_uint256)50_storage"
      },
      {
        "astId": 4793,
        "contract": "contracts/vaults/SpiceFi4626.sol:SpiceFi4626",
        "label": "__gap",
        "offset": 0,
        "slot": "103",
        "type": "t_array(t_uint256)50_storage"
      },
      {
        "astId": 1659,
        "contract": "contracts/vaults/SpiceFi4626.sol:SpiceFi4626",
        "label": "_balances",
        "offset": 0,
        "slot": "153",
        "type": "t_mapping(t_address,t_uint256)"
      },
      {
        "astId": 1665,
        "contract": "contracts/vaults/SpiceFi4626.sol:SpiceFi4626",
        "label": "_allowances",
        "offset": 0,
        "slot": "154",
        "type": "t_mapping(t_address,t_mapping(t_address,t_uint256))"
      },
      {
        "astId": 1667,
        "contract": "contracts/vaults/SpiceFi4626.sol:SpiceFi4626",
        "label": "_totalSupply",
        "offset": 0,
        "slot": "155",
        "type": "t_uint256"
      },
      {
        "astId": 1669,
        "contract": "contracts/vaults/SpiceFi4626.sol:SpiceFi4626",
        "label": "_name",
        "offset": 0,
        "slot": "156",
        "type": "t_string_storage"
      },
      {
        "astId": 1671,
        "contract": "contracts/vaults/SpiceFi4626.sol:SpiceFi4626",
        "label": "_symbol",
        "offset": 0,
        "slot": "157",
        "type": "t_string_storage"
      },
      {
        "astId": 2251,
        "contract": "contracts/vaults/SpiceFi4626.sol:SpiceFi4626",
        "label": "__gap",
        "offset": 0,
        "slot": "158",
        "type": "t_array(t_uint256)45_storage"
      },
      {
        "astId": 2350,
        "contract": "contracts/vaults/SpiceFi4626.sol:SpiceFi4626",
        "label": "_asset",
        "offset": 0,
        "slot": "203",
        "type": "t_contract(IERC20Upgradeable)2330"
      },
      {
        "astId": 2352,
        "contract": "contracts/vaults/SpiceFi4626.sol:SpiceFi4626",
        "label": "_decimals",
        "offset": 20,
        "slot": "203",
        "type": "t_uint8"
      },
      {
        "astId": 2983,
        "contract": "contracts/vaults/SpiceFi4626.sol:SpiceFi4626",
        "label": "__gap",
        "offset": 0,
        "slot": "204",
        "type": "t_array(t_uint256)49_storage"
      },
      {
        "astId": 1461,
        "contract": "contracts/vaults/SpiceFi4626.sol:SpiceFi4626",
        "label": "_paused",
        "offset": 0,
        "slot": "253",
        "type": "t_bool"
      },
      {
        "astId": 1566,
        "contract": "contracts/vaults/SpiceFi4626.sol:SpiceFi4626",
        "label": "__gap",
        "offset": 0,
        "slot": "254",
        "type": "t_array(t_uint256)49_storage"
      },
      {
        "astId": 5072,
        "contract": "contracts/vaults/SpiceFi4626.sol:SpiceFi4626",
        "label": "__gap",
        "offset": 0,
        "slot": "303",
        "type": "t_array(t_uint256)50_storage"
      },
      {
        "astId": 184,
        "contract": "contracts/vaults/SpiceFi4626.sol:SpiceFi4626",
        "label": "_roles",
        "offset": 0,
        "slot": "353",
        "type": "t_mapping(t_bytes32,t_struct(RoleData)179_storage)"
      },
      {
        "astId": 479,
        "contract": "contracts/vaults/SpiceFi4626.sol:SpiceFi4626",
        "label": "__gap",
        "offset": 0,
        "slot": "354",
        "type": "t_array(t_uint256)49_storage"
      },
      {
        "astId": 33,
        "contract": "contracts/vaults/SpiceFi4626.sol:SpiceFi4626",
        "label": "_roleMembers",
        "offset": 0,
        "slot": "403",
        "type": "t_mapping(t_bytes32,t_struct(AddressSet)6588_storage)"
      },
      {
        "astId": 143,
        "contract": "contracts/vaults/SpiceFi4626.sol:SpiceFi4626",
        "label": "__gap",
        "offset": 0,
        "slot": "404",
        "type": "t_array(t_uint256)49_storage"
      },
      {
        "astId": 1581,
        "contract": "contracts/vaults/SpiceFi4626.sol:SpiceFi4626",
        "label": "_status",
        "offset": 0,
        "slot": "453",
        "type": "t_uint256"
      },
      {
        "astId": 1639,
        "contract": "contracts/vaults/SpiceFi4626.sol:SpiceFi4626",
        "label": "__gap",
        "offset": 0,
        "slot": "454",
        "type": "t_array(t_uint256)49_storage"
      }
    ],
    "types": {
      "t_address": {
        "encoding": "inplace",
        "label": "address",
        "numberOfBytes": "20"
      },
      "t_array(t_bytes32)dyn_storage": {
        "base": "t_bytes32",
        "encoding": "dynamic_array",
        "label": "bytes32[]",
        "numberOfBytes": "32"
      },
      "t_array(t_uint256)45_storage": {
        "base": "t_uint256",
        "encoding": "inplace",
        "label": "uint256[45]",
        "numberOfBytes": "1440"
      },
      "t_array(t_uint256)49_storage": {
        "base": "t_uint256",
        "encoding": "inplace",
        "label": "uint256[49]",
        "numberOfBytes": "1568"
      },
      "t_array(t_uint256)50_storage": {
        "base": "t_uint256",
        "encoding": "inplace",
        "label": "uint256[50]",
        "numberOfBytes": "1600"
      },
      "t_bool": {
        "encoding": "inplace",
        "label": "bool",
        "numberOfBytes": "1"
      },
      "t_bytes32": {
        "encoding": "inplace",
        "label": "bytes32",
        "numberOfBytes": "32"
      },
      "t_contract(IERC20Upgradeable)2330": {
        "encoding": "inplace",
        "label": "contract IERC20Upgradeable",
        "numberOfBytes": "20"
      },
      "t_mapping(t_address,t_bool)": {
        "encoding": "mapping",
        "key": "t_address",
        "label": "mapping(address => bool)",
        "numberOfBytes": "32",
        "value": "t_bool"
      },
      "t_mapping(t_address,t_mapping(t_address,t_uint256))": {
        "encoding": "mapping",
        "key": "t_address",
        "label": "mapping(address => mapping(address => uint256))",
        "numberOfBytes": "32",
        "value": "t_mapping(t_address,t_uint256)"
      },
      "t_mapping(t_address,t_uint256)": {
        "encoding": "mapping",
        "key": "t_address",
        "label": "mapping(address => uint256)",
        "numberOfBytes": "32",
        "value": "t_uint256"
      },
      "t_mapping(t_bytes32,t_struct(AddressSet)6588_storage)": {
        "encoding": "mapping",
        "key": "t_bytes32",
        "label": "mapping(bytes32 => struct EnumerableSetUpgradeable.AddressSet)",
        "numberOfBytes": "32",
        "value": "t_struct(AddressSet)6588_storage"
      },
      "t_mapping(t_bytes32,t_struct(RoleData)179_storage)": {
        "encoding": "mapping",
        "key": "t_bytes32",
        "label": "mapping(bytes32 => struct AccessControlUpgradeable.RoleData)",
        "numberOfBytes": "32",
        "value": "t_struct(RoleData)179_storage"
      },
      "t_mapping(t_bytes32,t_uint256)": {
        "encoding": "mapping",
        "key": "t_bytes32",
        "label": "mapping(bytes32 => uint256)",
        "numberOfBytes": "32",
        "value": "t_uint256"
      },
      "t_string_storage": {
        "encoding": "bytes",
        "label": "string",
        "numberOfBytes": "32"
      },
      "t_struct(AddressSet)6588_storage": {
        "encoding": "inplace",
        "label": "struct EnumerableSetUpgradeable.AddressSet",
        "members": [
          {
            "astId": 6587,
            "contract": "contracts/vaults/SpiceFi4626.sol:SpiceFi4626",
            "label": "_inner",
            "offset": 0,
            "slot": "0",
            "type": "t_struct(Set)6273_storage"
          }
        ],
        "numberOfBytes": "64"
      },
      "t_struct(RoleData)179_storage": {
        "encoding": "inplace",
        "label": "struct AccessControlUpgradeable.RoleData",
        "members": [
          {
            "astId": 176,
            "contract": "contracts/vaults/SpiceFi4626.sol:SpiceFi4626",
            "label": "members",
            "offset": 0,
            "slot": "0",
            "type": "t_mapping(t_address,t_bool)"
          },
          {
            "astId": 178,
            "contract": "contracts/vaults/SpiceFi4626.sol:SpiceFi4626",
            "label": "adminRole",
            "offset": 0,
            "slot": "1",
            "type": "t_bytes32"
          }
        ],
        "numberOfBytes": "64"
      },
      "t_struct(Set)6273_storage": {
        "encoding": "inplace",
        "label": "struct EnumerableSetUpgradeable.Set",
        "members": [
          {
            "astId": 6268,
            "contract": "contracts/vaults/SpiceFi4626.sol:SpiceFi4626",
            "label": "_values",
            "offset": 0,
            "slot": "0",
            "type": "t_array(t_bytes32)dyn_storage"
          },
          {
            "astId": 6272,
            "contract": "contracts/vaults/SpiceFi4626.sol:SpiceFi4626",
            "label": "_indexes",
            "offset": 0,
            "slot": "1",
            "type": "t_mapping(t_bytes32,t_uint256)"
          }
        ],
        "numberOfBytes": "64"
      },
      "t_uint256": {
        "encoding": "inplace",
        "label": "uint256",
        "numberOfBytes": "32"
      },
      "t_uint8": {
        "encoding": "inplace",
        "label": "uint8",
        "numberOfBytes": "1"
      }
    }
  }
}