{
  "address": "0xBcf99505BE96721496E02000cCD15E97623a8D20",
  "abi": [
    {
      "inputs": [],
      "stateMutability": "nonpayable",
      "type": "constructor"
    },
    {
      "inputs": [],
      "name": "InsufficientBalance",
      "type": "error"
    },
    {
      "inputs": [],
      "name": "InvalidAddress",
      "type": "error"
    },
    {
      "inputs": [],
      "name": "NotWhitelisted",
      "type": "error"
    },
    {
      "inputs": [],
      "name": "ParameterOutOfBounds",
      "type": "error"
    },
    {
      "anonymous": false,
      "inputs": [
        {
          "indexed": false,
          "internalType": "address",
          "name": "previousAdmin",
          "type": "address"
        },
        {
          "indexed": false,
          "internalType": "address",
          "name": "newAdmin",
          "type": "address"
        }
      ],
      "name": "AdminChanged",
      "type": "event"
    },
    {
      "anonymous": false,
      "inputs": [
        {
          "indexed": true,
          "internalType": "address",
          "name": "owner",
          "type": "address"
        },
        {
          "indexed": true,
          "internalType": "address",
          "name": "spender",
          "type": "address"
        },
        {
          "indexed": false,
          "internalType": "uint256",
          "name": "value",
          "type": "uint256"
        }
      ],
      "name": "Approval",
      "type": "event"
    },
    {
      "anonymous": false,
      "inputs": [
        {
          "indexed": true,
          "internalType": "address",
          "name": "beacon",
          "type": "address"
        }
      ],
      "name": "BeaconUpgraded",
      "type": "event"
    },
    {
      "anonymous": false,
      "inputs": [
        {
          "indexed": true,
          "internalType": "address",
          "name": "sender",
          "type": "address"
        },
        {
          "indexed": true,
          "internalType": "address",
          "name": "owner",
          "type": "address"
        },
        {
          "indexed": false,
          "internalType": "uint256",
          "name": "assets",
          "type": "uint256"
        },
        {
          "indexed": false,
          "internalType": "uint256",
          "name": "shares",
          "type": "uint256"
        }
      ],
      "name": "Deposit",
      "type": "event"
    },
    {
      "anonymous": false,
      "inputs": [
        {
          "indexed": false,
          "internalType": "uint8",
          "name": "version",
          "type": "uint8"
        }
      ],
      "name": "Initialized",
      "type": "event"
    },
    {
      "anonymous": false,
      "inputs": [
        {
          "indexed": false,
          "internalType": "address",
          "name": "account",
          "type": "address"
        }
      ],
      "name": "Paused",
      "type": "event"
    },
    {
      "anonymous": false,
      "inputs": [
        {
          "indexed": true,
          "internalType": "address",
          "name": "account",
          "type": "address"
        },
        {
          "indexed": false,
          "internalType": "uint256",
          "name": "shares",
          "type": "uint256"
        },
        {
          "indexed": false,
          "internalType": "uint256",
          "name": "assets",
          "type": "uint256"
        }
      ],
      "name": "Redeemed",
      "type": "event"
    },
    {
      "anonymous": false,
      "inputs": [
        {
          "indexed": true,
          "internalType": "bytes32",
          "name": "role",
          "type": "bytes32"
        },
        {
          "indexed": true,
          "internalType": "bytes32",
          "name": "previousAdminRole",
          "type": "bytes32"
        },
        {
          "indexed": true,
          "internalType": "bytes32",
          "name": "newAdminRole",
          "type": "bytes32"
        }
      ],
      "name": "RoleAdminChanged",
      "type": "event"
    },
    {
      "anonymous": false,
      "inputs": [
        {
          "indexed": true,
          "internalType": "bytes32",
          "name": "role",
          "type": "bytes32"
        },
        {
          "indexed": true,
          "internalType": "address",
          "name": "account",
          "type": "address"
        },
        {
          "indexed": true,
          "internalType": "address",
          "name": "sender",
          "type": "address"
        }
      ],
      "name": "RoleGranted",
      "type": "event"
    },
    {
      "anonymous": false,
      "inputs": [
        {
          "indexed": true,
          "internalType": "bytes32",
          "name": "role",
          "type": "bytes32"
        },
        {
          "indexed": true,
          "internalType": "address",
          "name": "account",
          "type": "address"
        },
        {
          "indexed": true,
          "internalType": "address",
          "name": "sender",
          "type": "address"
        }
      ],
      "name": "RoleRevoked",
      "type": "event"
    },
    {
      "anonymous": false,
      "inputs": [
        {
          "indexed": false,
          "internalType": "uint256",
          "name": "totalAssets",
          "type": "uint256"
        }
      ],
      "name": "TotalAssets",
      "type": "event"
    },
    {
      "anonymous": false,
      "inputs": [
        {
          "indexed": true,
          "internalType": "address",
          "name": "from",
          "type": "address"
        },
        {
          "indexed": true,
          "internalType": "address",
          "name": "to",
          "type": "address"
        },
        {
          "indexed": false,
          "internalType": "uint256",
          "name": "value",
          "type": "uint256"
        }
      ],
      "name": "Transfer",
      "type": "event"
    },
    {
      "anonymous": false,
      "inputs": [
        {
          "indexed": false,
          "internalType": "address",
          "name": "account",
          "type": "address"
        }
      ],
      "name": "Unpaused",
      "type": "event"
    },
    {
      "anonymous": false,
      "inputs": [
        {
          "indexed": true,
          "internalType": "address",
          "name": "implementation",
          "type": "address"
        }
      ],
      "name": "Upgraded",
      "type": "event"
    },
    {
      "anonymous": false,
      "inputs": [
        {
          "indexed": true,
          "internalType": "address",
          "name": "sender",
          "type": "address"
        },
        {
          "indexed": true,
          "internalType": "address",
          "name": "receiver",
          "type": "address"
        },
        {
          "indexed": true,
          "internalType": "address",
          "name": "owner",
          "type": "address"
        },
        {
          "indexed": false,
          "internalType": "uint256",
          "name": "assets",
          "type": "uint256"
        },
        {
          "indexed": false,
          "internalType": "uint256",
          "name": "shares",
          "type": "uint256"
        }
      ],
      "name": "Withdraw",
      "type": "event"
    },
    {
      "anonymous": false,
      "inputs": [
        {
          "indexed": false,
          "internalType": "uint256",
          "name": "withdrawalFees",
          "type": "uint256"
        }
      ],
      "name": "WithdrawalFeeRateUpdated",
      "type": "event"
    },
    {
      "anonymous": false,
      "inputs": [
        {
          "indexed": true,
          "internalType": "address",
          "name": "account",
          "type": "address"
        },
        {
          "indexed": false,
          "internalType": "uint256",
          "name": "assets",
          "type": "uint256"
        }
      ],
      "name": "Withdrawn",
      "type": "event"
    },
    {
      "inputs": [],
      "name": "ASSET_RECEIVER_ROLE",
      "outputs": [
        {
          "internalType": "bytes32",
          "name": "",
          "type": "bytes32"
        }
      ],
      "stateMutability": "view",
      "type": "function"
    },
    {
      "inputs": [],
      "name": "BIDDER_ROLE",
      "outputs": [
        {
          "internalType": "bytes32",
          "name": "",
          "type": "bytes32"
        }
      ],
      "stateMutability": "view",
      "type": "function"
    },
    {
      "inputs": [],
      "name": "DEFAULT_ADMIN_ROLE",
      "outputs": [
        {
          "internalType": "bytes32",
          "name": "",
          "type": "bytes32"
        }
      ],
      "stateMutability": "view",
      "type": "function"
    },
    {
      "inputs": [],
      "name": "IMPLEMENTATION_VERSION",
      "outputs": [
        {
          "internalType": "string",
          "name": "",
          "type": "string"
        }
      ],
      "stateMutability": "view",
      "type": "function"
    },
    {
      "inputs": [],
      "name": "KEEPER_ROLE",
      "outputs": [
        {
          "internalType": "bytes32",
          "name": "",
          "type": "bytes32"
        }
      ],
      "stateMutability": "view",
      "type": "function"
    },
    {
      "inputs": [],
      "name": "LIQUIDATOR_ROLE",
      "outputs": [
        {
          "internalType": "bytes32",
          "name": "",
          "type": "bytes32"
        }
      ],
      "stateMutability": "view",
      "type": "function"
    },
    {
      "inputs": [],
      "name": "MARKETPLACE_ROLE",
      "outputs": [
        {
          "internalType": "bytes32",
          "name": "",
          "type": "bytes32"
        }
      ],
      "stateMutability": "view",
      "type": "function"
    },
    {
      "inputs": [],
      "name": "WHITELIST_ROLE",
      "outputs": [
        {
          "internalType": "bytes32",
          "name": "",
          "type": "bytes32"
        }
      ],
      "stateMutability": "view",
      "type": "function"
    },
    {
      "inputs": [
        {
          "internalType": "address",
          "name": "owner",
          "type": "address"
        },
        {
          "internalType": "address",
          "name": "spender",
          "type": "address"
        }
      ],
      "name": "allowance",
      "outputs": [
        {
          "internalType": "uint256",
          "name": "",
          "type": "uint256"
        }
      ],
      "stateMutability": "view",
      "type": "function"
    },
    {
      "inputs": [
        {
          "internalType": "address",
          "name": "spender",
          "type": "address"
        },
        {
          "internalType": "uint256",
          "name": "amount",
          "type": "uint256"
        }
      ],
      "name": "approve",
      "outputs": [
        {
          "internalType": "bool",
          "name": "",
          "type": "bool"
        }
      ],
      "stateMutability": "nonpayable",
      "type": "function"
    },
    {
      "inputs": [
        {
          "internalType": "address",
          "name": "spender",
          "type": "address"
        },
        {
          "internalType": "uint256",
          "name": "amount",
          "type": "uint256"
        }
      ],
      "name": "approveAsset",
      "outputs": [],
      "stateMutability": "nonpayable",
      "type": "function"
    },
    {
      "inputs": [],
      "name": "asset",
      "outputs": [
        {
          "internalType": "address",
          "name": "",
          "type": "address"
        }
      ],
      "stateMutability": "view",
      "type": "function"
    },
    {
      "inputs": [
        {
          "internalType": "address",
          "name": "account",
          "type": "address"
        }
      ],
      "name": "balanceOf",
      "outputs": [
        {
          "internalType": "uint256",
          "name": "",
          "type": "uint256"
        }
      ],
      "stateMutability": "view",
      "type": "function"
    },
    {
      "inputs": [
        {
          "internalType": "uint256",
          "name": "shares",
          "type": "uint256"
        }
      ],
      "name": "convertToAssets",
      "outputs": [
        {
          "internalType": "uint256",
          "name": "",
          "type": "uint256"
        }
      ],
      "stateMutability": "view",
      "type": "function"
    },
    {
      "inputs": [
        {
          "internalType": "uint256",
          "name": "assets",
          "type": "uint256"
        }
      ],
      "name": "convertToShares",
      "outputs": [
        {
          "internalType": "uint256",
          "name": "",
          "type": "uint256"
        }
      ],
      "stateMutability": "view",
      "type": "function"
    },
    {
      "inputs": [],
      "name": "decimals",
      "outputs": [
        {
          "internalType": "uint8",
          "name": "",
          "type": "uint8"
        }
      ],
      "stateMutability": "view",
      "type": "function"
    },
    {
      "inputs": [
        {
          "internalType": "address",
          "name": "spender",
          "type": "address"
        },
        {
          "internalType": "uint256",
          "name": "subtractedValue",
          "type": "uint256"
        }
      ],
      "name": "decreaseAllowance",
      "outputs": [
        {
          "internalType": "bool",
          "name": "",
          "type": "bool"
        }
      ],
      "stateMutability": "nonpayable",
      "type": "function"
    },
    {
      "inputs": [
        {
          "internalType": "uint256",
          "name": "assets",
          "type": "uint256"
        },
        {
          "internalType": "address",
          "name": "receiver",
          "type": "address"
        }
      ],
      "name": "deposit",
      "outputs": [
        {
          "internalType": "uint256",
          "name": "shares",
          "type": "uint256"
        }
      ],
      "stateMutability": "nonpayable",
      "type": "function"
    },
    {
      "inputs": [
        {
          "internalType": "bytes32",
          "name": "role",
          "type": "bytes32"
        }
      ],
      "name": "getRoleAdmin",
      "outputs": [
        {
          "internalType": "bytes32",
          "name": "",
          "type": "bytes32"
        }
      ],
      "stateMutability": "view",
      "type": "function"
    },
    {
      "inputs": [
        {
          "internalType": "bytes32",
          "name": "role",
          "type": "bytes32"
        },
        {
          "internalType": "uint256",
          "name": "index",
          "type": "uint256"
        }
      ],
      "name": "getRoleMember",
      "outputs": [
        {
          "internalType": "address",
          "name": "",
          "type": "address"
        }
      ],
      "stateMutability": "view",
      "type": "function"
    },
    {
      "inputs": [
        {
          "internalType": "bytes32",
          "name": "role",
          "type": "bytes32"
        }
      ],
      "name": "getRoleMemberCount",
      "outputs": [
        {
          "internalType": "uint256",
          "name": "",
          "type": "uint256"
        }
      ],
      "stateMutability": "view",
      "type": "function"
    },
    {
      "inputs": [
        {
          "internalType": "bytes32",
          "name": "role",
          "type": "bytes32"
        },
        {
          "internalType": "address",
          "name": "account",
          "type": "address"
        }
      ],
      "name": "grantRole",
      "outputs": [],
      "stateMutability": "nonpayable",
      "type": "function"
    },
    {
      "inputs": [
        {
          "internalType": "bytes32",
          "name": "role",
          "type": "bytes32"
        },
        {
          "internalType": "address",
          "name": "account",
          "type": "address"
        }
      ],
      "name": "hasRole",
      "outputs": [
        {
          "internalType": "bool",
          "name": "",
          "type": "bool"
        }
      ],
      "stateMutability": "view",
      "type": "function"
    },
    {
      "inputs": [
        {
          "internalType": "address",
          "name": "spender",
          "type": "address"
        },
        {
          "internalType": "uint256",
          "name": "addedValue",
          "type": "uint256"
        }
      ],
      "name": "increaseAllowance",
      "outputs": [
        {
          "internalType": "bool",
          "name": "",
          "type": "bool"
        }
      ],
      "stateMutability": "nonpayable",
      "type": "function"
    },
    {
      "inputs": [
        {
          "internalType": "string",
          "name": "name_",
          "type": "string"
        },
        {
          "internalType": "string",
          "name": "symbol_",
          "type": "string"
        },
        {
          "internalType": "contract IERC20Upgradeable",
          "name": "asset_",
          "type": "address"
        },
        {
          "internalType": "uint256",
          "name": "withdrawalFees_",
          "type": "uint256"
        }
      ],
      "name": "initialize",
      "outputs": [],
      "stateMutability": "nonpayable",
      "type": "function"
    },
    {
      "inputs": [
        {
          "internalType": "bytes32",
          "name": "hash",
          "type": "bytes32"
        },
        {
          "internalType": "bytes",
          "name": "signature",
          "type": "bytes"
        }
      ],
      "name": "isValidSignature",
      "outputs": [
        {
          "internalType": "bytes4",
          "name": "magicValue",
          "type": "bytes4"
        }
      ],
      "stateMutability": "view",
      "type": "function"
    },
    {
      "inputs": [
        {
          "internalType": "address",
          "name": "",
          "type": "address"
        }
      ],
      "name": "maxDeposit",
      "outputs": [
        {
          "internalType": "uint256",
          "name": "",
          "type": "uint256"
        }
      ],
      "stateMutability": "pure",
      "type": "function"
    },
    {
      "inputs": [
        {
          "internalType": "address",
          "name": "",
          "type": "address"
        }
      ],
      "name": "maxMint",
      "outputs": [
        {
          "internalType": "uint256",
          "name": "",
          "type": "uint256"
        }
      ],
      "stateMutability": "pure",
      "type": "function"
    },
    {
      "inputs": [
        {
          "internalType": "address",
          "name": "owner",
          "type": "address"
        }
      ],
      "name": "maxRedeem",
      "outputs": [
        {
          "internalType": "uint256",
          "name": "",
          "type": "uint256"
        }
      ],
      "stateMutability": "view",
      "type": "function"
    },
    {
      "inputs": [
        {
          "internalType": "address",
          "name": "owner",
          "type": "address"
        }
      ],
      "name": "maxWithdraw",
      "outputs": [
        {
          "internalType": "uint256",
          "name": "",
          "type": "uint256"
        }
      ],
      "stateMutability": "view",
      "type": "function"
    },
    {
      "inputs": [
        {
          "internalType": "uint256",
          "name": "shares",
          "type": "uint256"
        },
        {
          "internalType": "address",
          "name": "receiver",
          "type": "address"
        }
      ],
      "name": "mint",
      "outputs": [
        {
          "internalType": "uint256",
          "name": "assets",
          "type": "uint256"
        }
      ],
      "stateMutability": "nonpayable",
      "type": "function"
    },
    {
      "inputs": [],
      "name": "name",
      "outputs": [
        {
          "internalType": "string",
          "name": "",
          "type": "string"
        }
      ],
      "stateMutability": "view",
      "type": "function"
    },
    {
      "inputs": [
        {
          "internalType": "address",
          "name": "",
          "type": "address"
        },
        {
          "internalType": "address",
          "name": "",
          "type": "address"
        },
        {
          "internalType": "uint256",
          "name": "",
          "type": "uint256"
        },
        {
          "internalType": "bytes",
          "name": "",
          "type": "bytes"
        }
      ],
      "name": "onERC721Received",
      "outputs": [
        {
          "internalType": "bytes4",
          "name": "",
          "type": "bytes4"
        }
      ],
      "stateMutability": "nonpayable",
      "type": "function"
    },
    {
      "inputs": [],
      "name": "pause",
      "outputs": [],
      "stateMutability": "nonpayable",
      "type": "function"
    },
    {
      "inputs": [],
      "name": "paused",
      "outputs": [
        {
          "internalType": "bool",
          "name": "",
          "type": "bool"
        }
      ],
      "stateMutability": "view",
      "type": "function"
    },
    {
      "inputs": [
        {
          "internalType": "uint256",
          "name": "assets",
          "type": "uint256"
        }
      ],
      "name": "previewDeposit",
      "outputs": [
        {
          "internalType": "uint256",
          "name": "",
          "type": "uint256"
        }
      ],
      "stateMutability": "view",
      "type": "function"
    },
    {
      "inputs": [
        {
          "internalType": "uint256",
          "name": "shares",
          "type": "uint256"
        }
      ],
      "name": "previewMint",
      "outputs": [
        {
          "internalType": "uint256",
          "name": "",
          "type": "uint256"
        }
      ],
      "stateMutability": "view",
      "type": "function"
    },
    {
      "inputs": [
        {
          "internalType": "uint256",
          "name": "shares",
          "type": "uint256"
        }
      ],
      "name": "previewRedeem",
      "outputs": [
        {
          "internalType": "uint256",
          "name": "",
          "type": "uint256"
        }
      ],
      "stateMutability": "view",
      "type": "function"
    },
    {
      "inputs": [
        {
          "internalType": "uint256",
          "name": "assets",
          "type": "uint256"
        }
      ],
      "name": "previewWithdraw",
      "outputs": [
        {
          "internalType": "uint256",
          "name": "",
          "type": "uint256"
        }
      ],
      "stateMutability": "view",
      "type": "function"
    },
    {
      "inputs": [],
      "name": "proxiableUUID",
      "outputs": [
        {
          "internalType": "bytes32",
          "name": "",
          "type": "bytes32"
        }
      ],
      "stateMutability": "view",
      "type": "function"
    },
    {
      "inputs": [
        {
          "internalType": "uint256",
          "name": "shares",
          "type": "uint256"
        },
        {
          "internalType": "address",
          "name": "receiver",
          "type": "address"
        },
        {
          "internalType": "address",
          "name": "owner",
          "type": "address"
        }
      ],
      "name": "redeem",
      "outputs": [
        {
          "internalType": "uint256",
          "name": "assets",
          "type": "uint256"
        }
      ],
      "stateMutability": "nonpayable",
      "type": "function"
    },
    {
      "inputs": [
        {
          "internalType": "bytes32",
          "name": "role",
          "type": "bytes32"
        },
        {
          "internalType": "address",
          "name": "account",
          "type": "address"
        }
      ],
      "name": "renounceRole",
      "outputs": [],
      "stateMutability": "nonpayable",
      "type": "function"
    },
    {
      "inputs": [
        {
          "internalType": "bytes32",
          "name": "role",
          "type": "bytes32"
        },
        {
          "internalType": "address",
          "name": "account",
          "type": "address"
        }
      ],
      "name": "revokeRole",
      "outputs": [],
      "stateMutability": "nonpayable",
      "type": "function"
    },
    {
      "inputs": [
        {
          "internalType": "uint256",
          "name": "totalAssets_",
          "type": "uint256"
        }
      ],
      "name": "setTotalAssets",
      "outputs": [],
      "stateMutability": "nonpayable",
      "type": "function"
    },
    {
      "inputs": [
        {
          "internalType": "uint256",
          "name": "withdrawalFees",
          "type": "uint256"
        }
      ],
      "name": "setWithdrawalFees",
      "outputs": [],
      "stateMutability": "nonpayable",
      "type": "function"
    },
    {
      "inputs": [
        {
          "internalType": "bytes4",
          "name": "interfaceId",
          "type": "bytes4"
        }
      ],
      "name": "supportsInterface",
      "outputs": [
        {
          "internalType": "bool",
          "name": "",
          "type": "bool"
        }
      ],
      "stateMutability": "view",
      "type": "function"
    },
    {
      "inputs": [],
      "name": "symbol",
      "outputs": [
        {
          "internalType": "string",
          "name": "",
          "type": "string"
        }
      ],
      "stateMutability": "view",
      "type": "function"
    },
    {
      "inputs": [],
      "name": "totalAssets",
      "outputs": [
        {
          "internalType": "uint256",
          "name": "",
          "type": "uint256"
        }
      ],
      "stateMutability": "view",
      "type": "function"
    },
    {
      "inputs": [],
      "name": "totalSupply",
      "outputs": [
        {
          "internalType": "uint256",
          "name": "",
          "type": "uint256"
        }
      ],
      "stateMutability": "view",
      "type": "function"
    },
    {
      "inputs": [
        {
          "internalType": "address",
          "name": "to",
          "type": "address"
        },
        {
          "internalType": "uint256",
          "name": "amount",
          "type": "uint256"
        }
      ],
      "name": "transfer",
      "outputs": [
        {
          "internalType": "bool",
          "name": "",
          "type": "bool"
        }
      ],
      "stateMutability": "nonpayable",
      "type": "function"
    },
    {
      "inputs": [
        {
          "internalType": "address",
          "name": "from",
          "type": "address"
        },
        {
          "internalType": "address",
          "name": "to",
          "type": "address"
        },
        {
          "internalType": "uint256",
          "name": "amount",
          "type": "uint256"
        }
      ],
      "name": "transferFrom",
      "outputs": [
        {
          "internalType": "bool",
          "name": "",
          "type": "bool"
        }
      ],
      "stateMutability": "nonpayable",
      "type": "function"
    },
    {
      "inputs": [
        {
          "internalType": "address",
          "name": "nft",
          "type": "address"
        },
        {
          "internalType": "uint256",
          "name": "nftId",
          "type": "uint256"
        }
      ],
      "name": "transferNFT",
      "outputs": [],
      "stateMutability": "nonpayable",
      "type": "function"
    },
    {
      "inputs": [],
      "name": "unpause",
      "outputs": [],
      "stateMutability": "nonpayable",
      "type": "function"
    },
    {
      "inputs": [
        {
          "internalType": "address",
          "name": "newImplementation",
          "type": "address"
        }
      ],
      "name": "upgradeTo",
      "outputs": [],
      "stateMutability": "nonpayable",
      "type": "function"
    },
    {
      "inputs": [
        {
          "internalType": "address",
          "name": "newImplementation",
          "type": "address"
        },
        {
          "internalType": "bytes",
          "name": "data",
          "type": "bytes"
        }
      ],
      "name": "upgradeToAndCall",
      "outputs": [],
      "stateMutability": "payable",
      "type": "function"
    },
    {
      "inputs": [
        {
          "internalType": "uint256",
          "name": "assets",
          "type": "uint256"
        },
        {
          "internalType": "address",
          "name": "receiver",
          "type": "address"
        },
        {
          "internalType": "address",
          "name": "owner",
          "type": "address"
        }
      ],
      "name": "withdraw",
      "outputs": [
        {
          "internalType": "uint256",
          "name": "shares",
          "type": "uint256"
        }
      ],
      "stateMutability": "nonpayable",
      "type": "function"
    }
  ],
  "transactionHash": "0xa2c4bf4c60f786792f1d6e602a10161687ce70cd58392299bd30e84cf5b1d50c",
  "args": [],
  "numDeployments": 1,
  "solcInputHash": "0d2daa9b8f7af8b473760ede7b74e997",
  "bytecode": "0x60a0604052306080523480156200001557600080fd5b506200002062000026565b620000e8565b600354610100900460ff1615620000935760405162461bcd60e51b815260206004820152602760248201527f496e697469616c697a61626c653a20636f6e747261637420697320696e697469604482015266616c697a696e6760c81b606482015260840160405180910390fd5b60035460ff9081161015620000e6576003805460ff191660ff9081179091556040519081527f7f26b83ff96e1f2b6a682f133852f6798a09c465da95921460cefb38474024989060200160405180910390a15b565b608051613b486200012060003960008181610db301528181610df301528181610fd50152818161101501526110a40152613b486000f3fe60806040526004361061036b5760003560e01c806366f89081116101c6578063a9059cbb116100f7578063ca15c87311610095578063d905777e1161006f578063d905777e14610a78578063dd62ed3e14610a98578063ef8b30f7146109f8578063f542033f14610ab857600080fd5b8063ca15c87314610a18578063ce96cb7714610a38578063d547741f14610a5857600080fd5b8063ba087652116100d1578063ba087652146109a4578063c3439f3f146109c4578063c63d75b6146106b5578063c6e6f592146109f857600080fd5b8063a9059cbb14610944578063b3d7f6b914610964578063b460af941461098457600080fd5b80639010d07c1161016457806394bf804d1161013e57806394bf804d146108da57806395d89b41146108fa578063a217fddf1461090f578063a457c2d71461092457600080fd5b80639010d07c1461087a57806391d148541461089a57806394ab67fe146108ba57600080fd5b806370a08231116101a057806370a08231146107cc578063754b377c146108025780637a997ab7146108315780638456cb591461086557600080fd5b806366f89081146107585780636e553f65146107785780636e95cabd1461079857600080fd5b80632f2ff15d116102a05780633f4ba83a1161023e5780634cdad506116102185780634cdad506146106f75780634f1ef2861461071757806352d1902d1461072a5780635c975abb1461073f57600080fd5b80633f4ba83a146106a0578063402d267d146106b5578063497a8125146106d757600080fd5b806336568abe1161027a57806336568abe1461060e5780633659cfe61461062e57806338d52e0f1461064e578063395093511461068057600080fd5b80632f2ff15d1461058e578063313ce567146105ae578063364bc15a146105da57600080fd5b8063150b7a021161030d5780631765b313116102e75780631765b3131461050757806318160ddd1461052957806323b872dd1461053e578063248a9ca31461055e57600080fd5b8063150b7a021461047a5780631626ba7e146104b357806316d8887a146104d357600080fd5b806307a2d13a1161034957806307a2d13a146103e6578063095ea7b3146104065780630a28a477146104265780630ce526d11461044657600080fd5b806301e1d1141461037057806301ffc9a71461039457806306fdde03146103c4575b600080fd5b34801561037c57600080fd5b506002545b6040519081526020015b60405180910390f35b3480156103a057600080fd5b506103b46103af366004613279565b610ad8565b604051901515815260200161038b565b3480156103d057600080fd5b506103d9610b03565b60405161038b91906132c7565b3480156103f257600080fd5b506103816104013660046132fa565b610b95565b34801561041257600080fd5b506103b4610421366004613328565b610ba2565b34801561043257600080fd5b506103816104413660046132fa565b610bba565b34801561045257600080fd5b506103817f80f9b792196f21120f021903634877a78a3dd5e8ef643701b99dae7bb938062d81565b34801561048657600080fd5b5061049a6104953660046133f7565b610be4565b6040516001600160e01b0319909116815260200161038b565b3480156104bf57600080fd5b5061049a6104ce366004613463565b610bf5565b3480156104df57600080fd5b506103817f5e17fc5225d4a099df75359ce1f405503ca79498a8dc46a7d583235a0ee45c1681565b34801561051357600080fd5b506105276105223660046132fa565b610c6f565b005b34801561053557600080fd5b50609c54610381565b34801561054a57600080fd5b506103b46105593660046134aa565b610cd6565b34801561056a57600080fd5b506103816105793660046132fa565b600090815260fe602052604090206001015490565b34801561059a57600080fd5b506105276105a93660046134eb565b610cfc565b3480156105ba57600080fd5b50600054600160a01b900460ff1660405160ff909116815260200161038b565b3480156105e657600080fd5b506103817ffc8737ab85eb45125971625a9ebdb75cc78e01d5c1fa80c4c6e5203f47bc4fab81565b34801561061a57600080fd5b506105276106293660046134eb565b610d26565b34801561063a57600080fd5b5061052761064936600461351b565b610da9565b34801561065a57600080fd5b506000546001600160a01b03165b6040516001600160a01b03909116815260200161038b565b34801561068c57600080fd5b506103b461069b366004613328565b610e88565b3480156106ac57600080fd5b50610527610eaa565b3480156106c157600080fd5b506103816106d036600461351b565b5060001990565b3480156106e357600080fd5b506105276106f2366004613328565b610ebd565b34801561070357600080fd5b506103816107123660046132fa565b610fa2565b610527610725366004613538565b610fcb565b34801561073657600080fd5b50610381611097565b34801561074b57600080fd5b506101625460ff166103b4565b34801561076457600080fd5b506105276107733660046132fa565b61114a565b34801561078457600080fd5b506103816107933660046134eb565b6111ad565b3480156107a457600080fd5b506103817f419682485a4d899a3e911be267c1b40c528840983eb762a6f384130c1e0930e381565b3480156107d857600080fd5b506103816107e736600461351b565b6001600160a01b03166000908152609a602052604090205490565b34801561080e57600080fd5b506103d9604051806040016040528060038152602001620312e360ec1b81525081565b34801561083d57600080fd5b506103817fdc72ed553f2544c34465af23b847953efeb813428162d767f9ba5f4013be676081565b34801561087157600080fd5b5061052761121a565b34801561088657600080fd5b50610668610895366004613572565b61122d565b3480156108a657600080fd5b506103b46108b53660046134eb565b611246565b3480156108c657600080fd5b506105276108d5366004613328565b611271565b3480156108e657600080fd5b506103816108f53660046134eb565b611387565b34801561090657600080fd5b506103d96113e9565b34801561091b57600080fd5b50610381600081565b34801561093057600080fd5b506103b461093f366004613328565b6113f8565b34801561095057600080fd5b506103b461095f366004613328565b61147e565b34801561097057600080fd5b5061038161097f3660046132fa565b61148c565b34801561099057600080fd5b5061038161099f366004613594565b611499565b3480156109b057600080fd5b506103816109bf366004613594565b611534565b3480156109d057600080fd5b506103817f0ea61da3a8a09ad801432653699f8c1860b1ae9d2ea4a141fadfd63227717bc881565b348015610a0457600080fd5b50610381610a133660046132fa565b6115c1565b348015610a2457600080fd5b50610381610a333660046132fa565b6115ce565b348015610a4457600080fd5b50610381610a5336600461351b565b6115e6565b348015610a6457600080fd5b50610527610a733660046134eb565b61162e565b348015610a8457600080fd5b50610381610a9336600461351b565b611653565b348015610aa457600080fd5b50610381610ab33660046135d6565b61168a565b348015610ac457600080fd5b50610527610ad3366004613646565b6116b5565b60006001600160e01b03198216635a05180f60e01b1480610afd5750610afd826119be565b92915050565b6060609d8054610b12906136d2565b80601f0160208091040260200160405190810160405280929190818152602001828054610b3e906136d2565b8015610b8b5780601f10610b6057610100808354040283529160200191610b8b565b820191906000526020600020905b815481529060010190602001808311610b6e57829003601f168201915b5050505050905090565b6000610afd8260006119f3565b600033610bb0818585611a29565b5060019392505050565b6000610afd610bdd612710600154612710610bd59190613722565b859190611b4d565b6001611bfc565b630a85bd0160e11b5b949350505050565b6000806000610c048585611c2f565b90925090506000816004811115610c1d57610c1d613735565b148015610c455750610c3060008061122d565b6001600160a01b0316826001600160a01b0316145b15610c5c5750630b135d3f60e11b9150610afd9050565b506001600160e01b03199150610afd9050565b7ffc8737ab85eb45125971625a9ebdb75cc78e01d5c1fa80c4c6e5203f47bc4fab610c9981611c74565b60028290556040518281527fd36ee23a576f18c4de50a7e9d785ea5fecea0295a58722005f8a2bd070508df5906020015b60405180910390a15050565b600033610ce4858285611c7e565b610cef858585611cf8565b60019150505b9392505050565b600082815260fe6020526040902060010154610d1781611c74565b610d218383611ea3565b505050565b6001600160a01b0381163314610d9b5760405162461bcd60e51b815260206004820152602f60248201527f416363657373436f6e74726f6c3a2063616e206f6e6c792072656e6f756e636560448201526e103937b632b9903337b91039b2b63360891b60648201526084015b60405180910390fd5b610da58282611ec6565b5050565b6001600160a01b037f0000000000000000000000000000000000000000000000000000000000000000163003610df15760405162461bcd60e51b8152600401610d929061374b565b7f00000000000000000000000000000000000000000000000000000000000000006001600160a01b0316610e3a600080516020613acc833981519152546001600160a01b031690565b6001600160a01b031614610e605760405162461bcd60e51b8152600401610d9290613797565b610e6981611ee9565b60408051600080825260208201909252610e8591839190611ef4565b50565b600033610bb0818585610e9b838361168a565b610ea591906137e3565b611a29565b6000610eb581611c74565b610e8561205f565b610ee77f80f9b792196f21120f021903634877a78a3dd5e8ef643701b99dae7bb938062d33611246565b80610ef85750610ef8600033611246565b610f0157600080fd5b610f2b7f0ea61da3a8a09ad801432653699f8c1860b1ae9d2ea4a141fadfd63227717bc8836120b2565b60005460405163095ea7b360e01b81526001600160a01b038481166004830152602482018490529091169063095ea7b3906044016020604051808303816000875af1158015610f7e573d6000803e3d6000fd5b505050506040513d601f19601f82011682018060405250810190610d2191906137f6565b6000610afd610fc4600154612710610fba9190613722565b8490612710611b4d565b60006119f3565b6001600160a01b037f00000000000000000000000000000000000000000000000000000000000000001630036110135760405162461bcd60e51b8152600401610d929061374b565b7f00000000000000000000000000000000000000000000000000000000000000006001600160a01b031661105c600080516020613acc833981519152546001600160a01b031690565b6001600160a01b0316146110825760405162461bcd60e51b8152600401610d9290613797565b61108b82611ee9565b610da582826001611ef4565b6000306001600160a01b037f000000000000000000000000000000000000000000000000000000000000000016146111375760405162461bcd60e51b815260206004820152603860248201527f555550535570677261646561626c653a206d757374206e6f742062652063616c60448201527f6c6564207468726f7567682064656c656761746563616c6c00000000000000006064820152608401610d92565b50600080516020613acc83398151915290565b600061115581611c74565b61271082111561117857604051631168860160e01b815260040160405180910390fd5b60018290556040518281527f5ad5a5610bf17c59c7c6c81db49613989fb650e74d98d24827244e8f146bff8190602001610cca565b60006111b761210b565b6111bf612154565b826000036111e057604051631168860160e01b815260040160405180910390fd5b6111e9836115c1565b90506111f7338483856121af565b60005461120f906001600160a01b031633308661229a565b610afd600161019455565b600061122581611c74565b610e8561230d565b600082815261013060205260408120610cf5908361234b565b600091825260fe602090815260408084206001600160a01b0393909316845291905290205460ff1690565b7f5e17fc5225d4a099df75359ce1f405503ca79498a8dc46a7d583235a0ee45c1661129b81611c74565b6040516331a9108f60e11b815260048101839052839030906001600160a01b03831690636352211e90602401602060405180830381865afa1580156112e4573d6000803e3d6000fd5b505050506040513d601f19601f820116820180604052508101906113089190613818565b6001600160a01b03161461131b57600080fd5b604051632142170760e11b8152306004820152336024820152604481018490526001600160a01b038216906342842e0e90606401600060405180830381600087803b15801561136957600080fd5b505af115801561137d573d6000803e3d6000fd5b5050505050505050565b600061139161210b565b611399612154565b826000036113ba57604051631168860160e01b815260040160405180910390fd5b6113c38361148c565b90506113d1338285856121af565b60005461120f906001600160a01b031633308461229a565b6060609e8054610b12906136d2565b60003381611406828661168a565b9050838110156114665760405162461bcd60e51b815260206004820152602560248201527f45524332303a2064656372656173656420616c6c6f77616e63652062656c6f77604482015264207a65726f60d81b6064820152608401610d92565b6114738286868403611a29565b506001949350505050565b600033610bb0818585611cf8565b6000610afd8260016119f3565b60006114a361210b565b6114ab612154565b6001600160a01b0383166114d25760405163e6c4247b60e01b815260040160405180910390fd5b836000036114f357604051631168860160e01b815260040160405180910390fd5b6114fc84610bba565b9050600061151861150e866001611bfc565b610fc49084613722565b9050611528338585888686612357565b50610cf5600161019455565b600061153e61210b565b611546612154565b6001600160a01b03831661156d5760405163e6c4247b60e01b815260040160405180910390fd5b8360000361158e57604051631168860160e01b815260040160405180910390fd5b61159784610fa2565b90506000816115a78660006119f3565b6115b19190613722565b9050611528338585858986612357565b6000610afd826000611bfc565b600081815261013060205260408120610afd906124d0565b6000610afd6116276001546127106115fe9190613722565b612710611620866001600160a01b03166000908152609a602052604090205490565b9190611b4d565b60016119f3565b600082815260fe602052604090206001015461164981611c74565b610d218383611ec6565b6000610afd6001546127106116689190613722565b612710611620856001600160a01b03166000908152609a602052604090205490565b6001600160a01b039182166000908152609b6020908152604080832093909416825291909152205490565b600354610100900460ff16158080156116d55750600354600160ff909116105b806116ef5750303b1580156116ef575060035460ff166001145b6117525760405162461bcd60e51b815260206004820152602e60248201527f496e697469616c697a61626c653a20636f6e747261637420697320616c72656160448201526d191e481a5b9a5d1a585b1a5e995960921b6064820152608401610d92565b6003805460ff191660011790558015611775576003805461ff0019166101001790555b6001600160a01b03831661179c5760405163e6c4247b60e01b815260040160405180910390fd5b6127108211156117bf57604051631168860160e01b815260040160405180910390fd5b61183287878080601f01602080910402602001604051908101604052809392919081815260200183838082843760009201919091525050604080516020601f8b0181900481028201810190925289815292508991508890819084018382808284376000920191909152506124da92505050565b61183a61250b565b611842612532565b61184a612561565b600182905561185a600033611ea3565b6118847f419682485a4d899a3e911be267c1b40c528840983eb762a6f384130c1e0930e333611ea3565b6118ae7ffc8737ab85eb45125971625a9ebdb75cc78e01d5c1fa80c4c6e5203f47bc4fab33611ea3565b6118d87f5e17fc5225d4a099df75359ce1f405503ca79498a8dc46a7d583235a0ee45c1633611ea3565b6000836001600160a01b031663313ce5676040518163ffffffff1660e01b8152600401602060405180830381865afa925050508015611934575060408051601f3d908101601f1916820190925261193191810190613835565b60015b61194057506012611943565b90505b6000805460ff909216600160a01b026001600160a81b03199092166001600160a01b0386161791909117905580156119b5576003805461ff0019169055604051600181527f7f26b83ff96e1f2b6a682f133852f6798a09c465da95921460cefb38474024989060200160405180910390a15b50505050505050565b60006001600160e01b03198216637965db0b60e01b1480610afd57506301ffc9a760e01b6001600160e01b0319831614610afd565b6000806119ff609c5490565b90508015611a2157611a1c611a1360025490565b85908386612590565b610bed565b509192915050565b6001600160a01b038316611a8b5760405162461bcd60e51b8152602060048201526024808201527f45524332303a20617070726f76652066726f6d20746865207a65726f206164646044820152637265737360e01b6064820152608401610d92565b6001600160a01b038216611aec5760405162461bcd60e51b815260206004820152602260248201527f45524332303a20617070726f766520746f20746865207a65726f206164647265604482015261737360f01b6064820152608401610d92565b6001600160a01b038381166000818152609b602090815260408083209487168084529482529182902085905590518481527f8c5be1e5ebec7d5bd14f71427d1e84f3dd0314c0f7b2291e5b200ac8c7c3b925910160405180910390a3505050565b6000808060001985870985870292508281108382030391505080600003611b8757838281611b7d57611b7d613858565b0492505050610cf5565b808411611b9357600080fd5b60008486880960026001871981018816978890046003810283188082028403028082028403028082028403028082028403028082028403029081029092039091026000889003889004909101858311909403939093029303949094049190911702949350505050565b600080611c08609c5490565b9050831580611c15575080155b611a2157611a1c81611c2660025490565b86919086612590565b6000808251604103611c655760208301516040840151606085015160001a611c59878285856125ed565b94509450505050611c6d565b506000905060025b9250929050565b610e8581336120b2565b6000611c8a848461168a565b90506000198114611cf25781811015611ce55760405162461bcd60e51b815260206004820152601d60248201527f45524332303a20696e73756666696369656e7420616c6c6f77616e63650000006044820152606401610d92565b611cf28484848403611a29565b50505050565b6001600160a01b038316611d5c5760405162461bcd60e51b815260206004820152602560248201527f45524332303a207472616e736665722066726f6d20746865207a65726f206164604482015264647265737360d81b6064820152608401610d92565b6001600160a01b038216611dbe5760405162461bcd60e51b815260206004820152602360248201527f45524332303a207472616e7366657220746f20746865207a65726f206164647260448201526265737360e81b6064820152608401610d92565b6001600160a01b0383166000908152609a602052604090205481811015611e365760405162461bcd60e51b815260206004820152602660248201527f45524332303a207472616e7366657220616d6f756e7420657863656564732062604482015265616c616e636560d01b6064820152608401610d92565b6001600160a01b038085166000818152609a602052604080822086860390559286168082529083902080548601905591517fddf252ad1be2c89b69c2b068fc378daa952ba7f163c4a11628f55a4df523b3ef90611e969086815260200190565b60405180910390a3611cf2565b611ead82826126da565b600082815261013060205260409020610d219082612760565b611ed08282612775565b600082815261013060205260409020610d2190826127dc565b6000610da581611c74565b7f4910fdfa16fed3260ed0e7147f7cc6da11a60208b5b9406d12a635614ffd91435460ff1615611f2757610d21836127f1565b826001600160a01b03166352d1902d6040518163ffffffff1660e01b8152600401602060405180830381865afa925050508015611f81575060408051601f3d908101601f19168201909252611f7e9181019061386e565b60015b611fe45760405162461bcd60e51b815260206004820152602e60248201527f45524331393637557067726164653a206e657720696d706c656d656e7461746960448201526d6f6e206973206e6f74205555505360901b6064820152608401610d92565b600080516020613acc83398151915281146120535760405162461bcd60e51b815260206004820152602960248201527f45524331393637557067726164653a20756e737570706f727465642070726f786044820152681a58589b195555525160ba1b6064820152608401610d92565b50610d2183838361288d565b6120676128b2565b610162805460ff191690557f5db9ee0a495bf2e6ff9c91a7834c1ba4fdd244a5e8aa4e537bd38aeae4b073aa335b6040516001600160a01b03909116815260200160405180910390a1565b6120bc8282611246565b610da5576120c9816128fc565b6120d483602061290e565b6040516020016120e5929190613887565b60408051601f198184030181529082905262461bcd60e51b8252610d92916004016132c7565b6101625460ff16156121525760405162461bcd60e51b815260206004820152601060248201526f14185d5cd8589b194e881c185d5cd95960821b6044820152606401610d92565b565b600261019454036121a75760405162461bcd60e51b815260206004820152601f60248201527f5265656e7472616e637947756172643a207265656e7472616e742063616c6c006044820152606401610d92565b600261019455565b60006121da7fdc72ed553f2544c34465af23b847953efeb813428162d767f9ba5f4013be67606115ce565b11801561220e575061220c7fdc72ed553f2544c34465af23b847953efeb813428162d767f9ba5f4013be676085611246565b155b1561222c57604051630b094f2760e31b815260040160405180910390fd5b826002600082825461223e91906137e3565b9091555061224e90508183612aaa565b60408051848152602081018490526001600160a01b0383169133917fdcbc1c05240f31ff3ad067ef1ee35ce4997762752e3a095284754544f4c709d7910160405180910390a350505050565b6040516001600160a01b0380851660248301528316604482015260648101829052611cf29085906323b872dd60e01b906084015b60408051601f198184030181529190526020810180516001600160e01b03166001600160e01b031990931692909217909152612b6b565b600161019455565b61231561210b565b610162805460ff191660011790557f62e78cea01bee320cd4e420270b5ea74000d11b0c9f74754ebdbfc544b05a2586120953390565b6000610cf58383612c3d565b836001600160a01b0316866001600160a01b03161461237b5761237b848784611c7e565b6000546040516370a0823160e01b815230600482015284916001600160a01b0316906370a0823190602401602060405180830381865afa1580156123c3573d6000803e3d6000fd5b505050506040513d601f19601f820116820180604052508101906123e7919061386e565b101561240657604051631e9acf1760e31b815260040160405180910390fd5b6124108483612c67565b600054612427906001600160a01b03168685612d9b565b60006124547f419682485a4d899a3e911be267c1b40c528840983eb762a6f384130c1e0930e3600061122d565b60005490915061246e906001600160a01b03168284612d9b565b8360025461247c9190613722565b60025560408051858152602081018590526001600160a01b03871691339182917ffbde797d201c681b91056529119e0b02407c7bb96a4a2c75c01fc9667232c8db910160405180910390a450505050505050565b6000610afd825490565b600354610100900460ff166125015760405162461bcd60e51b8152600401610d92906138fc565b610da58282612dcb565b600354610100900460ff166121525760405162461bcd60e51b8152600401610d92906138fc565b600354610100900460ff166125595760405162461bcd60e51b8152600401610d92906138fc565b612152612e0b565b600354610100900460ff166125885760405162461bcd60e51b8152600401610d92906138fc565b612152612e3f565b60008061259e868686611b4d565b905060018360028111156125b4576125b4613735565b1480156125d15750600084806125cc576125cc613858565b868809115b156125e4576125e16001826137e3565b90505b95945050505050565b6000807f7fffffffffffffffffffffffffffffff5d576e7357a4501ddfe92f46681b20a083111561262457506000905060036126d1565b8460ff16601b1415801561263c57508460ff16601c14155b1561264d57506000905060046126d1565b6040805160008082526020820180845289905260ff881692820192909252606081018690526080810185905260019060a0016020604051602081039080840390855afa1580156126a1573d6000803e3d6000fd5b5050604051601f1901519150506001600160a01b0381166126ca576000600192509250506126d1565b9150600090505b94509492505050565b6126e48282611246565b610da557600082815260fe602090815260408083206001600160a01b03851684529091529020805460ff1916600117905561271c3390565b6001600160a01b0316816001600160a01b0316837f2f8788117e7eff1d82e926ec794901d17c78024a50270940304540a733656f0d60405160405180910390a45050565b6000610cf5836001600160a01b038416612e66565b61277f8282611246565b15610da557600082815260fe602090815260408083206001600160a01b0385168085529252808320805460ff1916905551339285917ff6391f5c32d9c69d2a47ea670b442974b53935d1edc7fd64eb21e047a839171b9190a45050565b6000610cf5836001600160a01b038416612eb5565b6001600160a01b0381163b61285e5760405162461bcd60e51b815260206004820152602d60248201527f455243313936373a206e657720696d706c656d656e746174696f6e206973206e60448201526c1bdd08184818dbdb9d1c9858dd609a1b6064820152608401610d92565b600080516020613acc83398151915280546001600160a01b0319166001600160a01b0392909216919091179055565b61289683612fa8565b6000825111806128a35750805b15610d2157611cf28383612fe8565b6101625460ff166121525760405162461bcd60e51b815260206004820152601460248201527314185d5cd8589b194e881b9bdd081c185d5cd95960621b6044820152606401610d92565b6060610afd6001600160a01b03831660145b6060600061291d836002613947565b6129289060026137e3565b67ffffffffffffffff81111561294057612940613354565b6040519080825280601f01601f19166020018201604052801561296a576020820181803683370190505b509050600360fc1b816000815181106129855761298561395e565b60200101906001600160f81b031916908160001a905350600f60fb1b816001815181106129b4576129b461395e565b60200101906001600160f81b031916908160001a90535060006129d8846002613947565b6129e39060016137e3565b90505b6001811115612a5b576f181899199a1a9b1b9c1cb0b131b232b360811b85600f1660108110612a1757612a1761395e565b1a60f81b828281518110612a2d57612a2d61395e565b60200101906001600160f81b031916908160001a90535060049490941c93612a5481613974565b90506129e6565b508315610cf55760405162461bcd60e51b815260206004820181905260248201527f537472696e67733a20686578206c656e67746820696e73756666696369656e746044820152606401610d92565b6001600160a01b038216612b005760405162461bcd60e51b815260206004820152601f60248201527f45524332303a206d696e7420746f20746865207a65726f2061646472657373006044820152606401610d92565b80609c6000828254612b1291906137e3565b90915550506001600160a01b0382166000818152609a60209081526040808320805486019055518481527fddf252ad1be2c89b69c2b068fc378daa952ba7f163c4a11628f55a4df523b3ef910160405180910390a35050565b6000612bc0826040518060400160405280602081526020017f5361666545524332303a206c6f772d6c6576656c2063616c6c206661696c6564815250856001600160a01b03166130d39092919063ffffffff16565b805190915015610d215780806020019051810190612bde91906137f6565b610d215760405162461bcd60e51b815260206004820152602a60248201527f5361666545524332303a204552433230206f7065726174696f6e20646964206e6044820152691bdd081cdd58d8d9595960b21b6064820152608401610d92565b6000826000018281548110612c5457612c5461395e565b9060005260206000200154905092915050565b6001600160a01b038216612cc75760405162461bcd60e51b815260206004820152602160248201527f45524332303a206275726e2066726f6d20746865207a65726f206164647265736044820152607360f81b6064820152608401610d92565b6001600160a01b0382166000908152609a602052604090205481811015612d3b5760405162461bcd60e51b815260206004820152602260248201527f45524332303a206275726e20616d6f756e7420657863656564732062616c616e604482015261636560f01b6064820152608401610d92565b6001600160a01b0383166000818152609a602090815260408083208686039055609c80548790039055518581529192917fddf252ad1be2c89b69c2b068fc378daa952ba7f163c4a11628f55a4df523b3ef910160405180910390a3505050565b6040516001600160a01b038316602482015260448101829052610d2190849063a9059cbb60e01b906064016122ce565b600354610100900460ff16612df25760405162461bcd60e51b8152600401610d92906138fc565b609d612dfe83826139d9565b50609e610d2182826139d9565b600354610100900460ff16612e325760405162461bcd60e51b8152600401610d92906138fc565b610162805460ff19169055565b600354610100900460ff166123055760405162461bcd60e51b8152600401610d92906138fc565b6000818152600183016020526040812054612ead57508154600181810184556000848152602080822090930184905584548482528286019093526040902091909155610afd565b506000610afd565b60008181526001830160205260408120548015612f9e576000612ed9600183613722565b8554909150600090612eed90600190613722565b9050818114612f52576000866000018281548110612f0d57612f0d61395e565b9060005260206000200154905080876000018481548110612f3057612f3061395e565b6000918252602080832090910192909255918252600188019052604090208390555b8554869080612f6357612f63613a99565b600190038181906000526020600020016000905590558560010160008681526020019081526020016000206000905560019350505050610afd565b6000915050610afd565b612fb1816127f1565b6040516001600160a01b038216907fbc7cd75a20ee27fd9adebab32041f755214dbc6bffa90cc0225b39da2e5c2d3b90600090a250565b60606001600160a01b0383163b6130505760405162461bcd60e51b815260206004820152602660248201527f416464726573733a2064656c65676174652063616c6c20746f206e6f6e2d636f6044820152651b9d1c9858dd60d21b6064820152608401610d92565b600080846001600160a01b03168460405161306b9190613aaf565b600060405180830381855af49150503d80600081146130a6576040519150601f19603f3d011682016040523d82523d6000602084013e6130ab565b606091505b50915091506125e48282604051806060016040528060278152602001613aec602791396130e2565b6060610bed84846000856130fb565b606083156130f1575081610cf5565b610cf583836131d6565b60608247101561315c5760405162461bcd60e51b815260206004820152602660248201527f416464726573733a20696e73756666696369656e742062616c616e636520666f6044820152651c8818d85b1b60d21b6064820152608401610d92565b600080866001600160a01b031685876040516131789190613aaf565b60006040518083038185875af1925050503d80600081146131b5576040519150601f19603f3d011682016040523d82523d6000602084013e6131ba565b606091505b50915091506131cb87838387613200565b979650505050505050565b8151156131e65781518083602001fd5b8060405162461bcd60e51b8152600401610d9291906132c7565b6060831561326f578251600003613268576001600160a01b0385163b6132685760405162461bcd60e51b815260206004820152601d60248201527f416464726573733a2063616c6c20746f206e6f6e2d636f6e74726163740000006044820152606401610d92565b5081610bed565b610bed83836131d6565b60006020828403121561328b57600080fd5b81356001600160e01b031981168114610cf557600080fd5b60005b838110156132be5781810151838201526020016132a6565b50506000910152565b60208152600082518060208401526132e68160408501602087016132a3565b601f01601f19169190910160400192915050565b60006020828403121561330c57600080fd5b5035919050565b6001600160a01b0381168114610e8557600080fd5b6000806040838503121561333b57600080fd5b823561334681613313565b946020939093013593505050565b634e487b7160e01b600052604160045260246000fd5b600082601f83011261337b57600080fd5b813567ffffffffffffffff8082111561339657613396613354565b604051601f8301601f19908116603f011681019082821181831017156133be576133be613354565b816040528381528660208588010111156133d757600080fd5b836020870160208301376000602085830101528094505050505092915050565b6000806000806080858703121561340d57600080fd5b843561341881613313565b9350602085013561342881613313565b925060408501359150606085013567ffffffffffffffff81111561344b57600080fd5b6134578782880161336a565b91505092959194509250565b6000806040838503121561347657600080fd5b82359150602083013567ffffffffffffffff81111561349457600080fd5b6134a08582860161336a565b9150509250929050565b6000806000606084860312156134bf57600080fd5b83356134ca81613313565b925060208401356134da81613313565b929592945050506040919091013590565b600080604083850312156134fe57600080fd5b82359150602083013561351081613313565b809150509250929050565b60006020828403121561352d57600080fd5b8135610cf581613313565b6000806040838503121561354b57600080fd5b823561355681613313565b9150602083013567ffffffffffffffff81111561349457600080fd5b6000806040838503121561358557600080fd5b50508035926020909101359150565b6000806000606084860312156135a957600080fd5b8335925060208401356135bb81613313565b915060408401356135cb81613313565b809150509250925092565b600080604083850312156135e957600080fd5b82356135f481613313565b9150602083013561351081613313565b60008083601f84011261361657600080fd5b50813567ffffffffffffffff81111561362e57600080fd5b602083019150836020828501011115611c6d57600080fd5b6000806000806000806080878903121561365f57600080fd5b863567ffffffffffffffff8082111561367757600080fd5b6136838a838b01613604565b9098509650602089013591508082111561369c57600080fd5b506136a989828a01613604565b90955093505060408701356136bd81613313565b80925050606087013590509295509295509295565b600181811c908216806136e657607f821691505b60208210810361370657634e487b7160e01b600052602260045260246000fd5b50919050565b634e487b7160e01b600052601160045260246000fd5b81810381811115610afd57610afd61370c565b634e487b7160e01b600052602160045260246000fd5b6020808252602c908201527f46756e6374696f6e206d7573742062652063616c6c6564207468726f7567682060408201526b19195b1959d85d1958d85b1b60a21b606082015260800190565b6020808252602c908201527f46756e6374696f6e206d7573742062652063616c6c6564207468726f7567682060408201526b6163746976652070726f787960a01b606082015260800190565b80820180821115610afd57610afd61370c565b60006020828403121561380857600080fd5b81518015158114610cf557600080fd5b60006020828403121561382a57600080fd5b8151610cf581613313565b60006020828403121561384757600080fd5b815160ff81168114610cf557600080fd5b634e487b7160e01b600052601260045260246000fd5b60006020828403121561388057600080fd5b5051919050565b7f416363657373436f6e74726f6c3a206163636f756e74200000000000000000008152600083516138bf8160178501602088016132a3565b7001034b99036b4b9b9b4b733903937b6329607d1b60179184019182015283516138f08160288401602088016132a3565b01602801949350505050565b6020808252602b908201527f496e697469616c697a61626c653a20636f6e7472616374206973206e6f74206960408201526a6e697469616c697a696e6760a81b606082015260800190565b8082028115828204841417610afd57610afd61370c565b634e487b7160e01b600052603260045260246000fd5b6000816139835761398361370c565b506000190190565b601f821115610d2157600081815260208120601f850160051c810160208610156139b25750805b601f850160051c820191505b818110156139d1578281556001016139be565b505050505050565b815167ffffffffffffffff8111156139f3576139f3613354565b613a0781613a0184546136d2565b8461398b565b602080601f831160018114613a3c5760008415613a245750858301515b600019600386901b1c1916600185901b1785556139d1565b600085815260208120601f198616915b82811015613a6b57888601518255948401946001909101908401613a4c565b5085821015613a895787850151600019600388901b60f8161c191681555b5050505050600190811b01905550565b634e487b7160e01b600052603160045260246000fd5b60008251613ac18184602087016132a3565b919091019291505056fe360894a13ba1a3210667c828492db98dca3e2076cc3735a920a3ca505d382bbc416464726573733a206c6f772d6c6576656c2064656c65676174652063616c6c206661696c6564a2646970667358221220ecba85fb213f68f78e65f6d95267db3f9998c194038ee1dfb6f353a3e098b77864736f6c63430008110033",
  "devdoc": {
    "author": "Spice Finance Inc",
    "events": {
      "TotalAssets(uint256)": {
        "params": {
          "totalAssets": "Total assets"
        }
      },
      "WithdrawalFeeRateUpdated(uint256)": {
        "params": {
          "withdrawalFees": "New withdrawal fees per 10_000 units"
        }
      }
    },
    "kind": "dev",
    "methods": {
      "allowance(address,address)": {
        "details": "See {IERC20-allowance}."
      },
      "approve(address,uint256)": {
        "details": "See {IERC20-approve}. NOTE: If `amount` is the maximum `uint256`, the allowance is not updated on `transferFrom`. This is semantically equivalent to an infinite approval. Requirements: - `spender` cannot be the zero address."
      },
      "approveAsset(address,uint256)": {
        "params": {
          "amount": "Approve amount",
          "spender": "Spender address"
        }
      },
      "balanceOf(address)": {
        "details": "See {IERC20-balanceOf}."
      },
      "constructor": {
        "custom:oz-upgrades-unsafe-allow": "constructor"
      },
      "decreaseAllowance(address,uint256)": {
        "details": "Atomically decreases the allowance granted to `spender` by the caller. This is an alternative to {approve} that can be used as a mitigation for problems described in {IERC20-approve}. Emits an {Approval} event indicating the updated allowance. Requirements: - `spender` cannot be the zero address. - `spender` must have allowance for the caller of at least `subtractedValue`."
      },
      "getRoleAdmin(bytes32)": {
        "details": "Returns the admin role that controls `role`. See {grantRole} and {revokeRole}. To change a role's admin, use {_setRoleAdmin}."
      },
      "getRoleMember(bytes32,uint256)": {
        "details": "Returns one of the accounts that have `role`. `index` must be a value between 0 and {getRoleMemberCount}, non-inclusive. Role bearers are not sorted in any particular way, and their ordering may change at any point. WARNING: When using {getRoleMember} and {getRoleMemberCount}, make sure you perform all queries on the same block. See the following https://forum.openzeppelin.com/t/iterating-over-elements-on-enumerableset-in-openzeppelin-contracts/2296[forum post] for more information."
      },
      "getRoleMemberCount(bytes32)": {
        "details": "Returns the number of accounts that have `role`. Can be used together with {getRoleMember} to enumerate all bearers of a role."
      },
      "grantRole(bytes32,address)": {
        "details": "Grants `role` to `account`. If `account` had not been already granted `role`, emits a {RoleGranted} event. Requirements: - the caller must have ``role``'s admin role. May emit a {RoleGranted} event."
      },
      "hasRole(bytes32,address)": {
        "details": "Returns `true` if `account` has been granted `role`."
      },
      "increaseAllowance(address,uint256)": {
        "details": "Atomically increases the allowance granted to `spender` by the caller. This is an alternative to {approve} that can be used as a mitigation for problems described in {IERC20-approve}. Emits an {Approval} event indicating the updated allowance. Requirements: - `spender` cannot be the zero address."
      },
      "initialize(string,string,address,uint256)": {
        "params": {
          "asset_": "asset token contract",
          "name_": "receipt token name",
          "symbol_": "receipt token symbol",
          "withdrawalFees_": "initial withdrawal fees"
        }
      },
      "name()": {
        "details": "Returns the name of the token."
      },
      "onERC721Received(address,address,uint256,bytes)": {
        "details": "See {IERC721Receiver-onERC721Received}. Always returns `IERC721Receiver.onERC721Received.selector`."
      },
      "paused()": {
        "details": "Returns true if the contract is paused, and false otherwise."
      },
      "proxiableUUID()": {
        "details": "Implementation of the ERC1822 {proxiableUUID} function. This returns the storage slot used by the implementation. It is used to validate the implementation's compatibility when performing an upgrade. IMPORTANT: A proxy pointing at a proxiable contract should not be considered proxiable itself, because this risks bricking a proxy that upgrades to it, by delegating to itself until out of gas. Thus it is critical that this function revert if invoked through a proxy. This is guaranteed by the `notDelegated` modifier."
      },
      "renounceRole(bytes32,address)": {
        "details": "Revokes `role` from the calling account. Roles are often managed via {grantRole} and {revokeRole}: this function's purpose is to provide a mechanism for accounts to lose their privileges if they are compromised (such as when a trusted device is misplaced). If the calling account had been revoked `role`, emits a {RoleRevoked} event. Requirements: - the caller must be `account`. May emit a {RoleRevoked} event."
      },
      "revokeRole(bytes32,address)": {
        "details": "Revokes `role` from `account`. If `account` had been granted `role`, emits a {RoleRevoked} event. Requirements: - the caller must have ``role``'s admin role. May emit a {RoleRevoked} event."
      },
      "setTotalAssets(uint256)": {
        "params": {
          "totalAssets_": "New total assets value"
        }
      },
      "setWithdrawalFees(uint256)": {
        "params": {
          "withdrawalFees": "Withdrawal fees per 10_000 units"
        }
      },
      "supportsInterface(bytes4)": {
        "details": "See {IERC165-supportsInterface}."
      },
      "symbol()": {
        "details": "Returns the symbol of the token, usually a shorter version of the name."
      },
      "totalSupply()": {
        "details": "See {IERC20-totalSupply}."
      },
      "transfer(address,uint256)": {
        "details": "See {IERC20-transfer}. Requirements: - `to` cannot be the zero address. - the caller must have a balance of at least `amount`."
      },
      "transferFrom(address,address,uint256)": {
        "details": "See {IERC20-transferFrom}. Emits an {Approval} event indicating the updated allowance. This is not required by the EIP. See the note at the beginning of {ERC20}. NOTE: Does not update the allowance if the current allowance is the maximum `uint256`. Requirements: - `from` and `to` cannot be the zero address. - `from` must have a balance of at least `amount`. - the caller must have allowance for ``from``'s tokens of at least `amount`."
      },
      "transferNFT(address,uint256)": {
        "params": {
          "nft": "NFT contract address",
          "nftId": "NFT token ID"
        }
      },
      "upgradeTo(address)": {
        "details": "Upgrade the implementation of the proxy to `newImplementation`. Calls {_authorizeUpgrade}. Emits an {Upgraded} event."
      },
      "upgradeToAndCall(address,bytes)": {
        "details": "Upgrade the implementation of the proxy to `newImplementation`, and subsequently execute the function call encoded in `data`. Calls {_authorizeUpgrade}. Emits an {Upgraded} event."
      }
    },
    "title": "Vault",
    "version": 1
  },
  "userdoc": {
    "errors": {
      "InsufficientBalance()": [
        {
          "notice": "Insufficient balance"
        }
      ],
      "InvalidAddress()": [
        {
          "notice": "Invalid address (e.g. zero address)"
        }
      ],
      "NotWhitelisted()": [
        {
          "notice": "Not whitelisted"
        }
      ],
      "ParameterOutOfBounds()": [
        {
          "notice": "Parameter out of bounds"
        }
      ]
    },
    "events": {
      "Redeemed(address,uint256,uint256)": {
        "notice": "Emitted when receipt tokens are redeemed"
      },
      "TotalAssets(uint256)": {
        "notice": "Emitted when totalAssets is updated"
      },
      "WithdrawalFeeRateUpdated(uint256)": {
        "notice": "Emitted when withdrawal fee rate is updated"
      },
      "Withdrawn(address,uint256)": {
        "notice": "Emitted when redeemed asset tokens are withdrawn"
      }
    },
    "kind": "user",
    "methods": {
      "ASSET_RECEIVER_ROLE()": {
        "notice": "Asset receiver role"
      },
      "BIDDER_ROLE()": {
        "notice": "Bidder role"
      },
      "IMPLEMENTATION_VERSION()": {
        "notice": "Implementation version"
      },
      "KEEPER_ROLE()": {
        "notice": "Keeper role"
      },
      "LIQUIDATOR_ROLE()": {
        "notice": "Liquidator role"
      },
      "MARKETPLACE_ROLE()": {
        "notice": "Marketplace role"
      },
      "WHITELIST_ROLE()": {
        "notice": "Whitelist role"
      },
      "approveAsset(address,uint256)": {
        "notice": "Approves asset to spender"
      },
      "asset()": {
        "notice": "See {IERC4626-asset}."
      },
      "convertToAssets(uint256)": {
        "notice": "See {IERC4626-convertToAssets}"
      },
      "convertToShares(uint256)": {
        "notice": "See {IERC4626-convertToShares}"
      },
      "decimals()": {
        "notice": "See {IERC20Metadata-decimals}."
      },
      "deposit(uint256,address)": {
        "notice": "See {IERC4626-deposit}."
      },
      "initialize(string,string,address,uint256)": {
        "notice": "Vault constructor (for proxy)"
      },
      "isValidSignature(bytes32,bytes)": {
        "notice": "See {IERC1271-isValidSignature}"
      },
      "maxDeposit(address)": {
        "notice": "See {IERC4626-maxDeposit}"
      },
      "maxMint(address)": {
        "notice": "See {IERC4626-maxMint}"
      },
      "maxRedeem(address)": {
        "notice": "See {IERC4626-maxRedeem}"
      },
      "maxWithdraw(address)": {
        "notice": "See {IERC4626-maxWithdraw}"
      },
      "mint(uint256,address)": {
        "notice": "See {IERC4626-mint}."
      },
      "pause()": {
        "notice": "Pause contract"
      },
      "previewDeposit(uint256)": {
        "notice": "See {IERC4626-previewDeposit}"
      },
      "previewMint(uint256)": {
        "notice": "See {IERC4626-previewMint}"
      },
      "previewRedeem(uint256)": {
        "notice": "See {IERC4626-previewRedeem}"
      },
      "previewWithdraw(uint256)": {
        "notice": "See {IERC4626-previewWithdraw}"
      },
      "redeem(uint256,address,address)": {
        "notice": "See {IERC4626-redeem}."
      },
      "setTotalAssets(uint256)": {
        "notice": "Set total assets Emits a {TotalAssets} event."
      },
      "setWithdrawalFees(uint256)": {
        "notice": "Set the admin fee rate Emits a {WithdrawalFeeRateUpdated} event."
      },
      "totalAssets()": {
        "notice": "See {IERC4626-totalAssets}"
      },
      "transferNFT(address,uint256)": {
        "notice": "Transfer NFT out of vault"
      },
      "unpause()": {
        "notice": "Unpause contract"
      },
      "withdraw(uint256,address,address)": {
        "notice": "See {IERC4626-withdraw}."
      }
    },
    "version": 1
  },
  "storageLayout": {
    "storage": [
      {
        "astId": 15725,
        "contract": "contracts/vaults/Vault.sol:Vault",
        "label": "_asset",
        "offset": 0,
        "slot": "0",
        "type": "t_contract(IERC20Upgradeable)2330"
      },
      {
        "astId": 15728,
        "contract": "contracts/vaults/Vault.sol:Vault",
        "label": "_decimals",
        "offset": 20,
        "slot": "0",
        "type": "t_uint8"
      },
      {
        "astId": 15731,
        "contract": "contracts/vaults/Vault.sol:Vault",
        "label": "_withdrawalFees",
        "offset": 0,
        "slot": "1",
        "type": "t_uint256"
      },
      {
        "astId": 15734,
        "contract": "contracts/vaults/Vault.sol:Vault",
        "label": "_totalAssets",
        "offset": 0,
        "slot": "2",
        "type": "t_uint256"
      },
      {
        "astId": 1142,
        "contract": "contracts/vaults/Vault.sol:Vault",
        "label": "_initialized",
        "offset": 0,
        "slot": "3",
        "type": "t_uint8"
      },
      {
        "astId": 1145,
        "contract": "contracts/vaults/Vault.sol:Vault",
        "label": "_initializing",
        "offset": 1,
        "slot": "3",
        "type": "t_bool"
      },
      {
        "astId": 1124,
        "contract": "contracts/vaults/Vault.sol:Vault",
        "label": "__gap",
        "offset": 0,
        "slot": "4",
        "type": "t_array(t_uint256)50_storage"
      },
      {
        "astId": 1439,
        "contract": "contracts/vaults/Vault.sol:Vault",
        "label": "__gap",
        "offset": 0,
        "slot": "54",
        "type": "t_array(t_uint256)50_storage"
      },
      {
        "astId": 4793,
        "contract": "contracts/vaults/Vault.sol:Vault",
        "label": "__gap",
        "offset": 0,
        "slot": "104",
        "type": "t_array(t_uint256)50_storage"
      },
      {
        "astId": 1659,
        "contract": "contracts/vaults/Vault.sol:Vault",
        "label": "_balances",
        "offset": 0,
        "slot": "154",
        "type": "t_mapping(t_address,t_uint256)"
      },
      {
        "astId": 1665,
        "contract": "contracts/vaults/Vault.sol:Vault",
        "label": "_allowances",
        "offset": 0,
        "slot": "155",
        "type": "t_mapping(t_address,t_mapping(t_address,t_uint256))"
      },
      {
        "astId": 1667,
        "contract": "contracts/vaults/Vault.sol:Vault",
        "label": "_totalSupply",
        "offset": 0,
        "slot": "156",
        "type": "t_uint256"
      },
      {
        "astId": 1669,
        "contract": "contracts/vaults/Vault.sol:Vault",
        "label": "_name",
        "offset": 0,
        "slot": "157",
        "type": "t_string_storage"
      },
      {
        "astId": 1671,
        "contract": "contracts/vaults/Vault.sol:Vault",
        "label": "_symbol",
        "offset": 0,
        "slot": "158",
        "type": "t_string_storage"
      },
      {
        "astId": 2251,
        "contract": "contracts/vaults/Vault.sol:Vault",
        "label": "__gap",
        "offset": 0,
        "slot": "159",
        "type": "t_array(t_uint256)45_storage"
      },
      {
        "astId": 5072,
        "contract": "contracts/vaults/Vault.sol:Vault",
        "label": "__gap",
        "offset": 0,
        "slot": "204",
        "type": "t_array(t_uint256)50_storage"
      },
      {
        "astId": 184,
        "contract": "contracts/vaults/Vault.sol:Vault",
        "label": "_roles",
        "offset": 0,
        "slot": "254",
        "type": "t_mapping(t_bytes32,t_struct(RoleData)179_storage)"
      },
      {
        "astId": 479,
        "contract": "contracts/vaults/Vault.sol:Vault",
        "label": "__gap",
        "offset": 0,
        "slot": "255",
        "type": "t_array(t_uint256)49_storage"
      },
      {
        "astId": 33,
        "contract": "contracts/vaults/Vault.sol:Vault",
        "label": "_roleMembers",
        "offset": 0,
        "slot": "304",
        "type": "t_mapping(t_bytes32,t_struct(AddressSet)6588_storage)"
      },
      {
        "astId": 143,
        "contract": "contracts/vaults/Vault.sol:Vault",
        "label": "__gap",
        "offset": 0,
        "slot": "305",
        "type": "t_array(t_uint256)49_storage"
      },
      {
        "astId": 1461,
        "contract": "contracts/vaults/Vault.sol:Vault",
        "label": "_paused",
        "offset": 0,
        "slot": "354",
        "type": "t_bool"
      },
      {
        "astId": 1566,
        "contract": "contracts/vaults/Vault.sol:Vault",
        "label": "__gap",
        "offset": 0,
        "slot": "355",
        "type": "t_array(t_uint256)49_storage"
      },
      {
        "astId": 1581,
        "contract": "contracts/vaults/Vault.sol:Vault",
        "label": "_status",
        "offset": 0,
        "slot": "404",
        "type": "t_uint256"
      },
      {
        "astId": 1639,
        "contract": "contracts/vaults/Vault.sol:Vault",
        "label": "__gap",
        "offset": 0,
        "slot": "405",
        "type": "t_array(t_uint256)49_storage"
      }
    ],
    "types": {
      "t_address": {
        "encoding": "inplace",
        "label": "address",
        "numberOfBytes": "20"
      },
      "t_array(t_bytes32)dyn_storage": {
        "base": "t_bytes32",
        "encoding": "dynamic_array",
        "label": "bytes32[]",
        "numberOfBytes": "32"
      },
      "t_array(t_uint256)45_storage": {
        "base": "t_uint256",
        "encoding": "inplace",
        "label": "uint256[45]",
        "numberOfBytes": "1440"
      },
      "t_array(t_uint256)49_storage": {
        "base": "t_uint256",
        "encoding": "inplace",
        "label": "uint256[49]",
        "numberOfBytes": "1568"
      },
      "t_array(t_uint256)50_storage": {
        "base": "t_uint256",
        "encoding": "inplace",
        "label": "uint256[50]",
        "numberOfBytes": "1600"
      },
      "t_bool": {
        "encoding": "inplace",
        "label": "bool",
        "numberOfBytes": "1"
      },
      "t_bytes32": {
        "encoding": "inplace",
        "label": "bytes32",
        "numberOfBytes": "32"
      },
      "t_contract(IERC20Upgradeable)2330": {
        "encoding": "inplace",
        "label": "contract IERC20Upgradeable",
        "numberOfBytes": "20"
      },
      "t_mapping(t_address,t_bool)": {
        "encoding": "mapping",
        "key": "t_address",
        "label": "mapping(address => bool)",
        "numberOfBytes": "32",
        "value": "t_bool"
      },
      "t_mapping(t_address,t_mapping(t_address,t_uint256))": {
        "encoding": "mapping",
        "key": "t_address",
        "label": "mapping(address => mapping(address => uint256))",
        "numberOfBytes": "32",
        "value": "t_mapping(t_address,t_uint256)"
      },
      "t_mapping(t_address,t_uint256)": {
        "encoding": "mapping",
        "key": "t_address",
        "label": "mapping(address => uint256)",
        "numberOfBytes": "32",
        "value": "t_uint256"
      },
      "t_mapping(t_bytes32,t_struct(AddressSet)6588_storage)": {
        "encoding": "mapping",
        "key": "t_bytes32",
        "label": "mapping(bytes32 => struct EnumerableSetUpgradeable.AddressSet)",
        "numberOfBytes": "32",
        "value": "t_struct(AddressSet)6588_storage"
      },
      "t_mapping(t_bytes32,t_struct(RoleData)179_storage)": {
        "encoding": "mapping",
        "key": "t_bytes32",
        "label": "mapping(bytes32 => struct AccessControlUpgradeable.RoleData)",
        "numberOfBytes": "32",
        "value": "t_struct(RoleData)179_storage"
      },
      "t_mapping(t_bytes32,t_uint256)": {
        "encoding": "mapping",
        "key": "t_bytes32",
        "label": "mapping(bytes32 => uint256)",
        "numberOfBytes": "32",
        "value": "t_uint256"
      },
      "t_string_storage": {
        "encoding": "bytes",
        "label": "string",
        "numberOfBytes": "32"
      },
      "t_struct(AddressSet)6588_storage": {
        "encoding": "inplace",
        "label": "struct EnumerableSetUpgradeable.AddressSet",
        "members": [
          {
            "astId": 6587,
            "contract": "contracts/vaults/Vault.sol:Vault",
            "label": "_inner",
            "offset": 0,
            "slot": "0",
            "type": "t_struct(Set)6273_storage"
          }
        ],
        "numberOfBytes": "64"
      },
      "t_struct(RoleData)179_storage": {
        "encoding": "inplace",
        "label": "struct AccessControlUpgradeable.RoleData",
        "members": [
          {
            "astId": 176,
            "contract": "contracts/vaults/Vault.sol:Vault",
            "label": "members",
            "offset": 0,
            "slot": "0",
            "type": "t_mapping(t_address,t_bool)"
          },
          {
            "astId": 178,
            "contract": "contracts/vaults/Vault.sol:Vault",
            "label": "adminRole",
            "offset": 0,
            "slot": "1",
            "type": "t_bytes32"
          }
        ],
        "numberOfBytes": "64"
      },
      "t_struct(Set)6273_storage": {
        "encoding": "inplace",
        "label": "struct EnumerableSetUpgradeable.Set",
        "members": [
          {
            "astId": 6268,
            "contract": "contracts/vaults/Vault.sol:Vault",
            "label": "_values",
            "offset": 0,
            "slot": "0",
            "type": "t_array(t_bytes32)dyn_storage"
          },
          {
            "astId": 6272,
            "contract": "contracts/vaults/Vault.sol:Vault",
            "label": "_indexes",
            "offset": 0,
            "slot": "1",
            "type": "t_mapping(t_bytes32,t_uint256)"
          }
        ],
        "numberOfBytes": "64"
      },
      "t_uint256": {
        "encoding": "inplace",
        "label": "uint256",
        "numberOfBytes": "32"
      },
      "t_uint8": {
        "encoding": "inplace",
        "label": "uint8",
        "numberOfBytes": "1"
      }
    }
  }
}